:020000040800F2
:10000000000002200D030008E9070008F7070008B8
:10001000FF070008070800080F080008000000009C
:1000200000000000000000000000000017080008A9
:1000300025080008000000003308000841080008F7
:100040006103000861030008610300086103000800
:1000500061030008610300086103000861030008F0
:1000600061030008610300086103000861030008E0
:1000700061030008610300086103000861030008D0
:1000800061030008610300086103000861030008C0
:1000900061030008610300086103000861030008B0
:1000A00061030008610300086103000861030008A0
:1000B0006103000861030008610300086103000890
:1000C0006103000861030008610300086103000880
:1000D0006103000861030008610300086103000870
:1000E00061030008610300080000000061030008CC
:1000F0006103000861030008610300086103000850
:10010000610300086103000861030008610300083F
:10011000610300086103000861030008610300082F
:10012000610300086103000861030008610300081F
:10013000610300086103000861030008610300080F
:1001400000000000000000000000000000000000AF
:1001500061030008610300086103000861030008EF
:1001600061030008610300086103000861030008DF
:1001700061030008610300086103000861030008CF
:1001800061030008610300086103000861030008BF
:1001900061030008610300086103000861030008AF
:1001A000610300086103000861030008000000000B
:1001B000610300086103000861030008610300088F
:1001C0006103000861030008000000000000000057
:1001D00000000000000000006103000800000000B3
:1001E000000000000000000000000000000000000F
:1001F0000000000000000000610300086103000827
:1002000061030008610300080000000061030008AA
:10021000610300086103000861030008610300082E
:1002200061030008000000006103000800000000F6
:10023000610300086103000800000000610300087A
:1002400061030008610300086103000861030008FE
:1002500061030008610300086103000861030008EE
:1002600061030008610300086103000861030008DE
:10027000610300086103000861030008000000003A
:1002800061030008610300086103000861030008BE
:10029000000000006103000861030008610300081A
:1002A000610300086103000861030008610300089E
:1002B000610300086103000861030008610300088E
:0C02C000610300086103000861030008EE
:1002CC0010B5054C237833B9044B13B10448AFF384
:1002DC0000800123237010BD1000002000000000DE
:1002EC00703D000808B5034B1BB103490348AFF33D
:1002FC00008008BD0000000014000020703D0008C4
:10030C00DFF838D001F020FD002103E00C4B5B58E6
:10031C00435004310B480C4B42189A42F6D30B4A0B
:10032C0002E0002342F8043B094B9A42F9D301F056
:10033C00B3FC03F0F3FC00F00FF870470000022050
:10034C00A03D00080000002010000020100000203C
:10035C009C000020FEE7000080B582B000AF00F0EA
:10036C0087F900F0BBF801F007FD00F03BF800F056
:10037C0023F80346002B01D000F02FF800F01CF9F5
:10038C000A4B00221A600A4B1B681A46094B1A606A
:10039C004FF010431B687B607B6883F3088800BFB9
:1003AC00044B1B68984700BFFDE700BF10E000E05E
:1003BC00040000902C00002080B582B000AF002318
:1003CC007B60002000F096F902467B6813437B604B
:1003DC007B6818460837BD4680BD80B400AF00BFAF
:1003EC00FDE7000080B59EB000AF07F1540320225A
:1003FC000021184603F08AFC07F108034C22002167
:10040C00184603F083FC002387F8773000237B60C9
:10041C00314B9B69304A23F4404393612E4B9B69CB
:10042C0003F440437B607B6800BF2B4B9B6903F458
:10043C000053B3F5005FF8D10123BB604FF4803358
:10044C00FB6000237B6100237B620223FB6202239F
:10045C003B6305237B636823BB6300233B6501235C
:10046C00FB6302237B6404233B640023FB640823AB
:10047C00BB6407F10803184602F03EFD034687F8FB
:10048C00773097F87730002B01D000BFFDE73F2382
:10049C007B650323BB650023FB6508233B66402378
:1004AC007B664023BB664FF48063FB6640233B674F
:1004BC0007F154030321184603F0F8F8034687F8B4
:1004CC00773097F87730002B01D000BFFDE700BFE5
:1004DC007837BD4680BD00BF0048025880B485B057
:1004EC0000AF344B5B6903F40033002B1BD1BFF31B
:1004FC004F8F00BFBFF36F8F00BF2E4B0022C3F88E
:10050C005022BFF34F8F00BFBFF36F8F00BF294B3B
:10051C005B69284A43F400335361BFF34F8F00BF2C
:10052C00BFF36F8F00E000BF224B5B6903F4803395
:10053C00002B38D11F4B0022C3F88420BFF34F8F00
:10054C0000BF1C4BD3F88030FB60FB685B0BC3F324
:10055C000E03BB60FB68DB08C3F309037B60BB685D
:10056C005A0143F6E07313407A689207114913431A
:10057C00C1F860327B685A1E7A60002BEFD1BB68E1
:10058C005A1EBA60002BE5D1BFF34F8F00BF094B49
:10059C005B69084A43F480335361BFF34F8F00BF4C
:1005AC00BFF36F8F00E000BF00BF1437BD465DF88E
:1005BC00047B704700ED00E080B485B000AFBFF362
:1005CC004F8F00BFBFF36F8F00BF284B5B69274A6B
:1005DC0023F400335361254B0022C3F85022BFF3A0
:1005EC004F8F00BFBFF36F8F00BF00BF1F4B0022A8
:1005FC00C3F88420BFF34F8F00BF1C4B5B691B4AB1
:10060C0023F480335361BFF34F8F00BF174BD3F8E4
:10061C008030FB60FB685B0BC3F30E03BB60FB68B5
:10062C00DB08C3F309037B60BB685A0143F6E07334
:10063C0013407A6892070D491343C1F874327B68F2
:10064C005A1E7A60002BEFD1BB685A1EBA60002B81
:10065C00E5D1BFF34F8F00BFBFF36F8F00BF00BF5B
:10066C0000BF1437BD465DF8047B704700ED00E019
:10067C0080B584B000AF01F021FD01233B70002355
:10068C007B601F233B720023FB720023FB73002350
:10069C00BB7301237B7300237B700023BB72872306
:1006AC007B7201233B733B46184601F03FFD01234F
:1006BC003B704FF010437B6017233B720323FB729C
:1006CC000023FB730123BB7300237B7301237B701B
:1006DC000023BB7200237B7200233B733B461846FE
:1006EC0001F024FD042001F001FD00BF1037BD46D0
:1006FC0080BD000080B582B000AF78600D4B012248
:10070C001A700C4B01225A700A49002000F038FD77
:10071C000346002B01D0012308E0002000F0CEFDA1
:10072C000346002B01D0012300E0002318460837B4
:10073C00BD4680BD3000002080B483B000AF78602F
:10074C00002318460C37BD465DF8047B704700004B
:10075C0080B582B000AF786039607B681E4A1A6041
:10076C007B6804225A607B6800229A603B681A6896
:10077C007B681A617B6802225A617B6800229A614D
:10078C007B680022DA617B6800221A627B68042293
:10079C005A623B689A687B689A627B6800221A638B
:1007AC003B68DB68012B08D17B684FF08072DA6004
:1007BC007B684FF08052DA6205E07B680022DA60D9
:1007CC007B680022DA62786801F098FE03461846CE
:1007DC000837BD4680BD00BF0050005280B400AF4A
:1007EC0000BFBD465DF8047B704780B400AF00BF0E
:1007FC00FDE780B400AF00BFFDE780B400AF00BFE1
:10080C00FDE780B400AF00BFFDE780B400AF00BFD0
:10081C00BD465DF8047B704780B400AF00BFBD4699
:10082C005DF8047B704780B400AF00BFBD465DF837
:10083C00047B704780B500AF01F018FB00BF80BD92
:10084C0080B483B000AF78607B684FF080621A6030
:10085C007B684FF480325A607B684FF480629A60F8
:10086C007B684FF48052DA607B684FF480421A61E7
:10087C007B684FF480525A617B684FF480429A61D6
:10088C007B684FF48072DA617B684FF480221A62C5
:10089C00002318460C37BD465DF8047B704780B5C5
:1008AC009CB000AF78600B46FB701346BB7007F131
:1008BC00200350220021184603F028FA07F10C03FC
:1008CC0000221A605A609A60DA601A61FB78002B79
:1008DC0005D1BB78012B02D14FF0FF3388E0002308
:1008EC003B6200237B62FB78002B01D1012300E0EB
:1008FC000423FB62BB78012B01D1082300E0002309
:10090C007B63FB78002B01D1002300E010233B63B9
:10091C00FB78002B01D1052301E040F2FA53BB62B6
:10092C00FB78002B01D1002301E04FF48063FB63C3
:10093C00BB78012B02D14FF4006300E000237B64F1
:10094C004FF440533B640023BB630023FB64FB78F0
:10095C00002B02D14FF0807301E04FF08063BB6538
:10096C00BB78012B02D14FF0006300E000233B6603
:10097C00FB78002B01D1002300E005237B66BB78BC
:10098C00012B01D1022300E00123FB65BB78012B75
:10099C0002D14FF0005300E00023BB660023FB663E
:1009AC000023FB6001233B6100237B611023FB616F
:1009BC004FF48003BB6107F1200341F288321946E2
:1009CC00786801F061FE0346002B02D04FF0FF3334
:1009DC000EE007F10C0341F288321946786801F0F9
:1009EC00F6FF0346002B02D04FF0FF3300E000234C
:1009FC0018467037BD4680BD80B598B000AF7860A2
:100A0C000B46FB701346BB7007F1100350220021FC
:100A1C00184603F07BF907F1080300221A605A60AC
:100A2C00FB78012B05D1BB78002B02D14FF0FF33A3
:100A3C0088E001233B6100237B61FB78002B01D113
:100A4C00012300E00423FB6100237B62FB78002B75
:100A5C0001D1002300E010233B62FB78002B06D170
:100A6C00BB78002B01D10B2303E00C2301E04EF6E5
:100A7C001343BB61FB78002B02D14FF4807301E070
:100A8C004FF48063FB6200237B63BB78002B02D1A5
:100A9C004FF4005301E04FF440533B630023FB63DE
:100AAC00FB78002B02D14FF0807301E04FF0806394
:100ABC00BB6400233B65FB78002B01D1082300E0CD
:100ACC0006237B650023BB650023FB6507F1100340
:100ADC0041F288321946786801F0D6FD0346002BA6
:100AEC0002D04FF0FF332DE002233B61FB78002B4B
:100AFC0006D1BB78002B01D1022303E0122301E0C5
:100B0C0041F2ED23BB6100237B6507F1100341F239
:100B1C0088321946786801F0B7FD0346002B02D0E5
:100B2C004FF0FF330EE00023BB6007F108031946BA
:100B3C00786801F0D3FF0346002B02D04FF0FF334F
:100B4C0000E0002318466037BD4680BD80B598B0E4
:100B5C0000AF78600B46FB7007F1100350220021A8
:100B6C00184603F0D3F807F1080300221A605A6004
:100B7C0001233B6100237B610423FB6108237B621F
:100B8C0010233B624EF61163BB614FF48063FB6232
:100B9C004FF400637B634FF440533B630023FB63D0
:100BAC004FF08063BB644FF000633B6506237B65AD
:100BBC004FF00053BB650023FB6507F1100341F2B6
:100BCC0088321946786801F05FFD0346002B02D08D
:100BDC004FF0FF3325E002233B6141F2ED23BB6173
:100BEC0000237B650023BB6507F1100341F28832BB
:100BFC001946786801F048FD0346002B02D04FF0EF
:100C0C00FF330EE00023BB6007F108031946786838
:100C1C0001F064FF0346002B02D04FF0FF3300E0DD
:100C2C00002318466037BD4680BD80B59CB000AF30
:100C3C0078600B46FB701346BB7007F12003502203
:100C4C000021184603F062F807F10C0300221A6029
:100C5C005A609A60DA601A61FB78002B05D1BB7878
:100C6C00012B02D14FF0FF33A6E000233B6200239F
:100C7C007B62FB78002B01D1012300E00423FB6293
:100C8C00BB78012B01D1082300E000237B63FB78A8
:100C9C00002B01D1002300E010233B63FB78002BD9
:100CAC0001D1062301E040F2F963BB620023FB6330
:100CBC000023FB640023BB6500237B660023BB661B
:100CCC000023FB6607F1200341F28832194678684D
:100CDC0001F0DAFC0346002B02D04FF0FF336BE03F
:100CEC00FB78002B01D1052301E040F2FA53BB62E3
:100CFC00FB78002B01D1002301E04FF48063FB63F0
:100D0C00BB78012B02D14FF4006300E000237B641D
:100D1C004FF440533B640023BB63FB78002B02D1A0
:100D2C004FF0807301E04FF08063BB65BB78012B03
:100D3C0002D14FF0006300E000233B66FB78002BF0
:100D4C0001D1002300E005237B66BB78012B01D188
:100D5C00022300E00123FB65BB78012B02D14FF08D
:100D6C00005300E00023BB6607F1200341F28832F8
:100D7C001946786801F088FC0346002B02D04FF02E
:100D8C00FF3319E00223FB6002233B6100237B61EC
:100D9C001023FB614FF48003BB6107F10C0341F29C
:100DAC0088321946786801F012FE0346002B02D0F7
:100DBC004FF0FF3300E0002318467037BD4680BD6E
:100DCC0080B598B000AFF8607B600B46FB721346A1
:100DDC00BB7207F1100350220021184602F096FF57
:100DEC00FB7A002B05D1BB7A012B02D14FF0FF33DC
:100DFC0077E000233B6100237B61FB7A002B01D160
:100E0C00012300E00423FB61BB7A012B01D10823F1
:100E1C0000E000237B62FB7A002B01D1002300E071
:100E2C0010233B62FB7A002B01D1722301E047F2C5
:100E3C008D23BB61FB7A002B02D14FF4807301E050
:100E4C004FF48063FB62BB7A012B02D14FF4006339
:100E5C0000E000237B634FF440533B637B68BB6231
:100E6C000023FB63FB7A002B02D14FF0807301E06F
:100E7C004FF08063BB64BB7A012B02D14FF000634F
:100E8C0000E000233B6500237B65FB7A002B06D03A
:100E9C00BB7A012B01D1022302E0012300E00123E4
:100EAC00FB640023BB650023FB6507F1100341F2D3
:100EBC0088321946F86801F0E7FB0346002B02D094
:100ECC004FF0FF330DE041F2883207F16801F8680A
:100EDC0001F067FC0346002B02D04FF0FF3300E01B
:100EEC00002318466037BD4680BD80B598B000AF72
:100EFC00F8607B600B46FB721346BB7207F1100364
:100F0C0050220021184602F001FFFB7A002B05D17C
:100F1C00BB7A012B02D14FF0FF337CE000233B6105
:100F2C0000237B61FB7A002B01D1012300E0042319
:100F3C00FB61BB7A012B01D1082300E000237B620B
:100F4C00FB7A002B01D1002300E010233B62FB7ADB
:100F5C00002B01D1712301E047F28E13BB61FB7AA8
:100F6C00002B02D14FF4807301E04FF48063FB62DD
:100F7C00BB7A012B02D14FF4006300E000237B63AA
:100F8C004FF440533B637B68BB620023FB63FB7AEB
:100F9C00002B02D14FF0807301E04FF08063BB64F3
:100FAC00BB7A012B02D14FF0006300E000233B65BC
:100FBC00FB7A002B01D1002300E005237B65BB7A73
:100FCC00012B01D1022300E00123FB64BB7A012B2E
:100FDC0002D14FF0005300E00023BB650023FB65FA
:100FEC0007F1100341F288321946F86801F04CFB06
:100FFC000346002B02D04FF0FF330CE041F2883255
:10100C00B96EF86801F040FC0346002B02D04FF09B
:10101C00FF3300E0002318466037BD4680BD80B525
:10102C0096B000AF78600B46FB701346BB7007F1AF
:10103C00080350220021184602F068FEFB78002BB2
:10104C0005D1BB78012B02D14FF0FF333BE00023DD
:10105C00BB600023FB60FB78002B01D1012300E077
:10106C0004237B61BB78012B01D1082300E0002312
:10107C00FB61FB78002B01D1002300E01023BB6146
:10108C00FB78002B01D1662301E046F299633B61AA
:10109C0000237B6200237B6300233B640023FB64FF
:1010AC0000233B6500237B6507F1080341F288327E
:1010BC001946786801F0E8FA0346002B02D04FF08D
:1010CC00FF3300E0002318465837BD4680BD80B57D
:1010DC0096B000AF78600B46FB701346BB7007F1FF
:1010EC00080350220021184602F010FEFB78002B5A
:1010FC0005D1BB78012B02D14FF0FF333BE000232D
:10110C00BB600023FB60FB78002B01D1012300E0C6
:10111C0004237B61BB78012B01D1082300E0002361
:10112C00FB61FB78002B01D1002300E01023BB6195
:10113C00FB78002B01D1992301E049F666133B6142
:10114C0000237B6200237B6300233B640023FB644E
:10115C0000233B6500237B6507F1080341F28832CD
:10116C001946786801F090FA0346002B02D04FF034
:10117C00FF3300E0002318465837BD4680BD000001
:10118C0080B594B000AF786039607B68002B03D0D9
:10119C006FF00103FB6487E0464A7B6812F833303A
:1011AC00002B7FD17B685C2202FB03F3424A134481
:1011BC00184600F04DF907F11C031846FFF740FBE9
:1011CC0002233B61FB697B647B6C93FAA3F33B6466
:1011DC003B6CBB64BB6C002B01D1202303E0BB6CCC
:1011EC00B3FA83F3DBB2FB6000237B613B685B7873
:1011FC00BB617B685C2202FB03F32F4A1344184645
:10120C00FFF79AFA0346002B03D06FF00303FB643D
:10121C004AE07B685C2202FB03F3274A134407F184
:10122C000C0211461846FFF793FA0346002B03D025
:10123C006FF00303FB6437E0786800F05BFA034659
:10124C00002B03D06FF00403FB642DE07B685C2261
:10125C0002FB03F3184A9818164A7B68DB00134408
:10126C005978144A7B68DB0013449B781A46FFF7C5
:10127C0016FB0346002B03D06FF00403FB6413E052
:10128C003B6819783B685B781A46786800F06AF816
:10129C000346002B03D06FF00403FB6404E000232F
:1012AC00FB6401E00023FB64FB6C18465037BD4621
:1012BC0080BD00BF900000203400002080B584B0B9
:1012CC0000AF78600023FB607B68002B03D06FF0CD
:1012DC000103FB603DE0214A7B68DB0013449B78F3
:1012EC00002B1BD17B685C2202FB03F31C4A981871
:1012FC001A4A7B68DB0013445B7801221946FFF71E
:10130C007BFB0346002B03D06FF00403FB6020E053
:10131C00124A7B68022102F833101AE07B685C22C7
:10132C0002FB03F30E4A1A440C497B68DB000B44A6
:10133C005B7819461046FFF709FC0346002B03D0D7
:10134C006FF00403FB6004E0044A7B68022102F89E
:10135C003310FB6818461037BD4680BD9000002046
:10136C003400002080B584B000AF78600B46FB7071
:10137C001346BB700023FB607B68002B03D06FF01F
:10138C000103FB605DE0314A7B6812F83330022BBD
:10139C0003D16FF01903FB6053E02C4A7B68DB0030
:1013AC0013445B78012B25D1FB78012B07D1274AFD
:1013BC007B68DB0013449B78BA789A422AD0786811
:1013CC0000F0BEFBF860FB68002B23D1FB78012BEF
:1013DC0020D11E4A7B68DB0013449B78002B04D180
:1013EC00786800F01DFAF86014E0786800F0F2FA02
:1013FC00F8600FE0FB78012B0ED1BB78002B04D1E9
:10140C00786800F0E7FAF86006E0786800F008FA0F
:10141C00F86001E000BF00E000BFFB68002B10D1BA
:10142C000A4A7B68012102F83310084A7B68DB000A
:10143C001344FA785A70054A7B68DB001344BA7877
:10144C009A70FB6818461037BD4680BD900000208E
:10145C0080B594B000AF7860A04BD3F8D4309F4ADD
:10146C0043F48043C2F8D4309C4BD3F8D43003F40B
:10147C008043BB63BB6B994BDB6F984A43F480434F
:10148C00D367964BDB6F954A23F48043D367934B1A
:10149C00D3F8E030914A43F02003C2F8E0308F4B90
:1014AC00D3F8E03003F020037B637B6B8B4BD3F8DA
:1014BC00E0308A4A43F00203C2F8E030874BD3F89D
:1014CC00E03003F002033B633B6B844BD3F8E0301A
:1014DC00824A43F04003C2F8E030804BD3F8E0304E
:1014EC0003F04003FB62FB6A7C4BD3F8E0307B4A91
:1014FC0043F00803C2F8E030784BD3F8E03003F047
:10150C000803BB62BB6A754BD3F8E030734A43F0F7
:10151C000803C2F8E030714BD3F8E03003F0080355
:10152C007B627B6A6D4BD3F8E0306C4A43F010035E
:10153C00C2F8E030694BD3F8E03003F010033B62A3
:10154C003B6A664BD3F8E030644A43F00803C2F8B8
:10155C00E030624BD3F8E03003F00803FB61FB6929
:10156C005E4BD3F8E0305D4A43F00803C2F8E0303C
:10157C005A4BD3F8E03003F00803BB61BB69574BFF
:10158C00D3F8E030554A43F00803C2F8E030534B2F
:10159C00D3F8E03003F008037B617B694F4BD3F841
:1015AC00E0304E4A43F04003C2F8E0304B4BD3F8E6
:1015BC00E03003F040033B613B69484BD3F8E0302B
:1015CC00464A43F00803C2F8E030444BD3F8E0300D
:1015DC0003F00803FB60FB684023FB6302233B64BE
:1015EC0001237B640323BB640A23FB6407F13C03E4
:1015FC0019463B4800F0DAFD0423FB6300237B64AF
:10160C000A23FB6407F13C031946364800F0CEFD73
:10161C004FF48063FB6300237B640923FB6407F1B5
:10162C003C031946304800F0C1FD4FF40063FB63E6
:10163C000923FB6407F13C0319462C4800F0B6FD66
:10164C004FF48053FB630923FB6407F13C031946F9
:10165C00264800F0ABFD0423FB630923FB6407F170
:10166C003C031946224800F0A1FD4FF40053FB63E4
:10167C000923FB6407F13C0319461C4800F096FD56
:10168C001023FB630A23FB6407F13C03194617483C
:10169C0000F08CFD2023FB630A23FB6407F13C0361
:1016AC001946124800F082FD4FF40073FB630923C6
:1016BC00FB6407F13C031946094800F077FD8023D1
:1016CC00FB630A23FB6407F13C031946074800F04F
:1016DC006DFD00BF5037BD4680BD00BF00440258B1
:1016EC00001802580004025800140258000C02584A
:1016FC000010025880B584B000AF78600023FB6006
:10170C007B68002B03D06FF00103FB607FE07B68EC
:10171C005C2202FB03F3404A1344002200211846CA
:10172C00FFF77DFC0346002B03D06FF00403FB6036
:10173C006DE07B685C2202FB03F3374A1344002202
:10174C0000211846FFF7C3FC0346002B03D06FF0B3
:10175C000403FB605BE07B685C2202FB03F32E4A14
:10176C001344002201211846FFF759FC0346002BB5
:10177C0003D06FF00403FB6049E07B685C2202FB42
:10178C0003F3254A1344002201211846FFF79FFC5E
:10179C000346002B03D06FF00403FB6037E07B683B
:1017AC005C2202FB03F31C4A13440122012118465C
:1017BC00FFF735FC0346002B03D06FF00403FB60EE
:1017CC0025E07B685C2202FB03F3134A13440122DD
:1017DC0001211846FFF77BFC0346002B03D06FF06A
:1017EC000403FB6013E00D4A7B68012102F83310FF
:1017FC000A4A7B68DB00134400225A70074A7B6854
:10180C00DB00134400229A70642000F04FFBFB684D
:10181C0018461037BD4680BD3400002090000020D3
:10182C0080B586B002AF78600023FB607B68002B2C
:10183C0003D06FF00103FB60C3E07B685C2202FB0A
:10184C0003F3624A9818624A7B68DB0013445978A8
:10185C005F4A7B68DB0013449B781A46FFF7E5F977
:10186C000346002B03D06FF00403FB60A9E07B68F8
:10187C005C2202FB03F3554A9818554A7B68DB003F
:10188C0013445978524A7B68DB0013449A78072337
:10189C0000934FF44073FFF793FA0346002B03D0E9
:1018AC006FF00403FB608CE07B685C2202FB03F3AB
:1018BC00464A9818464A7B68DB0013445978444AD8
:1018CC007B68DB0013449B781A46FFF7AEF903469E
:1018DC00002B03D06FF00403FB6072E07B685C228A
:1018EC0002FB03F3394A9818394A7B68DB0013442E
:1018FC005978374A7B68DB0013449A7802230093AB
:10190C000023FFF75DFA0346002B03D06FF00403AE
:10191C00FB6056E0282000F0C9FA2C4A7B685C2159
:10192C0001FB03F313440C334FF080721A60274A07
:10193C007B685C2101FB03F313442C334FF0805282
:10194C001A607B685C2202FB03F3204A134418469E
:10195C0000F0D4FD0346002B03D06FF00303FB60B3
:10196C002FE07B685C2202FB03F3184A134401222C
:10197C0001211846FEF793FF0346002B03D06FF0AE
:10198C000403FB601DE07B685C2202FB03F30F4A3F
:10199C00981807F108030093002301220121FFF797
:1019AC00A4FA0346002B03D06FF00403FB6008E09D
:1019BC003B7A022B03D06FF00403FB6001E00023A1
:1019CC00FB60FB6818461037BD4680BD3400002014
:1019DC009000002080B586B002AF78600023FB60D9
:1019EC007B68002B03D06FF00103FB609FE07B68EA
:1019FC005C2202FB03F3504A9818504A7B68DB00C8
:101A0C00134459784D4A7B68DB0013449B781A4683
:101A1C00FFF70BF90346002B03D06FF00403FB60B8
:101A2C0085E07B685C2202FB03F3434A9818434A27
:101A3C007B68DB0013445978404A7B68DB00134415
:101A4C009A78072300934FF44073FFF7B9F90346D4
:101A5C00002B03D06FF00403FB6068E07B685C2212
:101A6C0002FB03F3344A9818344A7B68DB001344B6
:101A7C005978324A7B68DB0013449B781A46FFF78F
:101A8C00D4F80346002B03D06FF00403FB604EE048
:101A9C007B685C2202FB03F3274A9818274A7B6871
:101AAC00DB0013445978254A7B68DB0013449A7891
:101ABC00012300930023FFF783F90346002B03D087
:101ACC006FF00403FB6032E0282000F0EFF97B6834
:101ADC005C2202FB03F3184A13440022012118462E
:101AEC00FEF7DDFE0346002B03D06FF00403FB6012
:101AFC001DE07B685C2202FB03F30F4A981807F188
:101B0C0008030093002300220121FFF7EEF903469E
:101B1C00002B03D06FF00403FB6008E03B7A012B31
:101B2C0003D06FF00403FB6001E00023FB60FB6853
:101B3C0018461037BD4680BD3400002090000020B0
:101B4C0080B586B002AF78600023FB607B68002B09
:101B5C0003D06FF00103FB6094E07B685C2202FB16
:101B6C0003F34B4A98184B4A7B68DB0013445978B3
:101B7C00484A7B68DB0013449B781A46FFF755F8FC
:101B8C000346002B03D06FF00403FB607AE00023C4
:101B9C003B7200237B727B685C2202FB03F33C4AA2
:101BAC0098183C4A7B68DB0013445978394A7B68A7
:101BBC00DB0013449A783B7A00930023FFF700F97B
:101BCC000346002B03D06FF00403FB605AE028207F
:101BDC0000F06CF92F4A7B68DB0013449B78012BD7
:101BEC0020D12B4A7B685C2101FB03F313440C339B
:101BFC0000221A60264A7B685C2101FB03F3134424
:101C0C002C3300221A607B685C2202FB03F3204A0F
:101C1C001344184600F072FC0346002B02D06FF000
:101C2C000303FB607B685C2202FB03F3184A13443A
:101C3C00002200211846FEF732FE0346002B03D08B
:101C4C006FF00403FB601DE07B685C2202FB03F376
:101C5C000F4A981807F10803009300230022002173
:101C6C00FFF743F90346002B03D06FF00403FB602E
:101C7C0008E03B7A002B03D06FF00403FB6001E01B
:101C8C000023FB60FB6818461037BD4680BD00BFC3
:101C9C00340000209000002080B400AF264BD3F815
:101CAC008830254A43F47003C2F88830234B1B68F4
:101CBC00224A43F001031360204B00221A611F4B90
:101CCC001A681E491E4B13400B601C4B00229A6174
:101CDC001A4B0022DA61194B00221A62174B0022B0
:101CEC009A62164B0022DA62144B00221A63134BD1
:101CFC0000225A63114B00229A63104B0022DA63C4
:101D0C000E4B00221A640D4B00225A640B4B1B68BD
:101D1C000A4A23F480231360084B00221A66094BED
:101D2C0043F2D2021A60044B4FF000629A6000BF7B
:101D3C00BD465DF8047B704700ED00E0004402589E
:101D4C007FEDF6EA0040005280B400AF094BDB682F
:101D5C00084A23F00203D36000BF064B5B6803F410
:101D6C000053002BF9D000BF00BFBD465DF8047BCB
:101D7C00704700BF0048025880B582B000AF032006
:101D8C0000F06AF901F048FE0246154B9B691B0AEC
:101D9C0003F00F031349CB5C03F01F0322FA03F388
:101DAC007B600F4B9B6903F00F030E4AD35C03F06F
:101DBC001F037A6822FA03F30B4A13600B4A7B6801
:101DCC0013600F2000F01CF80346002B01D00123F8
:101DDC0002E000F00DF8002318460837BD4680BD20
:101DEC0000440258883D0008040000200000002038
:101DFC0080B400AF00BFBD465DF8047B70470000A7
:101E0C0080B582B000AF7860154B1B78002B01D1E8
:101E1C00012321E0134B1A68114B1B7819464FF420
:101E2C007A73B3FBF1F3B2FBF3F3184600F039F914
:101E3C000346002B01D001230EE07B680F2B0AD840
:101E4C00002279684FF0FF3000F011F9064A7B68E8
:101E5C001360002300E0012318460837BD4680BDFF
:101E6C000C000020000000200800002080B400AF0F
:101E7C00064B1B781A46064B1B681344044A136026
:101E8C0000BFBD465DF8047B704700BF0C0000200E
:101E9C009800002080B400AF034B1B681846BD4669
:101EAC005DF8047B704700BF9800002080B584B0BB
:101EBC0000AF7860FFF7EEFFB8607B68FB60FB68F3
:101ECC00B3F1FF3F05D00A4B1B781A46FB6813444D
:101EDC00FB6000BFFFF7DEFF0246BB68D31AFA684F
:101EEC009A42F7D800BF00BF1037BD4680BD00BF77
:101EFC000C00002080B485B000AF78607B6803F0E4
:101F0C000703FB600B4BDB68BB60BA684FF6FF0343
:101F1C001340BB60FB681A02BB681A43064B1343A1
:101F2C00BB60044ABB68D36000BF1437BD465DF884
:101F3C00047B704700ED00E00000FA0580B400AFB0
:101F4C00044BDB681B0A03F007031846BD465DF81B
:101F5C00047B704700ED00E080B483B000AF034613
:101F6C003960FB80B7F90630002B0ADB3B68DAB22C
:101F7C000C49B7F906301201D2B20B4483F8002396
:101F8C000AE03B68DAB20849FB8803F00F03043B14
:101F9C001201D2B20B441A7600BF0C37BD465DF865
:101FAC00047B704700E100E000ED00E080B489B0F4
:101FBC0000AFF860B9607A60FB6803F00703FB615F
:101FCC00FB69C3F10703042B28BF0423BB61FB6926
:101FDC000433062B02D9FB69033B00E000237B6131
:101FEC004FF0FF32BB6902FA03F3DA43BB681A40C5
:101FFC007B699A404FF0FF317B6901FA03F3D943B7
:10200C007B680B40134318462437BD465DF8047BB0
:10201C007047000080B582B000AF78607B68013BF0
:10202C00B3F1807F01D301230FE00A4A7B68013BA7
:10203C0053600F214FF0FF30FFF78EFF054B00224E
:10204C009A60044B07221A60002318460837BD46D5
:10205C0080BD00BF10E000E080B582B000AF7860BA
:10206C007868FFF747FF00BF0837BD4680BD80B5D5
:10207C0086B000AF0346B9607A60FB81FFF75EFF64
:10208C0078617A68B9687869FFF790FF0246B7F90A
:10209C000E3011461846FFF75FFF00BF1837BD46DC
:1020AC0080BD80B582B000AF78607868FFF7B2FF72
:1020BC00034618460837BD4680BD000080B400AF0B
:1020CC00BFF35F8F00BF074B5B6A064A23F4803374
:1020DC005362054B00225A6000BFBD465DF8047B7D
:1020EC00704700BF00ED00E090ED00E080B483B0DD
:1020FC0000AF78600B4A7B6843F0010353600A4BD6
:10210C005B6A094A43F480335362BFF34F8F00BFBD
:10211C00BFF36F8F00BF00BF0C37BD465DF8047B6B
:10212C00704700BF90ED00E000ED00E080B483B09C
:10213C0000AF78607B685A781B4B9A601A4B1B690E
:10214C00194A23F001031361174A7B685B68D3605B
:10215C007B681B7B1A077B68DB7A1B061A437B6840
:10216C009B7ADB041A437B685B7B9B041A437B687A
:10217C009B7B5B041A437B68DB7B1B041A437B68E9
:10218C005B7A1B021A437B681B7A5B0013437A68E9
:10219C0012781146044A0B43136100BF0C37BD463D
:1021AC005DF8047B704700BF90ED00E080B489B00F
:1021BC0000AF786039600023FB61864B7B618CE15A
:1021CC003B681A680121FB6901FA03F313403B6178
:1021DC003B69002B00F07E813B685B6803F00303D6
:1021EC00012B05D03B685B6803F00303022B30D155
:1021FC007B689B68BB61FB695B00032202FA03F3FB
:10220C00DB43BA691340BB613B68DA68FB695B006E
:10221C0002FA03F3BA691343BB617B68BA699A602B
:10222C007B685B68BB610122FB6902FA03F3DB4349
:10223C00BA691340BB613B685B681B0903F0010280
:10224C00FB6902FA03F3BA691343BB617B68BA6991
:10225C005A603B685B6803F00303032B17D07B6861
:10226C00DB68BB61FB695B00032202FA03F3DB430F
:10227C00BA691340BB613B689A68FB695B0002FA60
:10228C0003F3BA691343BB617B68BA69DA603B68D4
:10229C005B6803F00303022B23D1FB69DA087B682C
:1022AC00083253F82230BB61FB6903F007039B0033
:1022BC000F2202FA03F3DB43BA691340BB613B689C
:1022CC001A69FB6903F007039B0002FA03F3BA696E
:1022DC001343BB61FB69DA087B680832B96943F8C0
:1022EC0022107B681B68BB61FB695B00032202FA4E
:1022FC0003F3DB43BA691340BB613B685B6803F0D3
:10230C000302FB695B0002FA03F3BA691343BB6176
:10231C007B68BA691A603B685B6803F44033002B36
:10232C0000F0D8802C4BD3F8F4302B4A43F0020346
:10233C00C2F8F430284BD3F8F43003F00203FB60FE
:10234C00FB68264AFB699B08023352F82330BB61B9
:10235C00FB6903F003039B000F2202FA03F3DB4338
:10236C00BA691340BB617B681D4A93424AD07B68B3
:10237C001C4A93422BD07B681B4A934225D07B6826
:10238C001A4A93421FD07B68194A934219D07B6832
:10239C00184A934213D07B68174A93420DD07B683E
:1023AC00164A934207D07B68154A934201D1092300
:1023BC0029E00A2327E0072325E0062323E0052351
:1023CC0021E004231FE003231DE002231BE0012373
:1023DC0019E000BF80000058004402580004005867
:1023EC00000002580004025800080258000C025861
:1023FC00001002580014025800180258001C025811
:10240C00002402580023FA6902F003029200934060
:10241C00BA691343BB613849FB699B080233BA693B
:10242C0041F823204FF0B0431B68BB613B69DB4391
:10243C00BA691340BB613B685B6803F48013002BE3
:10244C0003D0BA693B691343BB614FF0B042BB691F
:10245C0013604FF0B0435B68BB613B69DB43BA6907
:10246C001340BB613B685B6803F40013002B03D083
:10247C00BA693B691343BB614FF0B042BB6953600F
:10248C007B695B68BB613B69DB43BA691340BB6129
:10249C003B685B6803F40033002B03D0BA693B69DB
:1024AC001343BB617B69BA695A607B691B68BB616A
:1024BC003B69DB43BA691340BB613B685B6803F45F
:1024CC008033002B03D0BA693B691343BB617B6932
:1024DC00BA691A60FB690133FB613B681A68FB69D6
:1024EC0022FA03F3002B7FF46BAE00BF00BF24373E
:1024FC00BD465DF8047B70470004005880B586B07B
:10250C0002AF78600023FB73FFF7C4FCB8607B68F4
:10251C00002B02D10123FB73A5E07B6800225A65D6
:10252C007B681B6D002B40F09E80786800F0A2F851
:10253C0041F28831786800F01FFB7B681B689A6851
:10254C004B4B13407A68D1687A681269013A1204CD
:10255C0011437A685269013A120211437A68526B3C
:10256C0011437A68D26911437A6812680B439360FD
:10257C007B681B68DB6823F4E0217B681A6A7B6844
:10258C001B680A43DA607B681B6B19047B689A6BC7
:10259C007B681B680A431A617B681B687A68D26B7C
:1025AC005A617B681B681B6823F4F8517B685B6875
:1025BC00013B1A027B681B680A431A607B689B6D9F
:1025CC000093BB6800222021786800F0E4FA0346EF
:1025DC00FB73FB7B002B46D17B681B68DB6823F00D
:1025EC00FF017B685B6A5A1E7B681B680A43DA60D2
:1025FC007B681B681B6823F040017B689A687B68CA
:10260C001B680A431A607B681B68D3F8083123F0F7
:10261C00A0417B689A6A7B68DB6A1A437B681B68FB
:10262C000A43C3F808217B681B681A687B681B681F
:10263C0042F001021A607B689B69022B07D17B6810
:10264C001B689A687B681B6842F002029A607B6880
:10265C00DB68B3F1806F03D17B6801221A6502E05D
:10266C007B6802221A65FB7B18461037BD4680BD7D
:10267C00F4F8E0F880B483B000AF786000BF0C379A
:10268C00BD465DF8047B704780B58AB002AFF86038
:10269C00B9607A60FFF7FEFBB861BB689B6B002BDF
:1026AC00FB681B6D7B617B69022B04D1FB68DB68CB
:1026BC00B3F1806F15D17B69142B07D1BB681B68F4
:1026CC00022B0ED0BB681B68032B0AD07B69242B12
:1026DC005BD1BB681B68012B03D0BB681B68032B49
:1026EC0053D17B680093BB6900222021F86800F06D
:1026FC0052FA0346FB77FB7F002B4CD1FB68002280
:10270C005A65B968F86800F07DFA0346FB77FB7FE1
:10271C00002B40D1BB689B6B002B0ED17B680093C8
:10272C00BB6901220221F86800F035FA0346FB77F9
:10273C00FB681B6802225A622DE0BB681B68002BE9
:10274C0003D1FB6804221A6525E0BB681B68012BCA
:10275C000BD1FB681B6D242B03D1FB6804221A657B
:10276C0019E0FB6814221A6515E0BB681B68022B84
:10277C0011D1FB681B6D142B03D1FB6804221A6565
:10278C0009E0FB6824221A6505E00123FB77FB684E
:10279C0010225A6500E000BFFB7F18462037BD466B
:1027AC0080BD80B58AB002AFF860B9607A60FFF77F
:1027BC0071FBB861FB681B6850337B61BB68002BF5
:1027CC0005D10123FB77FB6808225A6557E0FB68AB
:1027DC001B6D042B4ED1FB681B681B6C5A1CFB68D1
:1027EC009A64FB689A6CFB685A64FB68BA681A6452
:1027FC00FB681B681A68FB681B6822F040521A6061
:10280C007B680093BB6901220421F86800F0C3F9CE
:10281C000346FB77FB7F002B13D1FB681B6C1A78EC
:10282C007B691A70FB681B6C5A1CFB681A64FB688A
:10283C009B6C5A1EFB689A64FB689B6C002BDFD167
:10284C0000E000BFFB7F002B19D17B680093BB69B4
:10285C0001220221F86800F09EF90346FB77FB7F0A
:10286C00002B0CD1FB681B6802225A62FB68022207
:10287C001A6504E00123FB77FB6810225A65FB7F85
:10288C0018462037BD4680BD80B58CB002AFF860CD
:10289C00B9607A60FFF7FEFA3862FB681B68503348
:1028AC00FB61FB681B689B6CBB61FB681B68D3F806
:1028BC0010317B61BB68002B06D1012387F82730D0
:1028CC00FB6808225A657CE0FB681B6D042B72D1F7
:1028DC00FB681B681B6C5A1CFB689A64FB689A6C3F
:1028EC00FB685A64FB68BA681A64FB681B681B684F
:1028FC0023F04052FB681B6842F080521A60FB6860
:10290C00DB68B3F1806F04D1FB681B68BA699A6409
:10291C0011E0FB681B68D3F8003103F4E063002B73
:10292C0004D0FB681B68BA699A6404E0FB681B68F6
:10293C007A69C3F810217B6800933B6A0122062157
:10294C00F86800F028F9034687F8273097F8273005
:10295C00002B14D1FB681B6CFA691278D2B21A7076
:10296C00FB681B6C5A1CFB681A64FB689B6C5A1E38
:10297C00FB689A64FB689B6C002BDCD100E000BF09
:10298C0097F82730002B1CD17B6800933B6A0122FF
:10299C000221F86800F0FFF8034687F8273097F813
:1029AC002730002B0DD1FB681B6802225A62FB6892
:1029BC0002221A6505E0012387F82730FB681022F4
:1029CC005A6597F8273018462837BD4680BD80B524
:1029DC008AB002AFF860B9607A60FFF75BFAB86151
:1029EC00FB681B689B6C7B61FB681B68D3F8103120
:1029FC003B61FB681B6D042B64D1BB68DB68B3F5D2
:102A0C00800F5FD17B680093BB6900222021F8689E
:102A1C0000F0C1F80346FB77FB7F002B58D1FB6815
:102A2C001B68BA681268C3F88820FB681B68BA6810
:102A3C005268C3F88020FB681B68BA681269C3F837
:102A4C009020FB681B681B6823F04352BB68996895
:102A5C00BB68DB680B431A43FB681B6842F00052EF
:102A6C001A60FB68DB68B3F1806F04D1FB681B68EC
:102A7C007A699A6411E0FB681B68D3F8003103F49F
:102A8C00E063002B04D0FB681B687A699A6404E04D
:102A9C00FB681B683A69C3F810217B680093BB691B
:102AAC0001220821F86800F076F80346FB77FB7FDB
:102ABC00002B0DD1FB681B6808225A62FB680222AE
:102ACC001A6505E00123FB77FB6810225A6500E0CC
:102ADC0000BFFB7F18462037BD4680BD80B586B051
:102AEC0002AF78603960FFF7D5F9B8607B681B6D71
:102AFC00042B34D17B689B6D0093BB680022202192
:102B0C00786800F048F80346FB73FB7B002B2BD155
:102B1C007B6888221A653B681B68082B11D17B687F
:102B2C001B683A685268C3F830217B681B68102216
:102B3C005A627B681B681A687B681B6842F48012B7
:102B4C001A607B681B681A680A4B13403A68126853
:102B5C001A437B681B6842F040521A6004E0012360
:102B6C00FB737B6810225A65FB7B18461037BD46F9
:102B7C0080BD00BFF7FFFFCF80B483B000AF78609B
:102B8C0039607B683A689A65002318460C37BD4655
:102B9C005DF8047B704780B584B000AFF860B96015
:102BAC003B601346FB711AE0BB69B3F1FF3F16D0D3
:102BBC00FFF770F902463B68D31ABA699A4202D3FE
:102BCC00BB69002B0BD1FB684FF400721A65FB68D4
:102BDC005B6D43F00102FB685A6501230EE0FB6854
:102BEC001B681A6ABB681340002B14BF0123002317
:102BFC00DBB21A46FB799A42D6D10023184610371D
:102C0C00BD4680BD80B489B000AF786039600023C8
:102C1C00FB777B681B681A687B681B6822F0405244
:102C2C001A607B689B68002B0AD17B681B681B6849
:102C3C0023F080013B685A687B681B680A431A6062
:102C4C003B681B68022B14D17B681B6803F5C073AF
:102C5C00BB617B681B6803F5C4737B617B681B6875
:102C6C0003F5C8733B617B681B6803F5D073FB608D
:102C7C002CE03B681B68032B14D17B681B6803F5A5
:102C8C00A073BB617B681B6803F5A4737B617B68D5
:102C9C001B6803F5A8733B617B681B6803F5B07375
:102CAC00FB6013E07B681B6803F58073BB617B687A
:102CBC001B6803F584737B617B681B6803F5887361
:102CCC003B617B681B6803F59073FB603B689A6CF7
:102CDC003B68DB6C1A43BB691A603B68DB6A002BF0
:102CEC0012D03B689A6AFB681A60BB691B6823F4B4
:102CFC007C123B68D96A3B685B6B19433B681B6B66
:102D0C000B431A43BB691A607B691B6823F01F02D3
:102D1C003B685B6C1A437B691A603B689B6B002BAE
:102D2C0009D03B681B68002B05D13B68DA6B7B68CC
:102D3C001B68013A1A643B68DB68002B00F0958035
:102D4C003B68DB69002B53D03B689B6B002B1ED080
:102D5C00BB691A68644B13403A68D1683A68526987
:102D6C0011433A68126911433A68D26911433A68BF
:102D7C00526A11433A68126A11433A68926B1143D2
:102D8C003A68126C0A431A43BB691A6026E0BB69A5
:102D9C001A68564B13403A68D1683A685269114325
:102DAC003A68126911433A68D26911433A68526A17
:102DBC0011433A68126A0A431A43BB691A607B686A
:102DCC00DB6AB3F1805F09D13B685B69082B05D1E5
:102DDC00BB691B6843F00062BB691A603B689A6868
:102DEC003B691A607B681B683A6892699A6474E064
:102DFC003B689B6B002B15D0BB691A683C4B13408E
:102E0C003A68D1683A68526911433A6812691143B9
:102E1C003A68926B11433A68126C0A431A43BB69C5
:102E2C001A601DE0BB691B6823F03F023B68D96840
:102E3C003B685B6919433B681B690B431A43BB69CD
:102E4C001A607B68DB6AB3F1805F09D13B685B6910
:102E5C00082B05D1BB691B6843F00062BB691A6083
:102E6C003B689A683B691A6037E03B68DB69002B6A
:102E7C002ED03B689B6B002B15D0BB691A681D4B81
:102E8C0013403A68D1693A68526A11433A68126A37
:102E9C0011433A68926B11433A68126C0A431A4315
:102EAC00BB691A600EE0BB691B6823F47C523B685B
:102EBC00D9693B685B6A19433B681B6A0B431A432D
:102ECC00BB691A607B681B683A6892699A6404E073
:102EDC000123FB777B6808225A65FB7F1846243751
:102EEC00BD465DF8047B7047C0C0FFF0C0C0FFFF5B
:102EFC00C0FFFFF0FFC0FFF080B58CB000AF786072
:102F0C007B68002B01D10123C8E37B681B6803F0AD
:102F1C000103002B00F08780884B1B6903F03803FA
:102F2C00FB62864B9B6ABB62FB6A102B07D0FB6A69
:102F3C00182B10D1BB6A03F00303022B0BD17F4B70
:102F4C001B6803F40033002B6CD07B685B68002B90
:102F5C0068D10123A2E37B685B68B3F5803F06D19F
:102F6C00764B1B68754A43F4803313602EE07B6804
:102F7C005B68002B0CD1714B1B68704A23F48033B7
:102F8C0013606E4B1B686D4A23F4802313601DE0A5
:102F9C007B685B68B3F5A02F0CD1684B1B68674A44
:102FAC0043F480231360654B1B68644A43F48033FD
:102FBC0013600BE0614B1B68604A23F48033136091
:102FCC005E4B1B685D4A23F4802313607B685B684F
:102FDC00002B13D0FEF75EFF786208E0FEF75AFF75
:102FEC0002467B6AD31A642B01D9032356E3534B55
:102FFC001B6803F40033002BF0D014E0FEF74AFFFB
:10300C00786208E0FEF746FF02467B6AD31A642B0F
:10301C0001D9032342E3494B1B6803F40033002B13
:10302C00F0D100E000BF7B681B6803F00203002BAB
:10303C0000F08C80414B1B6903F038033B623F4B23
:10304C009B6AFB613B6A002B07D03B6A182B37D17C
:10305C00FB6903F00303002B32D1384B1B6803F0E0
:10306C000403002B05D07B68DB68002B01D1012306
:10307C0014E3324B1B6823F019027B68DB682F4981
:10308C0013430B60FEF706FF786208E0FEF702FFC1
:10309C0002467B6AD31A022B01D90323FEE2274B8B
:1030AC001B6803F00403002BF0D0244B5B6823F067
:1030BC00FE427B681B691B06204913434B6045E0AD
:1030CC007B68DB68002B26D01C4B1B6823F0190295
:1030DC007B68DB68194913430B60FEF7DBFE7862F3
:1030EC0008E0FEF7D7FE02467B6AD31A022B01D901
:1030FC000323D3E2114B1B6803F00403002BF0D025
:10310C000E4B5B6823F0FE427B681B691B060B4968
:10311C0013434B601AE0094B1B68084A23F0010368
:10312C001360FEF7B7FE78620AE0FEF7B3FE0246C4
:10313C007B6AD31A022B03D90323AFE20044025853
:10314C00964B1B6803F00403002BEED17B681B68C5
:10315C0003F01003002B6AD0904B1B6903F038036B
:10316C00BB618E4B9B6A7B61BB69082B07D0BB692B
:10317C00182B1BD17B6903F00303012B16D1874B52
:10318C001B6803F48073002B05D07B68DB69802BF4
:10319C0001D0012382E2814BDB6823F07C527B68F7
:1031AC001B6A1B067D491343CB6040E07B68DB69DF
:1031BC00002B23D0794B1B68784A43F080031360B3
:1031CC00FEF768FE786208E0FEF764FE02467B6A52
:1031DC00D31A022B01D9032360E2704B1B6803F452
:1031EC008073002BF0D06D4BDB6823F07C527B6836
:1031FC001B6A1B0669491343CB6018E0674B1B68BD
:10320C00664A23F080031360FEF744FE786208E000
:10321C00FEF740FE02467B6AD31A022B01D9032328
:10322C003CE25E4B1B6803F48073002BF0D17B688F
:10323C001B6803F00803002B36D07B685B69002BFE
:10324C0019D0564B5B6F554A43F001035367FEF799
:10325C0021FE786208E0FEF71DFE02467B6AD31A57
:10326C00022B01D9032319E24C4B5B6F03F00203D1
:10327C00002BF0D018E0494B5B6F484A23F0010358
:10328C005367FEF707FE786208E0FEF703FE02467E
:10329C007B6AD31A022B01D90323FFE13F4B5B6FEF
:1032AC0003F00203002BF0D17B681B6803F02003B2
:1032BC00002B36D07B689B69002B19D0374B1B68D1
:1032CC00364A43F480531360FEF7E4FD786208E05D
:1032DC00FEF7E0FD02467B6AD31A022B01D90323C9
:1032EC00DCE12E4B1B6803F40053002BF0D018E0EC
:1032FC002A4B1B68294A23F480531360FEF7CAFD3E
:10330C00786208E0FEF7C6FD02467B6AD31A022BF0
:10331C0001D90323C2E1214B1B6803F40053002B9A
:10332C00F0D17B681B6803F00403002B00F086804F
:10333C001B4B1B681A4A43F480731360FEF7AAFDFB
:10334C00786208E0FEF7A6FD02467B6AD31A642B6E
:10335C0001D90323A2E1124B1B6803F48073002BE9
:10336C00F0D07B689B68012B06D10C4B1B6F0B4A72
:10337C0043F00103136732E07B689B68002B11D18B
:10338C00064B1B6F054A23F001031367034B1B6F9E
:10339C00024A23F00403136721E000BF00440258E3
:1033AC00004802587B689B68052B0CD1834B1B6F24
:1033BC00824A43F004031367804B1B6F7F4A43F030
:1033CC00010313670BE07D4B1B6F7C4A23F0010359
:1033DC0013677A4B1B6F794A23F0040313677B68DE
:1033EC009B68002B15D0FEF755FD78620AE0FEF7BE
:1033FC0051FD02467B6AD31A41F28832934201D9BD
:10340C0003234BE16D4B1B6F03F00203002BEED03B
:10341C0014E0FEF73FFD78620AE0FEF73BFD024642
:10342C007B6AD31A41F28832934201D9032335E1E6
:10343C00624B1B6F03F00203002BEED17B685B6ABF
:10344C00002B00F02A815D4B1B6903F03803182B0D
:10345C0000F0BA807B685B6A022B40F09580574B7A
:10346C001B68564A23F080731360FEF713FD7862D5
:10347C0008E0FEF70FFD02467B6AD31A022B01D936
:10348C0003230BE14D4B1B6803F00073002BF0D1B1
:10349C004A4B9A6A4A4B13407A68916A7A68D26AA4
:1034AC0012010A43454913438B627B681B6B013B3A
:1034BC00C3F308027B685B6B013B5B029BB21A4354
:1034CC007B689B6B013B1B0403F4FE031A437B6874
:1034DC00DB6B013B1B0603F0FE43384913430B63C4
:1034EC00364BDB6A354A23F00103D362334B5A6BFC
:1034FC00344B13407A68926CD200304913434B63BF
:10350C002E4BDB6A23F00C027B681B6C2B4913439C
:10351C00CB622A4BDB6A23F002027B685B6C274987
:10352C001343CB62254BDB6A244A43F48033D362CA
:10353C00224BDB6A214A43F40033D3621F4BDB6A14
:10354C001E4A43F48023D3621C4BDB6A1B4A43F0B4
:10355C000103D362194B1B68184A43F08073136044
:10356C00FEF798FC786208E0FEF794FC02467B6A52
:10357C00D31A022B01D9032390E0104B1B6803F0E4
:10358C000073002BF0D088E00C4B1B680B4A23F027
:10359C0080731360FEF77EFC786208E0FEF77AFC1D
:1035AC0002467B6AD31A022B01D9032376E0034B24
:1035BC001B6803F00073002BF0D16EE0004402583E
:1035CC000CFCFFFF0700FFFF364B9B6A3B61354B42
:1035DC001B6BFB607B685B6A012B31D03B6903F092
:1035EC0003027B689B6A9A422AD13B691B0903F050
:1035FC003F027B68DB6A9A4222D1FB68C3F3080264
:10360C007B681B6B013B9A421AD1FB685B0A03F087
:10361C007F027B685B6B013B9A4211D1FB681B0CF0
:10362C0003F07F027B689B6B013B9A4208D1FB68DD
:10363C001B0E03F07F027B68DB6B013B9A4201D0CF
:10364C0001232BE0174B5B6BDB08C3F30C033B61D3
:10365C007B689B6C3A699A421FD0124BDB6A114A09
:10366C0023F00103D362FEF715FC786200BFFEF76E
:10367C0011FC02467B6A9342F9D00A4B5A6B0A4BF7
:10368C0013407A68926CD200064913434B63054B86
:10369C00DB6A044A43F00103D36200231846303737
:1036AC00BD4680BD004402580700FFFF80B586B0C0
:1036BC0000AF786039607B68002B01D101239CE15D
:1036CC008A4B1B6803F00F033A689A4210D9874B58
:1036DC001B6823F00F0285493B6813430B60834B37
:1036EC001B6803F00F033A689A4201D0012384E16E
:1036FC007B681B6803F00403002B10D07B681A69ED
:10370C007B4B9B6903F070039A4208D9784B9B69F9
:10371C0023F070027B681B69754913438B617B68CE
:10372C001B6803F00803002B10D07B685A69704BA0
:10373C00DB6903F070039A4208D96D4BDB6923F007
:10374C0070027B685B696A491343CB617B681B68B9
:10375C0003F01003002B10D07B689A69644BDB6973
:10376C0003F4E0639A4208D9614BDB6923F4E0620D
:10377C007B689B695E491343CB617B681B6803F0D4
:10378C002003002B10D07B68DA69594B1B6A03F0BD
:10379C0070039A4208D9564B1B6A23F070027B685F
:1037AC00DB69534913430B627B681B6803F002030C
:1037BC00002B10D07B68DA684D4B9B6903F00F032C
:1037CC009A4208D94A4B9B6923F00F027B68DB684D
:1037DC00474913438B617B681B6803F00103002B83
:1037EC0055D0434B9B6923F470627B689B684049BE
:1037FC0013438B617B685B68022B07D13C4B1B68C6
:10380C0003F40033002B21D10123F6E07B685B68C5
:10381C00032B07D1364B1B6803F00073002B15D11B
:10382C000123EAE07B685B68012B07D1304B1B68F6
:10383C0003F48073002B09D10123DEE02C4B1B68B1
:10384C0003F00403002B01D10123D6E0284B1B69A4
:10385C0023F007027B685B68254913430B61FEF775
:10386C0019FB78610AE0FEF715FB02467B69D31A57
:10387C0041F28832934201D90323BEE01C4B1B69F1
:10388C0003F038027B685B68DB009A42EBD17B6803
:10389C001B6803F00203002B10D07B68DA68144B12
:1038AC009B6903F00F039A4208D2114B9B6923F0DA
:1038BC000F027B68DB680E4913438B610B4B1B6853
:1038CC0003F00F033A689A4214D2084B1B6823F09A
:1038DC000F0206493B6813430B60044B1B6803F053
:1038EC000F033A689A4205D0012386E0002000526B
:1038FC00004402587B681B6803F00403002B10D0B3
:10390C007B681A693F4B9B6903F070039A4208D29B
:10391C003C4B9B6923F070027B681B69394913434C
:10392C008B617B681B6803F00803002B10D07B684D
:10393C005A69344BDB6903F070039A4208D2314B5D
:10394C00DB6923F070027B685B692E491343CB6102
:10395C007B681B6803F01003002B10D07B689A69FE
:10396C00284BDB6903F4E0639A4208D2254BDB69F0
:10397C0023F4E0627B689B6922491343CB617B682B
:10398C001B6803F02003002B10D07B68DA691D4BF9
:10399C001B6A03F070039A4208D21A4B1B6A23F07D
:1039AC0070027B68DB69174913430B6200F034F833
:1039BC000246144B9B691B0A03F00F031249CB5CA4
:1039CC0003F01F0322FA03F33B610E4B9B6903F0D8
:1039DC000F030D4AD35C03F01F033A6922FA03F379
:1039EC000A4A13600A4A3B6913600A4B1B68184663
:1039FC00FEF706FA0346FB73FB7B18461837BD46E9
:103A0C0080BD00BF00440258883D0008040000201F
:103A1C00000000200800002080B489B000AFB34B38
:103A2C001B6903F03803182B00F2558101A252F8E0
:103A3C0023F000BFA53A0008E33C0008E33C000873
:103A4C00E33C0008E33C0008E33C0008E33C0008CE
:103A5C00E33C0008CB3A0008E33C0008E33C0008D8
:103A6C00E33C0008E33C0008E33C0008E33C0008AE
:103A7C00E33C0008D13A0008E33C0008E33C0008B2
:103A8C00E33C0008E33C0008E33C0008E33C00088E
:103A9C00E33C0008D73A0008944B1B6803F0200362
:103AAC00002B09D0914B1B68DB0803F00303904AF1
:103ABC0022FA03F3BB6111E18D4BBB610EE18D4B1F
:103ACC00BB610BE18C4BBB6108E1884B9B6A03F03B
:103ADC0003037B61854B9B6A1B0903F03F033B612E
:103AEC00824BDB6A03F00103FB60804B5B6BDB08F2
:103AFC00C3F30C03FA6802FB03F307EE903AF8EEFB
:103B0C00677AC7ED027A3B69002B00F0E1807B6994
:103B1C00022B00F083807B69022B00F2A1807B6971
:103B2C00002B03D07B69012B56D099E06F4B1B689F
:103B3C0003F02003002B2DD06C4B1B68DB0803F02B
:103B4C0003036B4A22FA03F37B607B6807EE903A1F
:103B5C00F8EE676A3B6907EE903AF8EE677A86EE04
:103B6C00A77A624B1B6BC3F3080307EE903AF8EE8F
:103B7C00676A97ED026ADFED615AC6EE257A76EE3A
:103B8C00A77AF7EE006A77EEA67A67EE277AC7ED8A
:103B9C00077A87E03B6907EE903AF8EE677ADFED3B
:103BAC00586A86EEA77A514B1B6BC3F3080307EEDA
:103BBC00903AF8EE676A97ED026ADFED505AC6EE5E
:103BCC00257A76EEA77AF7EE006A77EEA67A67EE9C
:103BDC00277AC7ED077A65E03B6907EE903AF8EE75
:103BEC00677ADFED486A86EEA77A404B1B6BC3F30E
:103BFC00080307EE903AF8EE676A97ED026ADFED7C
:103C0C003F5AC6EE257A76EEA77AF7EE006A77EE83
:103C1C00A67A67EE277AC7ED077A43E03B6907EE91
:103C2C00903AF8EE677ADFED386A86EEA77A2F4B7A
:103C3C001B6BC3F3080307EE903AF8EE676A97ED37
:103C4C00026ADFED2E5AC6EE257A76EEA77AF7EEEB
:103C5C00006A77EEA67A67EE277AC7ED077A21E03D
:103C6C003B6907EE903AF8EE677ADFED266A86EE4E
:103C7C00A77A1E4B1B6BC3F3080307EE903AF8EEC2
:103C8C00676A97ED026ADFED1D5AC6EE257A76EE6D
:103C9C00A77AF7EE006A77EEA67A67EE277AC7ED79
:103CAC00077A00BF114B1B6B5B0A03F07F030133D8
:103CBC003B603B6807EE903AB8EE677AD7ED076A3F
:103CCC00C6EE877AFCEEE77A17EE903ABB6105E018
:103CDC000023BB6102E0074BBB6100BFBB69184608
:103CEC002437BD465DF8047B704700BF0044025882
:103CFC000090D00300093D0040787D010000004693
:103D0C000024744C0024744A20BCBE4B024403466D
:103D1C00934200D1704703F8011BF9E770B50D4DC4
:103D2C000D4C641BA4100026A64209D10B4D0C4C63
:103D3C0000F018F8641BA4100026A64205D170BD33
:103D4C0055F8043B98470136EEE755F8043B984785
:103D5C000136F2E7983D0008983D0008983D0008B0
:103D6C009C3D0008F8B500BFF8BC08BC9E467047E7
:0C3D7C00F8B500BFF8BC08BC9E467047BC
:103D88000000000000000000010203040607080903
:043D9800F10200082C
:043D9C00CD0200084C
:103DA0000090D0030090D00310000000010000003C
:040000050800030DDF
:00000001FF
