:020000040800F2
:2000000000800020315F0108895901088B5901088D5901088F5901089159010800000000FC
:20002000000000000000000000000000758A00089359010800000000198A00089559010822
:200040005D6001086160010865600108696001086D60010871600108756001087960010800
:200060007D6001088160010885600108896001088D600108916001089560010899600108E0
:200080009D600108A1600108A5600108A9600108AD600108B1600108B5600108B9600108C0
:2000A000BD600108C1600108C5600108C9600108CD600108D1600108D5600108D9600108A0
:2000C000DD600108E1600108E5600108E9600108ED600108F1600108F5600108F960010880
:2000E00099590108FD600108000000000161010805610108096101080D6101081161010860
:2001000015610108196101081D6101082161010825610108296101086DAD00082D610108F0
:200120003161010835610108396101083D6101084161010845610108496101084D61010877
:20014000000000000000000000000000000000005161010855610108596101085D6101089B
:200160006161010865610108696101086D6101087161010875610108796101087D610108B7
:200180008161010885610108896101088D6101089161010895610108996101089D61010897
:2001A000AB590108A1610108A5590108000000009F590108A5610108A9610108AD610108E6
:2001C000B1610108B561010800000000000000000000000000000000B961010800000000C2
:2001E000000000000000000000000000000000000000000000000000BD610108C1610108AD
:20020000C5610108C961010800000000CD610108D1610108D5610108D9610108DD61010841
:20022000E161010800000000E561010800000000E9610108ED61010800000000F16101081F
:20024000F5610108F9610108FD6101080162010805620108096201080D6201081162010831
:2002600015620108196201081D6201082162010825620108296201082D62010800000000AA
:200280003162010835620108396201083D62010800000000416201084562010849620108C6
:2002A0004D6201085162010855620108596201085D6201086162010865620108696201080E
:2002C0006D62010871620108756201082DE9F84384B005460D9C0F469146984620003BD0DC
:2002E000384602F01BFA0646384602F0EFF9ADF80C003846ADF80E600C9EADF80890ADF807
:200300000A8002F01FFB0228384607D102F0ACFA2346324602A900F0D5F91DE002F012FBE9
:200320000B2838460CD102F0BEFA0546384602F09BFA0094334602AA294600F010F80BE02A
:2003400002F092FA0021009401912C6801462846334602AA2569A84705B0BDE8F08338B533
:200360000D78049C15B1012D04D031BD009400F005F831BD009400F0DFF831BD2DE9F04F95
:200380008DB08246884693461C46DDF858900BA85946082202F018FB09A82146082202F0DD
:2003A00013FB0BA802F0AEFB594609A802F0D9FBBDF92630BDF93010BDF92400BDF82C20EE
:2003C000BDF928B0BDF92A5011FB03F109180AEB0104BDF824A0BDF82E109244ADF824A099
:2003E000DFF81CA6DAF80000CB18ADF826300168D1F890209047012831D0DAF80000016896
:200400000A6A9047DFF8FCC5BDF92610BCF800E0BDF92430012D01FB0EFE0EEB030101EB50
:2004200041010844C0F285802346AC460446BBF1010F6DDB584608F104011A7801EB820230
:20044000D178002960D0FF2908BFB9F1FF0F28D111782170557865709278A27054E00890B6
:20046000DFF8A0351A88BDF830000B214FF0010C0791ADB206921FFA8BFBCDF814C0424682
:20048000CDF8109003900295BDF82610BDF82430DAF8000000912146CDF804B002F0C7FCE1
:2004A0000DE119FB01F1277816780D042D0E15FA81F1491C0904090EC1F1FF05EDB215FB60
:2004C00007F711FB067637043F0E17FA86F6761C361226706778567815FB07F711FB0676CE
:2004E00037043F0E17FA86F6761C36126670A678927815FB06F511FB02510D042D0E15FA4A
:2005000081F1491C0912A170E41C5B1C401E92D1DFF8F004BDF930200188A1EB0B0101EBC2
:200520004101A2EB0B0213446418BCF1010C7FF47EAFDAF80000BFE02DE9F04F8DB0064663
:20054000894693469846DDF858A00BA85946082202F03AFA09A84146082202F035FA0BA870
:2005600002F0D0FA594609A802F0FBFABDF92630BDF93010BDF92400BDF82C20BDF928804D
:20058000BDF92A50DFF87CB411FB03F109187418BDF82460BDF82E109619ADF82460DFF89C
:2005A00060643068CB18ADF826300168D1F89020904701284AD0306801680A6A9047BBF806
:2005C00000C0BDF92610BDF92430012D01FB0CFC0CEB030101EB410101446CDB2B46CAF152
:2005E000FF0E2246B8F1010F57DB4046157809F1040405EB45056419BAF1FF0F257843D066
:200600000F781EFB07F71AFB05752F043F0E17FA85F56D1C2D120D704F7865781EFB07F7A2
:200620001AFB05752F043F0E17FA85F56D1C2D124D708D78A4781EFB05F51AFB04542704CF
:200640003F0E17FA84F4641C241221E00890BDF83000BBF800200B21002307910692ADB2DF
:2006600005931FFA88F8CDF810A04A4603900295BDF82610BDF82430306800912146CDF8D1
:20068000048002F0D4FB1AE00D7065784D70A4788C70C91C521C401EA8D1BBF80000BDF959
:2006A0003040A0EB080000EB4000A4EB080412195B1E014496D1306801684A6A90470DB0D8
:2006C000BDE8F08F2DE9F84F88B0054617468946984606A8082202F077F904A8394608227D
:2006E00002F072F906A802F00DFA494604A802F038FABDF91230BDF91C10BDF91000BDF842
:200700001820BDF91470BDF9166011FB03F1091805EB810ABDF81050BDF81A105519ADF898
:200720001050DFF8DC522868CB18ADF8123001688A6B9047B8F1FF0F2CD180062CD42868FB
:20074000DFF8C09201680A6A9047B9F800C0BDF91210BDF9103001FB0CFC0CEB03015346E5
:2007600001EB41014418002E7ADD3246002F6ADD3846D978002962D0FF2908BFB8F1FF0FAC
:200780001ED11978217093F801E084F801E09E78A67054E04006D2D5BDF81C102868CDF8FC
:2007A0000C80B6B20291BFB20196BDF8123000970568BDF810205146D5F84890C84753E04C
:2007C00018FB01F194F800A01E784FEA014E4FEA1E6E1EFA81F1491C0904090EC1F1FF0E33
:2007E0005FFA8EFE1EFB0AFA11FB06A64FEA064B4FEA1B6B1BFA86F6761C3612267094F869
:2008000001A05E781EFB0AFA11FB06A64FEA064B4FEA1B6B1BFA86F6761C36126670A678E4
:2008200093F802A01EFB06FE11FB0AE14FEA014E4FEA1E6E1EFA81F1491C0912A170E41C0F
:200840001B1D401E95D1B9F80000BDF91C10C01B00EB40002418C91B521E03EB810385D1AB
:20086000286801684A6A904709B0BDE8F08F2DE9F84789B00C46129E15469846002E00F030
:20088000858005A82946082202F09EF807A84146082202F099F805A802F034F9294607A8B8
:2008A00002F05FF9BDF91E30BDF91810BDF91C00DFF84C51BDF81420BDF9227011FB03F195
:2008C0000918286801EB410104EB0108BDF81610BDF81C40CB18ADF81E301419ADF81C4051
:2008E0000168BDF920408A6B9047FF2E139901D0420750D40A004AD0C0064CD42868016893
:200900000A6A9047DFF858C5BDF91E10BCF800E0BDF91C30FF2E01FB0EFE0EEB030101EB00
:20092000410100EB010E4AD0002FC6F1FF0929DD394604EB440743462246002F14DD384625
:200940009EF8008013F8014B19FB08F816FB04844FEA044A4FEA1A6A1AFA84F4641C2412F7
:20096000401E0EF8014BEBD1BCF80000BDF91840801A00EB4000A41A491E04EB440486445E
:200980002344DAD1286801684A6A904734E0FF2EB4D1C007B2D5286804910396BFB2A4B228
:2009A000BDF818100197BDF81E300094BDF81C20029105684146D5F84480C0471CE0002FF0
:2009C000E0DD394604EB4402002A06DD104618F8013B401E0EF8013BF9D1BCF80000BDF923
:2009E0001830001B00EB40001B1B491E03EB430386449844E8D1C5E70AB0BDE8F0870000B7
:200A000044AD00243EAD00242DE9FE4F8AB08B461A991B9BB1F900208C88A41824B20294D5
:200A20004D88C9884D192DB20195597B080798794CBF4FF4807400240443C906D9794CBFE8
:200A40004FF4807000200843002C079018BF002800F0DC81189D93F90900BDF958802900E8
:200A600007D02D1A28B2002804D5A8EB0508002500E080440FFA88F0904203DA5519A5EBE6
:200A800008059046DFF8DC03219E0178BDF95C200BA8334601290FFA88F10CBF0127002761
:200AA00002F0DAFFBDF95C20ADF81A0033460FFA88F10BA802F0E8FFADF8180006A90DF189
:200AC0001A0001F0FBFF3000DDF87090DDF874A006D14FB15FEA0B00CDF80CB04ED052E027
:200AE000012EF7D1002FF5D0DFF87C03006801688A6B9047030608D59DF87C10042904D10F
:200B0000BAF1000FE6D0802107E0C005E2D59DF87C100829DED14FF48071BDF864002843A8
:200B200080B20028D6D1029A04FA88F39A42D1DBBDF95CC0079A019862449042CADB9DF859
:200B40007C30082B03D0641C4FF6FE700440C64A02941068079A00941E9B05919DF88010A5
:200B600092B203930192BDF81830BDF81A20049105684946EE6CB047FFF7A1BDBA4800687C
:200B800001680A6A9047B64BBDF918E0B3F800C0BDF91A209DF87C109DF97C304FF0010BE9
:200BA0000CFB0E2E0EEB4E0E01290BFA03FBABF1010B7044CDF814B0049008BFFF2109D037
:200BC0009DF87C00022808BF552103D004280CBF112101219DF87C30002200922246042BF3
:200BE00005D1BAF101008041C043C00F00E0002004F0010318424B46BDF8649049EA050913
:200C00001FFA89F918BF521CB9F1000F19D0BDF864909DF87CE009FB02591EFB09F9DDF869
:200C20001CE01FFA89F909F0070A03EBD903BDF86490CDF800A0AEEB090E1FFA8EFECDF821
:200C40001CE0002F00F0E480012E07D0C0F0E880032E00F0E880C0F0E980E1E00120002F44
:200C600000F0E680012E07D0C0F0EA80032E00F0EA80C0F0EB80E3E0BDF95C60DDF80490BA
:200C8000079F0FFA88F892B293F800E0A9EB0609AEB24F45C8BF4F46DDF80890A9EB0808B2
:200CA00018FA85F5AC42DDF87890DDF80080C8BF2C46A51B1E9E9DF87C40521B4FEA0949CA
:200CC0004FEA19693602360E2EFA08FE54431EAA92F800A0002F40F3928005FB10CC00EBEB
:200CE000400008909DF87C800CEB4C0C0498CDF824C0009ACDF81C80049502940197DDF860
:200D00001080B8F1000F67DD9DF88040059DD44615EA0E0749D04F43FF2F02DBFF2C00F051
:200D2000988017FB04F74FEA074A4FEA1A6A1AFA87FA0AF1010A4FEA0A4A4FEA1A6ACAF1A7
:200D4000FF0B5FFA8BFBCDF800B007781BFB07F71AFB0C774FEA074B4FEA1B6B1BFA87F72D
:200D60007F1C3F1207704778DDF800B00BFB07F71AFB09774FEA074B4FEA1B6B1BFA87F756
:200D80007F1C3F1247708778DDF800B00BFB07F71AFB067A4FEA0A473F0E17FA8AFA0AF12C
:200DA000010A4FEA2A2A80F802A09DF87CA0079FBA18089F2EFA0AFE1FFA82FABAF1070F2B
:200DC000C4BF002213F801EFC019B8F101089FD18DF88040E2460595029D4DB1AA1894B2CC
:200DE00003EBD40302F0070293F800E02EFA02FE019D099C6D1E019520447FF480AF03989B
:200E000020B9194908680268536A9847FFF757BC012E0BD0FFF422AF032E01D003D31DE76E
:200E2000CCF100001BE74FF0FF3018E7604616E7012E0BD0FFF420AF032E01D003D31BE73D
:200E40004FF0010C18E7CCF1000C15E74FF0FF3C12E780F800C080F801908670A5E700004C
:200E60003EAD002438AD002444AD00242DE9F84F0D469A462DED048B8EB000211D9F1C9E37
:200E8000DDF878801F9CF8689146BB680191ADF80A0001A8ADF8083001F034FEB4F900C019
:200EA000B8F90030DAF800103268ACEB010C521AACEB030C944580F28182B4F90060ADF81F
:200EC0000C60BDF80CE0A488B8F900B0A6440FFA8EFE01EB0B04A645C0F270822198F7EED1
:200EE000004AC0F1FF0B5FFA8BFBCDF814B0D5F800B03E68CDF800B0B8F902B0DAF8148024
:200F00006D68D844BDF888B005FB0815DDF800805D1905EB45055A454544BDF90C80D8BFD0
:200F20009346CDF818B09DED061AB8EEC12AD9ED091A444522EE211AD9ED0B2A9AED070AC0
:200F400062EE221A99ED0D3ADAED0A0A22EE032A70EE012AC4EE804A9AED0D4A4FF0000AF4
:200F600030EEA13ACDF828A024EEA00A74EE023A64EE840A31DADDF818A0DDF818809CFB15
:200F8000FAFA04EE10AABAF1000F08FB0AF8B8EEC44A44EE012A04EE213AACEB080944EEBA
:200FA000023ACDF8289012DD32EEC10AB5EE400AF7EE000AF1EE10FA33EEC24A18BFC0EE27
:200FC000800A33EE610A20EE200A64EE200A08EB4809A2EB080241444D4401EB0309914489
:200FE000CE45BCBFAEEB03035A1A002A40F3E6810699DDF8189092FBF1F1099109FB112230
:201000000C923AB9099A069B0C93521E099201E04A1E099209990029DCBF0C9A002A40F304
:20102000CD81B7EE004A069AC4EE224A24EE834ADDF8189064EEA34A9FED305A60EE055A57
:2010400034EE400A20EE050ABDEEC00A10EE103A93FBF2FE099BFDEEE55A15EE901A60EE03
:20106000855A74EEE00A002B60EE850AFDEEE00A10EE902A92FBF9F80A9AFDEEE55ACCBFD9
:20108000CC46DDF830C015EE90AA002A0ADD02EB4203002402FB0E11ACEB020C02FB08AA65
:2010A0000A941D44BDF88090ACF101045FEAC9735CBF01F500410AF5004A0EFB04134FEA51
:2010C000214B08FB04A44FEA2A421B142414BBF1000F11D4BDF90890CB450DDA002A0BD4FF
:2010E000BDF90AB05A4507DA002B05D44B4503DA002C01D45C4503DB012302E00000804742
:201100000023BDF88020042A00F02286052A00F09C85082A00F02587092A01F05D810A2A4D
:2011200000F0A5860B2A00F090872C2A00F002822D2A06D02E2A00F005852F2A00F01583AE
:201140002EE1D7F8049099F800B0BBF1000F04D0BBF1010F00F03A8122E1BCF1000F40F3F4
:201160001F81C0F1FF0204901D97D2B28DF884009FED955A00958946039660464FEA294781
:201180004FEA2A4C83B1002F00F1FD80BDF908108F4280F2F880BCF1000F00F1F480BDF96F
:2011A0000A50AC4580F2EF809DF88410002900F0EA80BDF9085003991FFA89FBF6EE007AB2
:2011C00000EE10BAB8EEC00A15FB0C7720EE050ACC191D9F21787F6807F1040C5CF8211089
:2011E00014F801CF3E1D65193C1D3F1D56F82CC015F8016D6D7854F826404FEA044B4FEA78
:201200001B6B08EE10BA57F825602502E4B22D0E05EE905A0D022D0E1FFA8AF706EE105A9D
:201220004FEA0C252D0EF8EE655A06EE905A35022D0EB8EE466A07EE105A0D042D0EC9B298
:2012400008EE905A4FEA0C452D0E5FFA8CFC09EE105A35042D0EB8EE499AF6B2F8EE666A4C
:20126000B8EE477A00EE907A76EEC66A37EE657AF8EEE00A06EE806A06EE905AF8EE666A35
:2012800047EE005A60EE850A35EEC67AF8EE485A76EEE56A46EE805A07EE206AB6EE007A99
:2012A00076EE277AB8EE686A39EE469A09EE006A75EEC65A05EEA06A36EE076ABDEEC66A59
:2012C00016EE105A06EE104A9DF88440F8EE465A06EE101A07EE10CAB8EE466AFF2CB8EE5F
:2012E000477A37EE467A07EE006A07EE106AB8EE477A37EE657A47EE005A35EEC60A00EE9F
:20130000206AF6EE000A76EE200AFDEEE77AFDEEE00A17EE907A10EE901A2CD0009CDDF882
:2013200010C0C9B2EDB2FFB2267812FB06F60CFB0161667812FB06F60CFB0565A6784FEA53
:20134000014B4FEA1B6B1BFA81F1491C4FEA054B4FEA1B6B12FB06F61BFA85F56D1C091212
:201360002D120CFB07674FEA074B4FEA1B6B1BFA87F77F1C3F12DDF800C08CF8001000992E
:201380004D70009DAF700099F144C244CF1C401E00977FF4F3AE1D9F9DF88400009D039EF9
:2013A0000999B0EE440AF0EE640A72EE812A002933EE213A73EE823A3FF72AAE0EB0BDEC11
:2013C000048BBDE8F18F00BF00008037BCF1000FE6DDE1461D9700958C46039602465146AA
:2013E000CDF820E0CDF81C800B93CDF810908DF884000B984FEA2C434FEA214990B1002B61
:201400000AD4BDF90800834206DAB9F1000F03D4BDF90A50A94505DB009B03F10309CDF8BD
:2014200000907AE0BDF90800039D10FB093305EB03091D9B99F8005019F801EF5B68484438
:2014400005EB45050EEB4E0E03F1040A1F1D03F104090AEB050810F801AD07EB0E051B1DC9
:201460004078CDF834C00AEB4A0A00EB4000CA44DDF80090CDF800801F1803209DF884302C
:20148000DDF80080DDF834E0C1F3033C08F10108CEF30336CDF8008015F801BB1CFB06FEF6
:2014A000A8F1010806EB0C0498F8008064004FEAEE0EC4F12004CEEB46067444CEEB4C0C39
:2014C000FF2B06FB0BF604FB08661AF8018B0CFB086617F801CB0EFB0C6C4FEA6C1C12D061
:2014E00099F80080059C5FFA8CFC04FB08F802FB0C8C4FEA0C4E4FEA1E6E1EFA8CFC0CF1D0
:20150000010C4FEA2C2C401E09F801CBB8D18DF88430DDF834C0CDF800900798DDF810900E
:20152000089B4118B9F101099C44CDF810903FF432AF5EE77A6892F80090B9F1000F03D0D5
:20154000B9F1010F78D02BE7BCF1000F7FF728AFC0F1FF02009581468DF884001D97D2B21F
:2015600003960D46604629144FEA2A475BB100295AD4BDF908C0614556DA002F54D4BDF92E
:201580000AC0674550DA1D9CDDF80CB06668BDF9084014FB07111BF801709DF8841006F1CA
:2015A000040C00295CF827703ED09DF88440390C4FEA172CFF2C2ED0009E1446FFB25FFAB4
:2015C0008CFCC9B296F800B014FB0BFB09FB07B73E04360E16FA87F77F1C009E3F1296F8C7
:2015E00001B014FB0BFB09FB0CBC4FEA0C46360E16FA8CFC0CF1010C009E4FEA2C2C96F82B
:2016000002B014FB0BF409FB01410C04240E14FA81F1491C0912009E3770009F87F801C05E
:20162000DDF800C08CF8021000997544C244CF1C401E009797D1AEE6FF2849D0BCF1000F4F
:201640007FF7AEAE1D97624600950D460396814619468DF8840028144FEA2A4371B1002880
:2016600009D4BDF90870B84205DA002B03D4BDF90A70BB4202DB0098C31C22E0039E1D9FA4
:201680007C68BDF9087017FB0300059F009B04F1040C305C00EB4000844403201E781CF893
:2016A000014B7E4309FB04644FEA044B4FEA1B6B1BFA84F4641C2412401E03F8014BEDD1C4
:2016C0000597521E00937544C2443FF464AEC2E7BCF1000F7FF764AE1D970A46009561463A
:2016E00003968DF8840010144FEA2A4993B100280AD4BDF90850A84206DAB9F1000F03D4C6
:20170000BDF90A50A94505DB009800F10309CDF8009025E0039C1D9D6F68BDF9085015FBAE
:201720000900205C07F1040C009F00EB4000604490F800907F1C009707F8019DDDF800C032
:2017400045780CF1010CCDF800C00CF8015DDDF80090807809F10109CDF8009009F8010D16
:20176000491E7244C244BED115E67A68B2F800905FFA89F9B9F1000F7FF412AEBCF1000F1D
:201780007FF70EAE04909FEDEE5A1D970A468DF88400604600950396CDF820E0CDF81C80A8
:2017A0004FEA22494FEA2A4583B1B9F1000F00F1B981BDF90810894580F2B481002D00F164
:2017C000B181BDF90A108D4280F2AC81BDF90810039F1FFA8AF4B6EE007A00EE904AF8EEC6
:2017E000E00A11FB059960EE850A4F44DDF8749097F800C0D9F8049009F1040555F82CB02C
:2018000017F8015F09F1040E394409F1040711F801CD09F104095EF82550497857F82C7076
:201820002E0E59F821C04FEA1B6991B24FEA176E00EE101A7446B8EEC00A4FEA1C6820EE6F
:20184000050A05EE904A4C4606EE104A344606EE904A4446B8EE466AF8EE666A76EEC66A5A
:2018600006EE806A06EE904AF8EE655AF8EE666A76EEE56A46EE805A75EEC65A05EEA06A20
:2018800036EE077ABDEEC77A17EE101AC9B2002900F048812BF0FF240BF47F4B09FB04F428
:2018A000F6EE007A09FB0BF94FEA142B2BF0FF2B09EB19295C4404F10114240A24F0FF24C0
:2018C00009F580794FEA192909F47F4949EA040425F0FF2905F47F4506FB09F975434FEAA8
:2018E000192626F0FF2605EB1525B14409F101194FEA192929F0FF2905F580752D0A05F460
:201900007F4545EA090927F0FF2507F47F470EFB05F50EFB07F74FEA152E2EF0FF2E07EB03
:201920001727754405F101152D0A25F0FF2507F580773F0A07F47F473D434FEA054B4FEAF5
:201940001B6B08EE10BA2CF0FF2708FB07F70CF47F4C08FB0CFC4FEA19484FEA172E2EF0F2
:20196000FF2E0CEB1C2C774407F101173F0A27F0FF274FEA144E0CF5807C4FEA1C2C0CF491
:201980007F4C4CEA07074FEA154CEDB23E0C06EE10EA4FEA044E4FEA1E6E08EE90EA4FEACE
:2019A000094E4FEA1E6EE4B209EE10EA5FFA89F9B8EE499AFF2905EE90CA06EE908A4FEA64
:2019C00007484FEA1868FFB207EE106AF8EE655AB8EE466AF8EE666AB8EE477A76EEC66A33
:2019E00037EE657A06EE806A06EE908AF8EE666A47EE005A35EEC67AF8EE485A76EEE56A14
:201A000046EE805A07EE206AB6EE007A76EE277AB8EE686A39EE469A09EE006A75EEC65AB3
:201A200005EEA06A36EE076ABDEEC66A16EE10EA06EE105AF8EE465A06EE104A07EE109A6A
:201A4000B8EE466AB8EE477A37EE467A07EE006A07EE107AB8EE477A37EE657A47EE005A0C
:201A600035EEC60A00EE206AF6EE000A76EE200A04BF9DF88450FF2DFDEEE77AFDEEE00A06
:201A800017EE90CA10EE909A42D09DF884705FFA89F95FFA8EFE5FFA8CFC17FB01F1049FDC
:201AA0000D042D0E15FA81F1491C009D0912C1F1FF01C9B295F800803D4611FB08F807FB71
:201AC0000989009F97F8018011FB08F84FEA0944240E14FA89F909F1010905FB0E8E97F842
:201AE00002804FEA292911FB08F14FEA0E44240E14FA8EFE0EF1010E05FB0C114FEA2E2EBD
:201B00000C04240E14FA81FC0CF1010C4FEA2C2C009981F80090DDF8009089F801E0009D57
:201B200085F802C0089D0099AA18401E01F103090799CDF800908A447FF432AE2BE400BF26
:201B4000000080377A681488E4B2002C7FF428ACBCF1000F7FF724AC02468DF884001D9740
:201B600089460095604603964FEA29414FEA2A455BB1002960D4BDF90870B9425CDA002D82
:201B80005AD4BDF90A70BD4256DADDF874C0039EDCF80440BDF908C01CFB0511715C271D3A
:201BA00057F82150290E47D02F0AFF294FEA154C04BF9DF88440FF2C37D012FB01F1DDF8FA
:201BC00000B0EDB2FFB25FFA8CFC0E04360E16FA81F1491C0904090E9BF80060C1F1FF041B
:201BE000E4B214FB06F611FB05652E04360E16FA85F56D1C9BF801602D1214FB06F611FBFB
:201C000007673E04360E16FA87F77F1C9BF802603F1214FB06F411FB0C410C04240E14FAAF
:201C200081FC0CF1010C4FEA2C2C00990D70009D6F70009F87F802C00099F144C244CD1C5D
:201C4000401E009590D1FFF7A6BBBCF1000F7FF7A7AB0095814603965246CDF820E0CDF83E
:201C60001C800B93CDF810C01D978DF884000B980B14151470B1002B09D4BDF90800834241
:201C800005DA002D03D4BDF90A00854202DB009BDD1C4FE0BDF908A003981AFB0533009D57
:201CA00003EB430300EB030A03209DF884309AF803B0C2F30337C1F30336BDF908E017FBBB
:201CC00006FC9AF80080F41964000EEB4E0EC4F120044FEAEC0C6444CCEB4606CCEB470770
:201CE00006FB0BF604FB08661AF80E8007FB08660AF1030717F80E700CFB07677F11FF2BA4
:201D000010D095F800E0DDF81480FFB208FB0EFE09FB07E74FEA074C4FEA1C6C1CFA87F77A
:201D20007F1C3F12401E05F8017B0AF1010ABED18DF884300095089B079DDDF810A0591840
:201D4000AA18BAF1010ACDF810A03FF424AB8EE7FF2845D0BCF1000F7FF722AB00950D46FC
:201D600003966246814619461D978DF8840028144FEA2A4371B1002809D4BDF90870B8420E
:201D800005DA002B03D4BDF90A70BB4202DB0098C31C1EE0BDF908C0039F1CFB0300009B0E
:201DA00000EB400007EB000C0320059F1E781CF8014B7E4309FB04644FEA044B4FEA1B6BC9
:201DC0001BFA84F4641C2412401E03F8014BEDD10597521E00937544C2443FF4DCAAC6E799
:201DE000BCF1000F7FF7DCAA00950A46039661461D978DF8840010144FEA2A4993B100280D
:201E00000AD4BDF90850A84206DAB9F1000F03D4BDF90A50A94505DB009800F10309CDF844
:201E200000901EE0BDF90870039D17FB090000EB40002844009D90F800906D1C009505F8C4
:201E4000019D009F90F801C07F1C009707F801CDDDF80090807809F10109CDF8009009F846
:201E6000010D491E7244C244C5D1FFF794BABCF1000F7FF795AA8DF8840002460095894631
:201E8000039660461D974FEA29414FEA2A455BB100295DD4BDF90870B94259DA002D57D4EA
:201EA000BDF90A70BD4253DABDF90870DDF80CC00CEB810117FB05F551F82550290E47D066
:201EC0002F0AFF294FEA154C04BF9DF88440FF2C37D012FB01F1DDF800B0EDB2FFB25FFA8C
:201EE0008CFC0E04360E16FA81F1491C0904090E9BF80060C1F1FF04E4B214FB06F611FBA4
:201F000005652E04360E16FA85F56D1C9BF801602D1214FB06F611FB07673E04360E16FA80
:201F200087F77F1C9BF802603F1214FB06F411FB0C410C04240E14FA81FC0CF1010C4FEAD0
:201F40002C2C00990D70009D6F70009F87F802C00099F144C244CD1C401E009593D1FFF7AD
:201F60001ABABCF1000F7FF71BAA8DF88400C0F1FF02009581460396D2B20D4660461D97B5
:201F80002F144FEA2A415BB1002F55D4BDF908C0674551DA00294FD4BDF90AC061454BDA0A
:201FA000BDF908C0039C04EB87071CFB01F157F821709DF8841000293ED09DF88440390CA0
:201FC0004FEA172CFF2C2ED0009E1446FFB25FFA8CFCC9B296F800B014FB0BFB09FB07B742
:201FE0003E04360E16FA87F77F1C009E3F1296F801B014FB0BFB09FB0CBC4FEA0C46360E54
:020000040800F2
:2020000016FA8CFC0CF1010C009E4FEA2C2C96F802B014FB0BF409FB01410C04240E14FA0B
:2020200081F1491C0912009E3770009F87F801C0DDF800C08CF8021000997544C244CF1C1C
:20204000401E00979CD1FFF7A6B9BCF1000F7FF7A7A9049002468DF884009FEDD85A00950F
:20206000894603966046CDF820E0CDF81C800B931D970B994FEA29434FEA2A4579B1002B94
:2020800000F19E81BDF908108B4280F29981002D00F19681BDF90A108D4280F29181BDF9FB
:2020A0000810039F1FFA8AF4B6EE007A07EB830300EE904AF8EEE00A11FB05F560EE850ABE
:2020C00003EB8503D3F800B05D6853F821701B1D53F821C04FEA1B632E0E1FFA89F100EE96
:2020E000101A4FEA176EB8EEC00A4FEA1C6820EE050A744605EE904A1C4606EE104A3446FD
:2021000006EE904A4446B8EE466AF8EE666A76EEC66A06EE806A06EE904AF8EE655AF8EE90
:20212000666A76EEE56A46EE805A75EEC65A05EEA06A36EE077ABDEEC77A17EE101AC9B253
:20214000002900F03D812BF0FF240BF47F4B5C43F6EE007A03FB0BF34FEA142B2BF0FF2BEB
:2021600003EB13235C4404F10114240A24F0FF2403F580731B0A03F47F431C4325F0FF23CD
:2021800005F47F45734375431E0A26F0FF2605EB1525F31803F101131B0A23F0FF2305F520
:2021A00080752D0A05F47F452B4327F0FF2507F47F470EFB05F50EFB07F74FEA152E2EF028
:2021C000FF2E07EB1727754405F101152D0A25F0FF2507F580773F0A07F47F473D434FEAB7
:2021E000054B4FEA1B6B08EE10BA2CF0FF2708FB07F70CF47F4C08FB0CFC4FEA13484FEA2A
:20220000172E2EF0FF2E0CEB1C2C774407F101173F0A27F0FF274FEA144E0CF5807C4FEACD
:202220001C2C0CF47F4C4CEA07074FEA154CEDB23E0C06EE10EA4FEA044E4FEA1E6E08EE90
:2022400090EA4FEA034E4FEA1E6EE4B209EE10EADBB2B8EE499AFF2905EE90CA06EE908A95
:202260004FEA07484FEA1868FFB207EE106AF8EE655AB8EE466AF8EE666AB8EE477A76EE81
:20228000C66A37EE657A06EE806A06EE908AF8EE666A47EE005A35EEC67AF8EE485A76EE8A
:2022A000E56A46EE805A07EE206AB6EE007A76EE277AB8EE686A39EE469A09EE006A75EEDC
:2022C000C65A05EEA06A36EE076ABDEEC66A16EE10EA06EE105AF8EE465A06EE104A07EE4C
:2022E000103AB8EE466AB8EE477A37EE467A07EE006A07EE107AB8EE477A37EE657A47EE74
:20230000005A35EEC60A00EE206AF6EE000A76EE200A04BF9DF88450FF2DFDEEE77AFDEEED
:20232000E00A17EE90CA10EE903A3AD012FB01F1049DDBB25FFA8EFE5FFA8CFC0F043F0E2F
:2023400017FA81F1491C009F0912C1F1FF01C9B297F8008011FB08F805FB038397F80180FD
:2023600011FB08F805FB0E8E97F802801C04240E14FA83F35B1C4FEA0E44240E11FB08F195
:2023800014FA8EFE0EF1010E1B124FEA2E2E05FB0C110C04240E14FA81FC0CF1010C4FEAA6
:2023A0002C2C00990B70009B83F801E0009D85F802C0009BDF1C009705E000BF0000803756
:2023C000009DEB1C00930899079B401E89449A447FF44FAEFEF7DFBFBCF1000F7EF7E0AFB7
:2023E0000490C0F1FF028DF88400D2B200959FED855A0396894660461D974FEA294C4FEA61
:202400002A4783B1BCF1000F00F1F180BDF908108C4580F2EC80002F00F1E980BDF90A50E3
:20242000AF4280F2E4809DF88410002900F0DF80BDF9085003991FFA8AFBF6EE007A01EBA2
:202440008C0C00EE90BAF8EEE00A15FB07F760EE850A0CEB87073968D7F804C057F8254084
:202460003F1D57F825600F021FFA89F53F0E4FEA044B4FEA1B6B08EE10BA00EE105A2502B1
:20248000E4B22D0E05EE905A4FEA0C252D0E06EE107A06EE905A35022D0EB8EEC00A07EEB6
:2024A000105A0D042D0EC9B208EE905A4FEA0C452D0E5FFA8CFC09EE105A35042D0EB8EEEA
:2024C000499AF6B2F8EE655AB8EE466AF8EE666AB8EE477A20EE050A76EEC66A37EE657AA4
:2024E00006EE806A06EE905AF8EE666A47EE005A35EEC67AF8EE485A76EEE56A46EE805A2F
:2025000007EE206AB6EE007A76EE277AB8EE686A39EE469A09EE006A75EEC65A05EEA06AB9
:2025200036EE076ABDEEC66A16EE105A06EE104A9DF88440F8EE465A06EE101A07EE10CAA3
:20254000B8EE466AFF2CB8EE477A37EE467A07EE006A07EE106AB8EE477A37EE657A47EE40
:20256000005A35EEC60A00EE206AF6EE000A76EE200AFDEEE77AFDEEE00A17EE907A10EEEC
:20258000901A2CD0009CDDF810C0C9B2EDB2FFB2267812FB06F60CFB0161667812FB06F692
:2025A0000CFB0565A6784FEA014B4FEA1B6B1BFA81F1491C4FEA054B4FEA1B6B12FB06F60B
:2025C0001BFA85F56D1C09122D120CFB07674FEA074B4FEA1B6B1BFA87F77F1C3F12DDF876
:2025E00000C08CF8001000994D70009DAF700099F144C244CF1C401E00977FF4FEAEFEF7AD
:20260000CABE0000000080373CB41446DFF83053AA683AB9049AA8606980204602B01946CC
:2026200030BC01E033BC704718B4DFF81443A36933B929B1A2802162206111BC00F002B8BE
:2026400011BC7047DFF8F8221169002900D17047F0B595885088DFF86443C5EBC5074019ED
:20266000461C01EB800E7D0001EB80075761176A04EA46040026A7EB8003168001EB800CD4
:20268000D680A644AE441B1B5B1BA444C2F818E0C2F80CC0D36140B153694FF6FF74401E45
:2026A00041F8046B23F8024BF9D10020002109E0D368401C03F10C040C33655C05F0DF05A2
:2026C0005D540E319488A042F2D3F0BD30B49C4A00889168C9B154880346A04207D201F103
:2026E000080003EB83018900405A30BC704795886519AB4209DA1B1BD068C3EBC30200F15D
:2027000008015200885A30BC70474FF6FE73984206BFAB480088002030BC7047884A0088EC
:202720009168B9B1B2F802C00346604505D203EB830001EB800040897047918861448B421D
:2027400008DAD068A3EB0C03C3EBC30200EB4202508970474FF6FE71884202D199480088D6
:202760007047002070477CB5754B09889A6852B35D880C46A94216D204EB840302EB830250
:20278000B2F90C40ADF80040B2F90E50ADF80250138AC3F30C03ADF80430528AC2F30C0283
:2027A000ADF8062022E09E88AE19B4420BDAD968641BC4EBC40202B001EB42010822BDE89F
:2027C000704000F001B94FF6FE7399420BD100247B4B00947B4A1C5FB2F90050ADF8044090
:2027E000ADF8065002E00022009201926946082200F0EAF873BD10B46E4A916889B354884D
:202800000088A042034613D203EB830080000A18138A08310C5AC3F30C03A3421ED3508A5C
:20282000518910BCC0F30C0088428041C00F704790882018834214DA1B1BC3EBC30148002F
:20284000D1680A18B2F9043001F10804205A8342A2BFB2F906105289914202DA012010BC68
:202860007047002010BC704701884FF6FF70814201D1002070474FF6FE72914203D14E4863
:202880000168486C70474B4A106900281EBF0B4650F82300002804D1906801EB81029100A0
:2028A00040587047000070B400884FF6FE7102468A4241DA3F494B8898421FD2886802EB37
:2028C000820300EB83035868B0B3096900291CBF51F82210002930D01A8958891C8A424316
:2028E000588A640B400B40EAC40070BC0B2818BF5200D21C920801EB8200704788881818D9
:20290000824219DAD31AC3EBC304CB6860001D182E7B06F01F060B2E0ED103F108040A33BD
:20292000255A185A0969454351F82220ED1CAD0802EB850070BC7047002070BC704700000B
:2029400078AC002430B41B4A9168F1B103885588AB420BD203EB830001EB8000018A408AE7
:20296000490B30BC400B40EAC1007047918869188B420ADAD0685C1BC4EBC40200EB42028C
:20298000107B30BC00F01F00704700884FF6FE7188420CD1084A116891F8760000281ABF4C
:2029A000C86C0028886801684A6A30BC1047002030BC704778AC002444AD0024FCFF01004F
:2029C0003AAD00243CAD002462B38B0708D0521E11F8013B00F8013B00F024808B07F6D18A
:2029E000830740F0208000BF103A07D330B4B1E83810103AA0E83810F9D230BC530724BFC7
:202A0000B1E80810A0E8081044BF51F8043B40F8043BD20724BF31F8022B20F8022B44BF09
:202A20000B7803707047121F17D35B0009D151F8043B20F8023B1B0C121F20F8023BF6D247
:202A40000BE051F8043B00F8013B1B0A20F8023B1B0C121F00F8013BF3D238BF121D521E6E
:202A600024BF11F8013B00F8013BF8D8704770B50E460546307995F82C40401E8041C00F1F
:202A800085F82C0095F82C0008B12CB900E0A4B1296828464A6990477CB1307901280CD19C
:202AA000A86A50B10168CA68904730B1A86A294602689368BDE87040184770BD354B364AE9
:202AC00030B41C78B2F90020012C06D10D88B0F900300580501EC31A0B8030BC70472D4ACC
:202AE0001378012B00D0704770B42C4C0A88B4F90050B0F900306E1EB61A06800B8070BCFB
:202B00007047000078B50446234E2548B6F90030B0F9005083B000220021009501A801F02C
:202B200043F90146204600F01CF804B070BD000030B4184B1C78012C11D190ED000A0D68E1
:202B40000560B2F904009FED121A00EE900AF8EEE00A30EE811A31EE400A81ED000A30BCCB
:202B600070470C4A1378012B00D0704730B44588B0F904200488058089881419631E4C1E52
:202B8000E31A4380C388C280838030BC7047000017B7D1B838AD00243AAD002440AD0024C6
:202BA0003CAD002410B5044601F006F960680168CA689047E06801688A6890472368204664
:202BC000996EBDE81040084710B5044621684A6F904723682046D96E884701F037F92268D0
:202BE0002046516E8847F8E7F0B583B004462168D1F8A0209047002800F0A180012004F1A8
:202C0000580501F060F9A87B0021A97304F14A06E8737170687F30B121682046D1F8B420D8
:202C200090470020687731786268DFF89C64481E8041C00F50720120307001F0A3F9026804
:202C40000121136B9847E87B08B90121E97301F099F9026851698847286803681A69904788
:202C6000287CE97B491EE97300281CBFC9B20029EDD17078401C707095F90C1040B288429A
:202C800016DB002001AA7070E06802A90368DE68B04738B12368019A02992046D3F8AC6016
:202CA000B04705E02168204601F1AC025368984700208DF80000606950B102686946D3684C
:202CC000984728B128689DF800100268D368984704F11C0001F016FD287D50B320690168D4
:202CE0000A6990470646A86900B9AE61A869DFF8DC13301A88421CD32069DFF8D47302687A
:202D000091698847AB69F31AA3FB07729209B0FBF2F00128B8BF642004DB6428ACBF002070
:202D2000C0F164006873206900210268D3699847AE6101F027F902680021136B98472168E3
:202D40002046D1F8A4209047012001F0C7F80020DFF87413087003B0F0BD000000BF0121A1
:202D600000F84B1F81777047426801215172406801680A691047406801688A681047DFF8A7
:202D8000542310B51178044639B9606801F057FE18B16068407A0028FBD001F023F8204674
:202DA000BDE8104001F058BE01F01FB82DE9F0434FF0000983B004460D461646CDF8089035
:202DC0000A99A06902AADFF8FC72019298460091D0F800E032462946DEF80090C847A7F8B1
:202DE0000680F968814691F8760000281ABFC86C0028886801684A6A904710B1012808D023
:202E00000FE0F888029B4643701940004042191806E0F888029A46437019A0EB8000111859
:202E2000E163484603B0BDE8F083084670472DE9F0478AB09146199C0026169A179D0896B5
:202E4000022C05D0FF2A06BF002D0125042504E0FF2A0ABF002D4025202598464B46029552
:202E6000DDF854C0DDF850E0DDF84CA01A9D0391189E0493129FADF818A08146ADF81AE097
:202E8000ADF81CC08DF8242001F0E6FD0346019500963A464146484600F0D1F8059002A911
:202EA000ADF81E608DF825408DF82650D9F804000268536898470AB0BDE8F0872DE9F04F06
:202EC000DFF800928BB0D9F80C4084469A46179D169E159F94F87600DDF8508093460028C3
:202EE0001ABFE06C0028A0680991189CCDF828C00368D3F824C0E047089009990790B9F8BF
:202F0000060005945B4606900A980495002203960297CDF80480CDF800A0FFF788FF87E0BA
:202F20002DE9FC4288B0044615469946109F119B129A1498BDF954C0002606968DF81C00A1
:202F40002046CDF800C00191ADF81070ADF81230ADF8142001F080FD03464A4629462046F3
:202F600000F087F803905748C288C168139DADF8162091F8760000281ABFC86C0028886866
:202F80000268536A98478DF81E0069468DF81D00069560680268536898470AB0BDE8F082FF
:202FA0002DE9F04F8BB0474FFD6804468A46169EDDF85490DDF8508095F8760000281ABF56
:202FC000E86C0028A868ADF80830179DADF80A2001684A6A90478346FF880023CDF810A029
:202FE00040220993039220460593ADF81C80ADF81E90ADF820608DF8285001F02DFDCDF8AA
:2030000004B003460097BDF80820BDF80A10204600F015F802220690ADF8227003A98DF8EB
:2030200029208DF82AB06068FFE70268536898470BB0BDE8F08F81651C3001F061BB18B44C
:203040000398002440B1401E08D0401E08D0401F042806D8082404E0102402E0182400E0A9
:2030600020240298E41002FB00116143581812BC70472DE9FC410D46124FF96804461646C9
:20308000984691F8760000281ABFC86C0028886801684A6A90470190F88843463246009070
:2030A00029462046FFF7CBFFBDE8F681094A117829B190F86A00401E8041C00F70470120F1
:2030C0007047000038AD002428AE002401E1F5053E0AD7A326AE002410B504466068016860
:2030E0008A68904704F16901087808B101224A7010BD38B5044604F16905687870B1022008
:2031000000F0F7FE002120466970297001F0A4FC236801462046D3F8A840A04731BD30B59B
:2031200083B00446019101A8029201F0D7FC02A901A8FFF7D4FC94F86B00029B00289BB25C
:203140000CD001990093206EE56D8BB282B204F11C00A9B201F0E3FA70B109E00198002117
:2031600082B204F11C0001F027FB012184F86B100198E0650299216603B030BD10B504462F
:2031800094F86B0058B1236EE26D012104F11C009BB292B201F010FB002384F86B3010BD88
:2031A00010B5044631B1032000F08DFE206960B1012105E0032000F091FE206928B10021BA
:2031C00002685369BDE81040184710BD2DE9F84F00260025002A29DD4FF4807A83460F4675
:2031E000984614464FF0000E6B46CDF800E03A4641465846A94601F066FD0546B0B10A282E
:2032000014D0009880B1417B8588807A3B680A06009A4CBF51460021D3F83CC00143761895
:2032200049463846E0473618641EDBD1B0B2BDE8F28FF8B501240F008AB00546164614D0B0
:20324000BDF94000019100933346294682B202A802F03EF8002102A800F0FEFABDF80800F5
:20326000002818BF641CF5D10BE0314601F0C5FC0A283146284608BF641C01F0BEFC0028C4
:20328000F6D1A0B20BB0F0BD37B51A4609494B6882B000EB63000AACDB07089B51BF0D681C
:2032A000056809686D5809990194009103A9A84705B030BD700000242DE9F14FD6B0DDF821
:2032C0008091B9F1000F1EBF1E46306800281CBF96F80E80B8F1000F00F04A810A911146C7
:2032E00007A80822FFF770FBB1790A9F0A984FF000080129B7F90470B0F906A02AD03BD333
:20330000032901D014D337E0BDF922B0BDF81E20BDF92030BDF91C00ADF820B0ADF81E0027
:20332000AAEB0B01891AADF81C10ADF8223023E0BDF82200BDF82030BDF81E20BDF81C10CE
:20334000AAEB0000FB1A821A5B1AADF81E20ADF81C3011E0BDF92020BDF92230BDF81C001E
:20336000ADF82030ADF82220B91A081ABDF91E10ADF81E00ADF81C10B179012918BF0329AD
:2033800002D13846574682463FA801F0F5FB306801684A6C9047619A034649463FA801F076
:2033A0003EFD29A801F0E8FB307960B130684FF0010B01684A6C9047619A0346494629A8F6
:2033C00001F02DFD00E0C346306801680A6B9047B6F90C104518002D03DDBDF91E208242AF
:2033E00001DA002402E0891891FBF5F413A801F0C3FB307C48B1306801684A6C9047619A3E
:203400000346494613A801F00AFD307CBAB2019031680091737913A90BA801F059FF307CFE
:20342000002800F0A680002CD8BF00242ADDA9460FFA8AF0B0EB490F0BA8B4BF0121002192
:2034400000F00AFABDF83E500BE071793FA86D1E01F0D3FBBBF1000F03D0717929A801F0F5
:20346000CCFBA8B20028F0D1BDF82C00641EC844AAEB090A00287BD0002CD9D14D46307CA3
:20348000002408B30FFA8AF0B0EB450FB4BF0121002116E00A2D05D1641EC844AAEB090AEC
:2034A000002CEBDD71793FA801F0A7FBBBF1000F054603D0717929A801F09FFB002DE9D1AE
:2034C00059E00BA800F0C8F9BBF1000F1BD0307C10B1BDF9460006E03168002347F6FF72F0
:2034E00029A8FFF773FE3179012905D100B2381A00EBD070401007E0022906D1F17B00B264
:20350000381A401A00E0F07B0446ADF82440307C9DF84A1007AB0DF1240C002814BFBDF836
:203520003E0047F6FF7005903FA80022049003920A9A5698069101930FFA88F302960021E0
:20354000CDF800C000F01AF890B9307CA844AAEB050A18B10FFA8AF0A84209DBBDF81E1062
:20356000BDF82200411809B20FFA88F0814286DA01E0A94694E757B0BDE8F08F2DE9F04FF1
:203580008A469B4699B09146249DDDF88CE0BEF80030229F279ADDF8A0C0BEF804100024CD
:2035A000CB182968BCF1000F1BB291F80980CDF844800E7AA04611461096B7F9007009D00F
:2035C00095F810C0BCF1040F0CBF4FF0020C4FF0010C61440029009440F33A81D4464E466C
:2035E0000F90DDF894A0ADF832B0DDF89890CDF858C01596CDF89890DDF80090CDF88CE094
:20360000279213931491279A00210D91264691450FDB286801684B699847044628680CABDD
:2036200012AA2146D0F800E0DEF808C0E0470D900AE00CA812A90190269800912A680DABDA
:20364000514601F06EFB04464FF6FF6084421CBF42F20B018C4200F0F480002C00F0F880E4
:203660000A2C6CD00D9868B184885FEA0A000D98417B08BF47440A064CBF4FF480784FF073
:20368000000812E0286801680A6990474FF6FF6398421CBF42F20B01884200F0D2800D98A0
:2036A0000028E2D14FF00008CBE0817ABAF1010F41EA080808BFA7EB080706B35FEA0A00D8
:2036C00028680D9A31460368D3F83CC002D1E0473F1817E0E0473F1ABAF1010F07D12399F3
:2036E0001198B1F900204044381890420FDB0D98417B0A074CBF4FF48070002021E05FEAAD
:203700000A00E9D110991398791A8842EFDA002C269F279D00F09C800A2C10D009F1010990
:20372000A9450CDAA5EB09055146384601F065FA002800F08D800A2801D06D1EF4D100201A
:2037400087E00D99DDF834E0DDF88CC091F909209EF80660BCF90010BB183043181888429E
:203760006FDBDDF84CC063456BDA00268F4228684FF0000BB8BFCE1B0168CA6A90470D99E6
:20378000BDF832E04B7B097A5A064CBF4FF47E4200229B0670444CBF4FF4807300231A4373
:2037A0000A43801A00B2239AADF83800B2F90210884213DA0D9B93F80DC0DB795FEACC6E8B
:2037C0004CBF4FF4807CDC4643EA0C0C00EB0C038B4236DBADF83810A1EB000B28681FFA33
:2037E0008BFB01688A6B904715998DF8310017A80822FFF7E9F8A8799DF83020BDF938C036
:203800000B90A97B0992129A0A91A8689DF8311008900D980692079123990491B1B2F619F1
:203820000590CDF80CB036B20291CDF804C000960F981699DDE91723D0F800E0DEF8406064
:20384000B047149809F101098145FFF6DCAE5EE7012019B0BDE8F08F00232DE9F04F00248D
:2038600085B000260D00B646427A0BD0032A01D1012312E0042A18BF012AF9D0022A0CD136
:2038800001240AE0032A01D1012606E0042AFBD0012A14BF022A4FF0010E002290464282E0
:2038A0004FF48079828242F20B0A8DF8001005460496CDF80CE0029309E0B5F816C0D31868
:2038C0006B83AB82604468820020E88228834FF0000E01ABCDF804E0297AEA6868682E88ED
:2038E00001F0F1F9002828801FBFE98A491CE9820A280CD1298B6A8AE88AAB8A82180020E4
:203900006A82E882C91828836983A982A1E0019911B95045DBD115E00021504512D0019862
:20392000818829800198427B807A1106019A31464CBF4F4600270743E8680368D3F83CC0C9
:20394000E0473918B5F800B0BBF1200F18BFD34504D1202E1CBF5645B5F81880288BAB8A02
:20396000B5F810E00A1891B22A8301EB030C9DF80010E645B4BF01270027D1B1029828B90E
:203980005CB1BBF1200F18BFD34506D1A98B688A61448E4591DA00288FD0002F1CBF688AED
:2039A000002894D06A8B0121A88BA97782186A834FE037B3049971B1B5F816906C8AC3188E
:2039C0006B83A9F101010C196C82AB820123121AEB822A833DE0039900293FF478AFBBF1CB
:2039E000200F18BFD34503D0202E18BF564524D0BBF1200F1EBFD345688A00283FF467AFEF
:203A000027E0BBF1200F18BFD3453FF460AF202E18BF56457FF45BAFB5F816C0698A08EBED
:203A20000306C318121AACF1010E7144698201216E83AB82E9822A8349E7B5F816906C8A59
:203A40009844C318A5F81A80A9F101010C196C82BBE705B0BDE8F08F012B07D002D3032B48
:203A60000ED00AD3B0F900000818704703888188CB181BB29A1A501E7047028880881AE062
:203A8000B0F9001050187047012B07D002D3032B0FD007D3B0F9020010187047B0F902203A
:203AA000881870474188C088411809B28A1A501E70474288C088821812B2511A481E7047C9
:203AC0009FEDB60A2DE9F14FCCB0934688469946DBED020ADBF80400F4EE400ADBF8181070
:203AE000F1EE10FADBF82C205EBF9BED071AB4EE401AF1EE10FA5EBFDBED0C0AF4EE400AEC
:203B0000F1EE10FA00F14681DBF80030A44FBB42A1BFDBF814C0BC45DBF828E0BE45C0F279
:203B20003981A04CA342D8BFA44500F33381A64580F23081B842A4BFB942BA42C0F22A8114
:203B4000A042D8BFA14200F32581A24280F22281884211DA824204DA002402270125A246C5
:203B600018E00027914203DA01240225A24611E002240125A2460DE08A4204DA0124022738
:203B80000025A24606E00127904205DA002402254FF0030A2E4603E002240025A24603260F
:203BA00059463BA801F0D2FB014600953B465A460BA801F041FD00943B465A463BA92BA87A
:203BC00001F03AFD009523465A463BA91BA801F033FDB24504DA00210BAE0A912BAA03E055
:203BE00001212BAE0A910BAADDF858B131980892579F00907069BBF902A0B7F90210CDF8FD
:203C00001C80FB88589C599D0AEB00025B181BB29A421EDBDDF800A0BAF1000F12DDD0465B
:203C20002BA801F0B9FDB8F10108F9D1D0460BA801F0B2FDB8F10108F9D10098A0EB0A0A72
:203C4000CDF800A0DDF83081BDF868A10996009E12E08A42F6DA009A002AF3DDA1EB0A0ABC
:203C6000AAEB000A5245D7DA9246D8E72BA801F093FD0BA801F090FD002E76DDCDF818A043
:203C800040460595761E0494089A0397099BCDF808B00799CDF804900092D8F800E03BAA5B
:203CA000DEF83CC0E0470998BBF90220416978888A18F988521C081800B28242D6DB69E0C9
:203CC000B7F90220FB88BBF90260D8F814009B181BB2311899423EDB2646002E0CDD3546DA
:203CE0001BA801F059FD6D1EFAD135460BA801F053FD6D1EFAD1A41B4C9D9DF86461002C71
:203D000048DDCDF818A043460596BDF860110397089ACDF808B02846CDF80090641E049124
:203D200007990192D5F800C03BAADCF83CC0E047BBF902107A88D8F814004118F888491CFD
:203D4000821812B2914225DA1BA801F025FD0BA801F022FDD3E79142CEDA002CCCDD961BDF
:203D6000361AB442B9DA2646B9E70A98CDF83081CDF82090ADF8604100288DF86451219C6C
:203D800019BF0DF16C080DF12C090DF12C080DF16C0995E74DB0BDE8F08F00000100204102
:203DA000018FFDFF0071020010B5BDF90840018042808380C48010BD10B5364C032200215D
:203DC000012001F05CFD206020B100230022002101F07EFD00220121012001F050FD2E493B
:203DE000086010BD4FF0FF3107E00023002200212848006801F06CBD00212648006801F0F8
:203E0000F3BE80B50020009069462248006801F01EFE00F010F801BD1CB51F4C206848B10B
:203E20000020009000236A461C49206801F0D0FD00F001F813BD009838B14FF080501849AA
:203E40000860BFF34F8FBFF36F8F704738B5124C124D00222946206801F03DFE4FF0FF32A4
:203E600029462068BDE8384001F035BE80B518B102F00CF8012102E002F008F80021FFF749
:203E80008FF9012002BDFEE7FEE70649002002F0C2B9000098AD00249CAD00248C0000248E
:203EA00004ED00E06D3E000810B5002002F0A0FC012002F09DFC0024E0B200F00FF8641C32
:203EC000022CF9DB10BD0121124A030011540CBF0020012801D102F0BABC704700210D4AB0
:203EE000030011540CBF0020012801D102F0B2BC704710B5044600F009F80028204602D0FD
:203F0000BDE81040EAE7BDE81040DCE70149085C7047000080AD002400BF38B50446DFF8A0
:203F2000B8172160DFF8B42722600023A4F8843004F1A80002F026FD04F1EA00DFF8A0572B
:203F400002F020FD04F59670002101704170DFF89417DFF8940702F023FD10B10020288081
:203F600007E04FF48061022329800220AB6002F09CFD00206860A860E860204600F0CDF95C
:203F8000204632BDDFF8580740687047DFF85007806810B1026893691847704770473EB53A
:203FA0000022DFF848470092DFF84437A25EB3F90050ADF804206946ADF806500268D36A7F
:203FC000984703B030BD70B505460C46DFF82007DFF8181784B0B0F90000B1F900100022E3
:203FE00000920822ADF804102146ADF8060002A8FEF7EAFC694602A803F036F8204602A92A
:020000040800F2
:204000000822FEF7E1FCDFF8D8068068D8B195F82C1169B1684621460822FEF7D5FCDDE9CF
:20402000002311461A46284600F00FF804B070BD05682146AE68B047DFF8B806214600681B
:2040400002685369984704B070BD2DE9F64184B08046BDF9141000291CBFBDF91600002861
:2040600000F08680B8F8E840002C79D0641E64D408F1A8050B26A7B2684605EBC701082283
:20408000FEF7A2FC04A9684603F036F800286FD1694604A803F030F828B1A2B2294602A8ED
:2040A00003F04CF847E004A9684603F070F848B1A2B2294602A803F041F8694604A803F00C
:2040C00088F838E0DDE90401CDE90201694602A803F07FF8BDF90430BDF906C0BDF90C00D9
:2040E000BDF90E1013FB0CFC10FB01F1BDF9140001EB8102BDF9161010FB01C070435200F3
:20410000824218DAB8F8E810A2B28A420FD2A0B2491E1FFA81FC6045A8F8E81007D289B2A0
:2041200005EBC70005EBC1010822FEF74DFCDDE90201CDE90401641E9DD5B8F8E80008286E
:204140000ED1072208F1A80102A802F0F7FF684602A90822FEF738FC694604A803F039F8F8
:20416000DDE904010A46014608F1A80003F07CF806B0BDE8F081DFF86805806810B10268B2
:20418000D36918477047DFF85805806810B10268136A184770472DE9F0410446DFF84055F6
:2041A000E868C0B1017A39B9002284F82D2103689968BDE8F041084794F82D0158B9A86879
:2041C00010B101680A699047E8680168CA689047012084F82D0104F18808002746460BE0BB
:2041E000307838B1211DBAB251F822000368D3F850C0E0477F1C761CB4F884108F42EFDBA4
:20420000491E3DD408EB01021078A8BB231D8FB253F827000023271D12E0BEF11F0F09DA39
:20422000DCF804600EF1010E4CF8046BB4F88460B645F2DBA6F1010CA4F884C05B1C3F1DD6
:20424000B4F884C0634524DAD7F800E08645F5D19E46261D06EB8E0CE8E783B223448833B0
:20426000401C5F781F70B4F884301FFA80FC9C45F3D3002008F80300491E521E0029C3D525
:20428000A86820B101684A6ABDE8F0411047BDE8F0810846E7E7D0B40022061D00E0521CAA
:2042A000B0F8843094B29C420ED293B256F823708F42F4D1184490F88810FF2913D0491CF6
:2042C00080F88810D0BC7047012200F18804E254B0F884201346202B05DA521CA0F884203C
:2042E000001D40F82310D0BC704770B4002300E05B1CB0F884409AB2A2420CD200EB820569
:204300006E688E42F4D1841894F88820002AEFD0501E84F8880070BC70470021A0F88410D7
:204320002021883002F0B4BF2DE9F84F804698B008F5957A8AF8021019B10020A8F8E800A2
:20434000BFE1B8F8E810002900F0AC8107A8DFF8904302F017FB25882F4618E008F1A801B6
:20436000BAB201EBC20168460822FEF72DFBBDF85C000146082909DA401C0822ADF85C003A
:2043800007A800EBC1006946FEF71EFB7F1CB8F8E810B8B28842E1D310E008F1EA02ABB2A8
:2043A00002EBC301684608226D1CFEF70DFBDDE900010A4601464046FFF747FEBAF80020FD
:2043C000A8B29042E9D3CB4D2688286890F84800012840F0828000270CE008F1A800B1B25D
:2043E00000EBC1004188C288511809B28F42B8BF0F46761CB8F8E8008642EEDBBC49DFF8A6
:20440000ECB20E88F608022EB8BF012600210091019109E0884201DA002921DC28680121F2
:204420000268D2F888309847BDF80200BDF80610081800B2B8422868026880F2348102F14F
:204440001C03196F8847BDF80220BDF806309A1811B273189842B8BFB842DBDB884201DA7E
:204460003B4603E03B468742C8BF0346ADF802209A1ABBF900E00020ADF80000B4F80090AE
:20448000ADF804E0ADF80620B8F8E8101FFA89F08842C9D208F1A8021FFA89F302EBC30140
:2044A00004A80822FEF790FA694604A802F0DCFDDDE90401CDE90201BDF90C20002A1CBF16
:2044C000BDF90E00002805D0D8F8002002A94046D36A984709F10109D6E7022840F09B80A8
:2044E000854F02E001A980E0761CB8F8E810B0B2884280F0DA8008F1A802B3B202EBC30113
:2045000003A80822FEF760FA3878012804BF03A8FEF7F8FABDF9100000281CBFBDF91210A8
:204520000029E1D0002201920292BDF90C30BDF80E20ADF80800ADF80430ADF80620BDF87D
:204540000E20BDF81230BDF9061028689A18BDF80830521A92B200928AB2D0F800E0BDF860
:204560000410DEF88490C847ADF80A0038780128B8D1002205920692BDF80600BDF80A1042
:20458000BDF90420ADF802200818421EADF8002069460DF10200FEF7A2FABDF90210BDF878
:2045A0000020ADF81410BDF80410ADF81620BDF808200DF102005118ADF80210BDF90610A5
:2045C000ADF800106946FEF78AFABDF80200BDF81410401A401CADF81800BDF80000BDF891
:2045E0001610401A05A9ADF81A00D8F800204046D36A9847BDF80600BDF80A10BDF80E20CF
:204600000818BDF81210ADF8060000B28A1812B2904294DB68E7B8F8E820B0B2904244D24E
:2046200008F1A803B7B203EBC70168460822FEF7CBF9BDF9041000291CBFBDF90600002874
:2046400005D0D8F8002069464046D36A9847761CE1E70268936898472849087810B30022D0
:20466000AAF80020248818E007A9A3B201EBC30168460822FEF7A8F9BAF800000146082987
:204680000ADA401C0822AAF8000008F1EA0000EBC1006946FEF798F9641CBDF85C10A0B257
:2046A0008842E1D30DE0D369984720690028D3D02A6892F8761000291ABFD16C002991681D
:2046C000C7E719B0BDE8F08F0548806810B10268936A184770470000285A0108E057010801
:2046E00078000024CDB5E8B5C2A507F43AAD00243CAD002444AD002438AD002426AE00246F
:2047000001617047817B49B10189491C018189B2082903DB002141818181817370472DE929
:20472000F0410E4684B00546174698460A9CB5F90620B5F90430ADF80A80BDF80A10ADF83B
:204740000630BDF80600DFF818C14FF0000ECDF800C08DF804E0081A01B20029ADF80820B2
:20476000ADF80C4044BF08464042A98A00B281420ADBBDF80800201A02B2002A44BF1046BA
:20478000404200B2814213DA28696946A8EB0606E71B0268536898474FF0000C0120A5F847
:2047A00008C06E81AF81A5F80480EC80A87300E0002004B0BDE8F0812DE9F8410D46012DD0
:2047C00083B004461646984618BF022D32D1B4F90A20D01C072813D3B4F90630B4F904E0CD
:2047E00020480027009069468DF80470ADF80620ADF808E0ADF80A302069026893689847EE
:20480000B4F90C20D01C072819D3B4F90630B4F904E014490127009169468DF80470ADF8E1
:204820000620ADF808E0ADF80A30206902689368984704E0280004BFA680A4F806800A4AAE
:204840008DF8045000920022ADF806606946ADF80880ADF80A202069026813689847A8E739
:20486000545E0108685E0108405E010800BF3B4B0360416000218260C16001617047C16858
:204880000069814201D101207047002070470269C168511A0129BCBF80684118012901DC7F
:2048A000012070470020704738B50446E3682269D21A012ABCBFA0688218012A0CD965682B
:2048C0001F2205EB431002F0E6FCE068A168401C884228BF401AE06031BD01698268491CE1
:2048E000914228BF891A016170474168006901EB4010704710B50446606801680A689047B4
:2049000048B9617A39B1207A28B9216820464A6ABDE81040104710BD01680A69104770B542
:2049200004460D46606801684A6890470028F9D10B4E306801680A6F9047FFF75DFA60686F
:20494000294602689368984721682046CA6A904730680368D96EBDE870400847A05A0108B9
:2049600044AD002480B5FFF73DFABDE80140FFF73CBA38B5044601216068217202689169D6
:20498000884705462B68012B31D0022B25D0042B0BD0082B15D0202B18BF402B27D0802BCA
:2049A00018BFB3F5807F22D031BD2268297F2046936B9847204624682946226BBDE8384019
:2049C00010472368297F20469A6B9047204624682946636BBDE83440184721682046CA6B40
:2049E00090472368204629465C6BA04731BD21682046CA6B90472368204629461C6BA0471B
:204A000031BD10B50446606801680A68904738B9207A28B1606801684A699047002020724E
:204A2000606801680A68904728B923682046596ABDE810400847BDE81040FFF7E2B980B568
:204A4000406801680A689047FFE7401E8041C043C00F02BD7047704710B50446064908781A
:204A600040B122682046916A8847E36B984201D1206C10BDE06B10BD26AE0024F0B5044639
:204A800001271046002C059A069D079E4FF0010E44BF64424FF0FF37002A44BF52427F4297
:204AA000002D42FA01FC0EFA01F144BF6D427F42491E1140614334680CFB034391FBF5F26B
:204AC0000CFB0020C91805FB1211316091FBF5F3181805FB131131607843F0BDF8B5254D3A
:204AE00084B00446A8692668676800283ED0A96800EBD07203AE019001EB62010296039199
:204B000020680090EB6BEA6AE9692868FFF7B6FF03AAA969064602920191606800902B6C26
:204B20002A6B296A6868FFF7A9FF8619A869696903AB00EBD072029301EB62010190039179
:204B4000206800906B6C6A6B696AE868FFF796FF074603A8A9690290019162680092AB6C42
:204B6000AA6BA96A2869FFF789FFC7192660676005B0F0BD14AB002438B5044600202060B5
:204B800000210022E08200232086E06304F14E0061600125E26023742183E285E186228746
:204BA0000180428083808571C171204600F03AF9204632BDF8B5DFF8C4360446E08D04EB85
:204BC0004001401CA0FB03324D8B218ED20802EB8206A0EB4600E0854F1E2786204600F0EC
:204BE00086FA208B2946022804BF0120208304F1120002F056FB2846F2BDF8B50446DFF835
:204C000080562A68686812B9C30716D5A8B104EB6003C00702D51A682D685259184604F17E
:204C20001A069047E18D4CF6CD424A43D20C02EB8205A1EB450126F81100E06B00283ED05D
:204C4000E08D4CF6CD4204F11A054243D20C02EB8203A0EB430035F8100080B3204604F114
:204C60001A0600F077FAE18DDFF81036481CA0FB0332D20802EB820540F63F12A0EB45034C
:204C800036F8137097421AD14CF6CD4C04F11A0001FB0CFC4FEADC4505EB850EA1EB4E0179
:204CA00036F8111020F81310E08D4CF6CD434343DB0C03EB8305A0EB450026F81020204644
:204CC000BDE8F24076E7F8B5044617461E46FFF794FF3A68054629463846D3689847A5F5D1
:204CE00060618029306005D202463946204600F0DCF80AE094F8551041B140F60212954204
:204D000004D10146204600F0ADF83060306820B102F0D8FA401E8041C00F84F85500284692
:204D2000F2BD2DE9F843044691461E46089D099FFFF763FFD9F800C02A4680463B4641467A
:204D40004846DCF80850A847A8F560618029306005D202464946204600F0A7F80AE094F8FA
:204D6000551041B140F60212904504D10146204600F078F83060306850B1417B807A0A06EC
:204D80004CBF4FF4807100210143481E8041C00F84F855004046BDE8F28338B50546DFF8F9
:204DA000E4441DE000222A742068296803681A6B90476968088880B3022829D1881CAA68C0
:204DC00068602068AA6052F8041BAA600268136B98470028E8601FBF008800280121297482
:204DE000686830B92968C1B120680268136B98476860287C0028DCD0E86800281CBF00888D
:204E00000028CFD0E968891CE96031F8020D32BD881C6860801E008832BD002032BD8260F3
:204E20000160C36310B5044600206060E0602074208620832087204600F059F9DFF848343D
:204E40001968586811B9C2070BD550B104EB6002C00702D511681B68C9581046BDE8104046
:204E6000084710BD70B5044691B104F140000E22FDF7AAFD04F14601CD7908782E074CBF23
:204E80004FF48072002202435242CA7004F14001084670BD104610B502680C461946D36886
:204EA000984700B10446204610BD2DE9F04714008046894608F12E0605D10020B2843084E2
:204EC0007084BDE8F087B4F804A008F1400021460E22FDF779FDF07F40F63162C706707E45
:204EE0004CBF4FF4807700270743FD10BAEB020108D0C91E032905D9091F022929D90F39E1
:204F0000072931D830884CF6CD4440F633614443E40C04EB840CA0EB4C0008EB4000428BB6
:204F20008A4207D1D9F800304846DC68A04702F0D3F93084308CEF193F1808F14000378492
:204F4000B6F9201002F0D9F9F17EB08C091AF1766CE0718C08F14000491B09B202F0CDF920
:204F6000708CC71B7F1B60E040F61B618A451FBF40F61D62924540F61F6082451DD1AAF189
:204F800001039BB24A4621464046FFF783FF02F0A3F93084F07F327F01064CBF4FF4807123
:204FA0000021114300064CBF4FF4807000200243520902EB9102B28432E008F1400002F085
:204FC0008BF9308440F6096082451FBF40F613618A4540F61962924520D1F07F4A4601065D
:204FE000307F40F613614CBF4FF48075002505438A45214640460CBF40F60C63AAF10103DD
:205000009BB2FFF747FF417B807A0A064CBF4FF48071002101436D1AB58401E00021B184A6
:2050200008F1400002F058F9C71B778408F14000BDE8F08791422DE9F041064614461D469F
:205040002AD2601A80B2012826DB328EF38DDFF82CC206F11A08521E328692B2D218F38E89
:20506000A2FB0CC7B6F838C0FF0807EB870EA2EB4E025F1E07F001070CF1010C401E38F89B
:205080001220F78696F83630A6F838C003F0010306EB43077A86D8D106F11A0002F048F9B8
:2050A000200021D0641EA1B235F81100F18D734B06F11A0C0931A1FB0332D20802EB820718
:2050C0004CF6CD43A1EB4701F185318E491C3186F18D4B43DB0C03EB8307A1EB47012CF8F6
:2050E0001100A0B20028DDD13046BDE8F04170B504461CE0E08EE38D04EB40025F4D401CA9
:2051000000F00100518EE086208F421E208E2287C01804F11A03A0FB0552D20802EB8206C8
:20512000A0EB460023F81010208E401C2086218E0A290ED0208F0028DCD1218E0A2908D0B5
:205140002046FFF72AFE014604F11A0002F004F9F3E770BD2DE9F84305460A24EE6B77885D
:20516000E88D4CF6CD4E32467908641E00FB0EFE4FEADE4E0EEB8E08A0EB480005EB4009DB
:205180002846B9F81A80434600F080F848B106EB40014246284600F006F8002818BF002C2B
:2051A000DED1BDE8F1832DE9FC4B8046914618E02009270A00F00F0007F00F078346009076
:2051C0003B4632462946404604F00F0400F020F890B905EB460505EB470000EB4B0101EBF4
:2051E00044010D4635F8024B260B35F816004845DED00020BDE8F68BBE195E4405EB4603F6
:20520000404639462246FFF715FF0120BDE8F68B2DE9F041140010D0541EC68A31F8028B1D
:2052200016FA84F606F0010600EB4607B7F812C0E0451CD1641E521EEFD1069A0024C68D53
:20524000D218A3B2934215DA9B19DFF830C0A3FB0CC731F8028BFF0807EB870EA3EB4E033C
:2052600000EB43035D8BA84508BF641CE9D00020BDE8F0810120BDE8F0810000CDCCCCCC8A
:2052800068AD002444AD002460AD0024F0B415880020AB4222BF02EB810636F8047C9F425D
:2052A00004D20020F0BC7047601C80B28842F8DA0C1804EBD474641032F824509D42F3DB31
:2052C00018BFA1B2F2D102EB84004088F0BC704770B50446049D0598002626806072E560B5
:2052E000E0686160237222826682A682E68226836683A683A67701684A699047050023D031
:20530000E06829460268D36898470646707B0106B07A4CBF4FF4807100210143A183617A47
:20532000042911D1E068294632460368DD6BA847717BA38B0A06B17A4CBF4FF480720022D6
:205340000A431018C318A383204670BD70B504460D462DED028B6968EB6A6869AA6AC91AED
:205360009FEDB48A801A02F00DF80646A969E86AAA6A091A2868801A02F004F8B7EE001A14
:20538000361AD5ED021A81EE211A84ED001A95ED032A22EE012A84ED032AD5ED042A62EEE2
:2053A000812AC4ED062AF7EE001A95ED072AC1EE821AC4ED011AD5ED082A62EEA12AC4EDD8
:2053C000042A95ED092A22EE212A84ED072AB7EE003AD5ED0C2A83EE222A84ED022AD5EDFA
:2053E0000D3A63EE823AC4ED053AD5ED0E2A62EE822AC4ED082AE86A6968AA6932EE411ADF
:2054000071EEC21A091A101A03EE101AB8EEC33A02EE100A23EE083AB8EEC22A21EE833A8B
:2054200022EE082A01EE023A00EE106AB8EEC00AD4ED021A94ED012A20EE080AF7EE000A8F
:2054400032EE612AC0EE800A23EE201A84ED091AA86A29686A6994ED003A71EEC31A091AFA
:20546000101A02EE901AF8EEE22A03EE900A62EE882AF8EEE33A62EE222A63EE883AB1EE98
:20548000600A41EEA32A62EE801AC4ED0A1AE86A6968AA6994ED052AD4ED042A091A72EE8F
:2054A000C22A03EE101A101AB8EEC33A23EE083A22EE833A02EE900AD4ED033AF8EEE22A7E
:2054C00032EE632A62EE882A02EE223A23EE202A84ED0B2AA86A29686A69D4ED052A94EDE9
:2054E000043A091A33EE623A03EE901A101AF8EEE33A63EE883A94ED034A63EE233A72EED7
:20550000C42A04EE900AF8EEE44A64EE884A42EEA43A63EE802AC4ED0C2AE86A6968AA69B3
:2055200094ED083AD4ED073A091A73EEC33A04EE101A101AB8EEC44A24EE084A23EE844AE8
:2055400003EE900AD4ED064AF8EEE33A33EE643A63EE883A03EE234A64EE200AC4ED0D0A38
:20556000A86A29686A6994ED083AD4ED073A091A101A04EE101AB8EEC44A05EE100A73EE65
:20558000C33A24EE084AD4ED064AB8EEC55A23EE844A33EE643A25EE085A03EE054A24EE6F
:2055A000000A84ED0E0AD4ED003A94ED033A22EE232A03EE412AB5EE402AF1EE10FA0DDC07
:2055C000B5EE402AF1EE10FA0BD422EEA32A03EE612AB5EE402AF1EE10FA02DB4FF4004047
:2055E00001E047F6FF70E063D4ED002A94ED062A60EEA20A42EE410AF5EE400AF1EE10FAB4
:205600000DDCF5EE400AF1EE10FA0BD420EE220A02EE610AB5EE400AF1EE10FA02DB4FF421
:20562000004001E047F6FF7020642046BDEC028B70BD00000000803D2DE9F84F8946984689
:2056400008EB8801154604460A9F4FEA810A05EB0A06706801F0D3FE07EB870160612A1DA0
:205660008F00D05901F0CBFE01466069091AA16100F08C8055F80AE0291DCA59EF597168C6
:20568000D6F804C004F11003A7EB0E077843A2EB0C0C4FEA0C1B2246000101FB17010EFB83
:2056A0000C1E5946DE44AEF1010001F0BAFE04F10803221D5946380101F0B3FEC4F80CB085
:2056C000716860692268C1EB001155F80A009FED310AC0EB0210D9ED0A1A00EE901AF8EE9E
:2056E000E00A01EE100A09EB880060EE800AB8EEC11A21EE000A90ED002A00EEA12A99EDE3
:20570000091A00EE012A84ED072AD4ED011AB8EEE11A99ED092AD9ED0A2A41EE022AC4ED6F
:20572000082AD9F824106162D9ED0C1A90ED032A09F1180100EEA12A01EB8802D9ED0B2A9C
:2057400000EE222A84ED0A2AD9ED0B1A99ED0C2A01EE212A84ED0B2AD9F82C002063D9ED9D
:205760000E1A92ED002A00EEA12AD9ED0D0A00EE202A84ED0D2A99ED0D0AD9ED0E1A41EE28
:20578000001AC4ED0E1AD9F83400E0632046BDE8F28F00000000803D10B401460B68486857
:2057A000C3180B604A690C69886991ED0A0A521CD1ED0B0A4A618A6891ED0D1A401ED1ED59
:2057C0000E1A88611419CA6891ED072A30EE200A944271EE210A91ED081A32EE011A81EDB9
:2057E0000A0AC1ED0D0A81ED071A14DB5B1CA41A0B60D1ED091A31EE211A81ED071A91ED6A
:205800000C2A91ED0F1A30EE020A70EE810A81ED0A0AC1ED0D0A0C6110BC704738B5040070
:205820000D4600F088FA2168E26B206C42438818A0600020A063206860602168E26B521E6B
:20584000206C42438818E0604FF0FF3084F8440084F845003DB9206968B100F05BFA50B18A
:2058600000F0AAF907E004F1100001F0F4FD04F1240001F0F0FD01F0D2FE012032BDF8B552
:2058800006000D46174600F049FA002D0EBF502005FB06F0503001F041FF040007D000949F
:2058A0003B4604F150022946304600F002F82046F2BD38B51C46049D01B92A462A60E8634D
:2058C000296401212846FFF7A9FF85F84C4031BDF7B505460E461F46002415B900F076F915
:2058E000FEE70EB9286C60B9022F02D1E86B01280AD100F014FEB0B90298A0B100F066F94F
:20590000FEE700F063F9FEE700F060F9FEE7029905F1100000F0D7FC00F0FAF900F099FB78
:2059200008B900F049F901F05DFEA86BE96B884235D3022F33D0029800282DD014B900F03F
:20594000E2F9012401F06BFE00F07DFB01F04AFE95F9440010F1010F04BF002085F84400C5
:2059600095F9450010F1010F04BF002085F8450001F055FE00F028F8002828461ED100F0D5
:2059800077FA0028C3D100F0C3F900F062FBCAE708B100F011F923E101F041FE12E03A46D7
:2059A0003146284600F0E1F9696A0029F0D005F1240000F0B0FC0028EBD1ECE700F01FFA06
:2059C00000F047FB0020FEBD02A9684600F0F8BC2DE9F84304000E4615461F4600F09EF9CD
:2059E0000EB9206C10BB022F02D1E06B012820D101F040FEEFF3118800F060F801D3022F29
:205A000020D194F945903A463146204600F0ADF919F1010F10D1606A90B100F04BF80028DF
:205A200018BF002D0CD00120286009E000F0CEF8FEE700F0CBF8FEE709F1010084F8450005
:205A4000012000E0002088F31188BDE8F28370B504000D4600F062F9206C10B100F0B6F845
:205A6000FEE7206808B9A068C0B901F003FEEFF3118600F023F819D294F94510401CA063D5
:205A800011F1010F0DD1606A70B100F013F8002818BF002D08D00120286005E000F096F820
:205AA000FEE7491C84F84510012000E0002086F3118870BD04F1240000F02DBC72B65020E1
:205AC00080F31188BFF34F8FBFF36F8F62B6A06BE16B88427047F7B506460F46002416B94A
:205AE00000F074F8FEE70FB9306C38B900F017FD58B9029848B100F069F8FEE700F066F8E4
:205B0000FEE700F003F900F0A4FA01F06BFDB56B25B9029890B901F082FD4BE0394630465C
:205B200000F05BF96D1EB563306930B106F1100000F0F1FB08B100F03FF851E014B900F053
:205B4000E2F8012401F06BFD00F07DFA01F04AFD96F9440010F1010F04BF002086F84400C5
:205B600096F9450010F1010F04BF002086F8450001F055FDFFF728FF0028304611D100F0CA
:205B80006CF90028BDD0029906F1240000F09BFB00F0BCF800F05DFA0028B6D100F00CF821
:205BA000B3E700F02CF900F054FA304600F055F90028AAD00020FEBD4FF08050DFF8C81207
:205BC0000860BFF34F8FBFF36F8F704772B6502080F31188BFF34F8FBFF36F8F62B67047B3
:205BE00001F01DFD0120FEBD73B582B006460024002516B9FFF7EAFFFEE7306C10B1FFF7E9
:205C0000E5FFFEE700F08BFC40B9039830B1FFF7DDFFFEE700F07AF800F01BFA01F0E2FCE2
:205C2000B06B30B90398C0B9002D67D0FFF7CEFFFEE7401EB063306810B900F047FDB0602A
:205C4000306930B106F1100000F065FB08B1FFF7B3FF01F0E4FC012053E014B900F053F8E5
:205C6000012401F0DCFC00F0EEF901F0BBFC96F9440010F1010F04BF002086F8440096F99F
:205C8000450010F1010F04BF002086F8450001F0C6FC03A9FFF799FE002830461BD100F0A2
:205CA000DCF80028B6D0306838B901F09BFCB06800F048FC054601F0B2FC039906F1240064
:205CC00000F001FB00F022F800F0C3F90028A5D1FFF772FFA2E700F092F800F0BAF9304601
:205CE00000F0BBF8002899D055B101F07BFC304600F032F80146B06800F097FC01F08FFC14
:205D0000002004B070BD684600F051BB304676E0284674E004F1100000F0FDBA09D172B69C
:205D2000502080F31188BFF34F8FBFF36F8F62B6FEE77047040009D172B6502080F3118871
:205D4000BFF34F8FBFF36F8F62B6FEE701F04ABC01F065FC204610BD416A21B1006B00683A
:205D6000C0F10700704700207047F8B5064615460027B46B306C40B9306850BBB06800F003
:205D800023FC07460020B06023E0002D02460CD17068FCF719FE7068316C08447060B16886
:205DA000884216D33068706013E0F068FCF70CFEF068316C49420844F0603168884204D22B
:205DC000B068316C49420844F060022D01D104B1641E641CB4633846F2BD0B46016C69B113
:205DE000C168026C1144C1608268914224BF0168C160026CC1681846FCF7E6BD704770B505
:205E0000044601F0EFFB94F9455068B2012811DB606A78B1FFF74EFE08B100F0FDFA6D1EAC
:205E2000F3E7206998B1FFF775FF08B100F0F4FA761E09E04FF0FF3584F8455001F0EFFBD9
:205E400001F0D0FB94F9446070B20128E9DA84F84450BDE8704001F0E2BB10B5044601F054
:205E6000C1FBA06B441EA44101F0D9FBE00F10BD10B5044601F0B6FBA06BE16B88420CBFF6
:205E80000124002464E7000004ED00E001480068704700BF44AD00242DE9F84384B007468F
:205EA000884616469946B00001F038FC05001AD0602001F033FC040012D00D990C982563BD
:205EC000002203920294019100904B4632464146384600F00DF8204600F052F8012004E0AB
:205EE000284601F089FC4FF0FF3005B0BDE8F0832DE9F84380460D46164699460A9CA52271
:205F0000B100206B01F008FD206B00EB8600061FF608F60006F007006DB10021685C6218C0
:205F200082F83400685C10B1491C1029F6D3002084F8430001E084F83400089F072F28BF93
:205F40000627099DE762E7642065201D01F090FA04F1180001F08CFA2461C7F10707A761C6
:205F6000646200206065A06584F85C004A464146304601F0C5FA206005B12C60BDE8F18381
:205F800038B500F02DF8DFF854150868401C0860DFF84C55286830B92C60086801280CD198
:205FA00000F057FA09E0DFF81C06006828B9E06A2968C96A884228BF2C6000F019F9616463
:205FC00000F0DCF901F02BFBDFF8F805006830B12868C06AE16A884201D200F08FF831BDC1
:205FE000044601F0FFBAE0B5DFF8280701900020009000238022DFF820170FF22940FFF79E
:020000040800F2
:206000004BFF012819D100F06FF94FF0FF30DFF80C1708600120DFF8AC1508600020DFF8E3
:20602000001708600021DFF8B804006800F001F9BDE8074001F090BA07BD10F1010FFBD113
:2060400000F052F9FEE7DFF850060168491C0160704770B500240025DFF83C66306800F09E
:206060004EF901F0BFFA3068401E30603068002836D1DFF868040068B8B931E0C868C46859
:2060800000F046F800F08BF900F02CF8E36A9A4011430160211DDFF84C06E26A00F0A3F830
:2060A00000F025F801D300F07DF9DFF8641608680028E3D10CB100F023FADFF870663468E9
:2060C0003CB100F029F808B100F06CF9641EF8D13560DFF87C06006810B1012500F00EF836
:2060E00000F002BBDFF81006016801227047E06ADFF8EC130968C96A884270474FF080506F
:20610000DFF808160860BFF34F8FBFF36F8F704704F1180001F0D4B9F8B5002600F01AF9CA
:20612000002855D1DFF8F8050468641C046010D1DFF80414086800F061F80868DFF8FC23FE
:2061400013680B601060DFF8840600F053F800F0D7F9DFF8C8753868844229D31CE0281DD6
:2061600001F0AEF9A86A18B105F1180001F0A8F9FFF7B8FFEB6A9A4011430160291DDFF85E
:206180006405EA6A00F02FF8E86ADFF854130968C96A884228BF0126DFF89C1308680068C1
:2061A00098B10868C068C56868688442D7D23860DFF82C030068DFF82C15C26A142042438F
:2061C0008858022808D3012606E04FF0FF30EEE7DFF8580500F00EF8DFF87405006800B1F7
:2061E00001263046F2BD14235A43104401F043B9DFF8DC050168491C01607047006848B13F
:2062000072B6502080F31188BFF34F8FBFF36F8F62B6FEE7704738B504000D4604BFDFF808
:20622000C002046801F0DEF96565BDE8314001F0F6B90200084604BFDFF8A4120A68516D18
:20624000002918BF08470020704710B500F082F810B100F0A7F810BDDFF8F4140860DFF8AE
:20626000804201212068FFF7E4FF2068006B21680968884205D3206800F134012068FDF720
:2062800002FEDFF874040068B0FA80F1C1F11F011422DFF8503402FB01F0185800F02FF854
:2062A0005143581841684968416000F10802914204BF496841604068C06820600021206803
:2062C000BDE81040B5E710B50C4600F018F8DFF8F4140968183101F0DAF8FFE7012120464C
:2062E000BDE8104000F036BA72B6502080F31188BFF34F8FBFF36F8F62B67047206D48B988
:2063000072B6502080F31188BFF34F8FBFF36F8F62B6FEE7704710B5C068C46814B9FFF709
:20632000E3FFFEE7FFF7F4FE00F014F820B900F036F800F013F801E000F0F4F901F09BF87E
:2063400000F0DCF904D20120DFF80424106010BD002010BDDFF8400300687047DFF898139D
:206360000A680123E06A83401A430A60211DDFF87423E36A14204343D0187047DFF87813FF
:206380000A680123E06A83401A430A60211DDFF85423E36A14204343D01801F06CB8201DC6
:2063A00001F08EB80120DFF8A81308607047DFF81C1409680160DFF808140968416070473F
:2063C00038B500F0B7F915B9FFF78EFFFEE701F009F9DFF84C0300686168411A2A6812F1C0
:2063E000010F10D0DFF8E423126823689A4202D0626890420BD22868814206D2411A296094
:206400002046FFF7D4FF002402E000202860012401F005F9204632BD0120DFF8B81308600B
:206420007047000080B500F03AF8DFF8B8020068022800F003F8FDF728FDF4E708D34FF032
:206440008050DFF8C8120860BFF34F8FBFF36F8F704738B50024DFF88C02142161430844C1
:2064600000F0F9FF641C072CF5D3DFF86C43204600F0F1FFDFF86453284600F0ECFFDFF83F
:20648000900200F0E8FF174800F0E5FF2C4800F0E2FF29480460DFF84803056031BD38B5E4
:2064A000114C11E001F09EF80E48C068C568281D01F006F800F00CF82068401E206001F0DD
:2064C000AEF8284600F012F820680028EAD131BD02480168491E016070470000C8AD00248A
:2064E000B8AD002410AD0024C4AD002410B50446206B01F081F92046BDE8104001F07CB917
:206500000D490868006810B94FF0FF3003E00868C068C0684068DFF804120860704729484E
:20652000006808B9012070477248006808B902207047002070470000BCAD0024C0AD0024A9
:2065400024AD0024F8B504460020002C34D0DFF87472E16A3A68D26A914227D2A06900281C
:2065600004D43868C06AC0F10700A0615D4D1426606971432944884214D1FFF710FF002816
:2065800001BFE06A70432858002800F095F83868C06AE06200F011F8834000F07FF800F0FA
:2065A0006AFF08E03868C06AE06204E0E16C3A68D26A914200D20120F2BDDFF828120A6877
:2065C00001237047D4AD002410B504460021002C24D000F025F802D0FFF786FEFEE7FFF7B7
:2065E0008DFE401E2065E06AE26C904216D0206DA0B9FFF7D4FE48B93A49E26A14204243A6
:20660000885818B900F051F89A430A60E06CE062C0F10700A061FFF7B1FE0121084610BD20
:20662000DFF8A00100688442704770B5040032D0FFF764FEE06C814238BF0146E06A884219
:2066400029D0206D012826D1FFF7EAFF02D1FFF74BFEFEE7E06AE162A269002A5CBFC1F12F
:206660000701A1611F4D1426616970432844814211D1FFF794FE002801BFE06A70432858EF
:20668000002800F019F800F010F800F007F8BDE8704000F0F0BE70BDF0AD00241A430A6042
:2066A000211DE06A4643A8197047DFF838110A680123E06A8340704707D1DFF828110A687D
:2066C0000123E06A83409A430A607047DFF8F410086818B10868026D521C0265086870479C
:2066E00000000000C4A7002400F099FF284670BD00000000F0AD0024D0AD002431480068A5
:20670000C06AE16A884270470000000004ED00E0FCAC0024ECAD0024FC5F0108E8AD00240C
:20672000CCAD002404F1180101487047D8AD0024FCAC002404000D4609D172B6502080F3FD
:206740001188BFF34F8FBFF36F8F62B6FEE77047DCAD0024F8B505460C4619480668194F7E
:206760003868001D00F0ACFE30B93868FFF725FFC06A83409A430A6015F1010F07D134B118
:206780003868011D1048BDE8F44000F074BEAD1938684560B542386806D2011D1048006890
:2067A000BDE8F44000F073BE011D0F48006800F06EFE0E4801688D4238BF0560F1BD00000E
:2067C000CCAD0024B8AD002424AD0024E0AD0024E4AD0024DCAD0024D4AC0024E8AC00242F
:2067E000C0AD0024D0AD0024BCAD0024E8AD0024F8B586B004460025200018BF012C07D1D3
:206800004548016841F00401016000F079F801E06FF00105012002900390022004903F4EBB
:20682000204656F8200001903D4F01A9204657F8200001F09BF80122204656F8201089B222
:2068400057F8240001F00BFA284607B0F0BD80B5002201E080B501223049034651F823102F
:2068600089B22F4B53F8200001F0F9F9002002BD38B586B004462848026842F00402026055
:2068800000F03EF82748224630F81200019002200390049041B90020029001A9224850F8DF
:2068A000240001F063F828E02048029001A91E4850F8220001F05AF81D4D1E48214650F82A
:2068C000211005EBC40001F0F3F91B48214650F82120002105EBC40001F0E2F9174D00227C
:2068E0001748214650F82110204635F9100001F05EFA35F9140001F069FA002007B030BD12
:20690000006800F00400009000987047084901EBC00001F0D3B90000E0440258F45F0108E8
