:020000040800F2
:1000000000000524BD770008538A0008618A0008B3
:10001000698A0008718A0008798A000800000000D7
:10002000000000000000000000000000818A0008BD
:100030008F8A0008000000009D8A0008AB8A000833
:10004000117800081178000811780008117800086C
:10005000117800081178000811780008117800085C
:10006000C58A000811780008117800081178000886
:10007000117800081178000811780008117800083C
:10008000117800081178000811780008117800082C
:10009000117800081178000811780008D38A000848
:1000A000117800081178000811780008117800080C
:1000B00011780008117800081178000811780008FC
:1000C00011780008117800081178000811780008EC
:1000D00011780008117800081178000811780008DC
:1000E000E18A00081178000800000000117800087B
:1000F00011780008117800081178000811780008BC
:1001000011780008B78A00081178000811780008F3
:10011000117800081178000811780008117800089B
:10012000EF8A000811780008FF8A00080F8B00088A
:100130001F8B00081178000811780008117800085A
:1001400000000000000000000000000000000000AF
:10015000117800082F8B00083D8B000811780008EB
:10016000117800081178000811780008117800084B
:10017000117800081178000811780008117800083B
:10018000117800081178000811780008117800082B
:10019000117800081178000811780008117800081B
:1001A000117800081178000811780008000000009C
:1001B00011780008117800081178000811780008FB
:1001C000117800081178000800000000000000000D
:1001D000000000000000000011780008000000008E
:1001E000000000000000000000000000000000000F
:1001F00000000000000000001178000811780008DD
:10020000117800081178000800000000117800083B
:10021000117800081178000811780008117800089A
:1002200011780008000000001178000800000000AC
:10023000117800081178000800000000117800080B
:10024000117800081178000811780008117800086A
:10025000117800081178000811780008117800085A
:10026000117800081178000811780008117800084A
:1002700011780008117800081178000800000000CB
:10028000117800081178000811780008117800082A
:1002900000000000117800081178000811780008AB
:1002A000117800081178000811780008117800080A
:1002B00011780008117800081178000811780008FA
:0C02C0001178000811780008117800087F
:1002D00010B5054C237833B9044B13B10448AFF380
:1002E00000800123237010BDA00000240000000046
:1002F000609B000808B5034B1BB103490348AFF3EB
:10030000008008BD00000000A4000024609B0008DD
:1003100001F0FF01102A2BDB10F0070F08D010F8B6
:10032000013B013A8B422DD010F0070F42B3F6D1BA
:10033000F0B441EA012141EA014122F007047FF0D3
:1003400000070023F0E80256083C85EA010586EA2A
:10035000010685FA47F5A3FA87F586FA47F6A5FA66
:1003600087F68EB9EED1F0BC01F0FF0102F0070272
:1003700032B110F8013B013A83EA010313B1F8D11D
:100380000020704701387047002D06BF35460338FE
:10039000073815F0010F07D1013015F4807F02BF37
:1003A000013015F4C03F0130F0BC0138704700BF88
:1003B00080B58AB000AF786000237B614FF4405372
:1003C000FB610023BB614FF000537B6201233B6262
:1003D00007F1140341F288321946786804F0EEF808
:1003E0000346002B02D04FF0FF330EE00023FB60EA
:1003F00007F10C031946786804F058FA0346002BFD
:1004000002D04FF0FF3300E0002318462837BD46E6
:1004100080BD80B588B000AF786039604FF08073E0
:10042000FB604FF440537B614FF480533B614FF0CE
:100430000053FB610223BB6107F10C0341F28832D8
:100440001946786804F0BAF80346002B02D04FF042
:10045000FF330CE041F288323968786804F082F9A1
:100460000346002B02D04FF0FF3300E00023184674
:100470002037BD4680BD80B58EB000AFF8607A6091
:100480003B600B467B810323BB623B68FB6202231C
:100490003B637B687B6307F1280341F2883219468E
:1004A000F86804F04CF80346002B02D04FF0FF33FD
:1004B0003AE04FF080737B614FF44053FB614FF49F
:1004C0008053BB614FF000537B6202233B6207F114
:1004D000140341F288321946F86804F06FF80346B5
:1004E000002B02D04FF0FF331EE007F10A0341F268
:1004F00088321946F86804F0C2F80346002B02D08F
:100500004FF0FF3310E000233B6307F1280341F273
:1005100088321946F86804F012F80346002B02D01E
:100520004FF0FF3300E0002318463837BD4680BD4A
:1005300080B58AB000AF0346FB7100237B62FB7974
:10054000002B0FD1264BD3F8E030254A43F00403AB
:10055000C2F8E030224BD3F8E03003F00403FB6034
:10056000FB6815E0FB79012B0FD11D4BD3F8E03070
:100570001B4A43F00403C2F8E030194BD3F8E030D3
:1005800003F00403BB60BB6802E06FF001037B6211
:1005900001237B610123BB610223FB61FB79114ACB
:1005A00052F823303B61FB790F4A52F8233007F1B0
:1005B00010021146184603F0CBF9FB790A4A52F8AB
:1005C0002300FB79074A52F823309BB201221946D7
:1005D00003F066FB7B6A18462837BD4680BD00BF26
:1005E00000440258A89B00080000002480B588B091
:1005F00000AF03460A46FB711346BB712E4BD3F87E
:10060000E0302D4A43F00403C2F8E0302A4BD3F81F
:10061000E03003F00403BB60BB684FF40053FB60A1
:1006200002237B610223BB61BB79002B0CD1002329
:100630003B61FB79214A52F8233007F10C02114645
:10064000184603F085F931E04FF488133B61FB79DC
:100650001A4A52F8233007F10C021146184603F0EB
:1006600077F9FB79DB00164A1A44FB79154951F8F2
:1006700023301946104603F026F9FB79DB00104AB7
:100680009818FB79104A52F823301A46002103F0DB
:10069000FBF82820FB790D4A52F823300022194636
:1006A00001F045FE2823184601F05BFE00231846A2
:1006B0002037BD4680BD00BF00440258080000241A
:1006C000BC000024B09B00080C0000241000002493
:1006D00080B582B000AF0346FB71FB79DB00044AB2
:1006E0001344184603F004F900BF0837BD4680BD27
:1006F000BC00002480B500AF002007F0CBF900BF9C
:1007000080BD000080B582B000AF7860044BD3F8A4
:100710008030184601F0B8FE00BF0837BD4680BDE6
:10072000C400002480B586B000AF786039607B6873
:10073000002B02D13B68102B0BD07B68002B02D121
:100740003B68002B05D07B68012B0ED13B68102B3A
:100750000BD11A4A7B68982101FB03F313448433BD
:100760001B68184601F090FE24E07B68022B21D123
:100770003B680F2B1ED93B68802B1BD83B683B6125
:100780003B6993FAA3F3FB60FB687B617B69002BF9
:1007900001D1202303E07B69B3FA83F3DBB2043B8E
:1007A000074A542101FB03F3134428331B681846FE
:1007B00001F06AFE00BF1837BD4680BDAC020024C0
:1007C0005C01002480B584B002AF786039604FF4DA
:1007D000887300934FF4F07301223968786800F051
:1007E00005F8034618460837BD4680BD80B58EB073
:1007F00000AFF860B9607A603B6000237B63BB6840
:10080000012B02D8FB68002B03D06FF001037B6340
:10081000A2E07B68022B05D102233B63514B0222ED
:100820001A6005E000233B634E4B04221A6000BFB0
:100830004D49FA6813465B001344DB000B440C334C
:100840007A681A604849FA6813465B001344DB0073
:100850000B443A681A604449FA6813465B00134433
:10086000DB000B4404333A6C1A60404B404A1A6078
:10087000404B414A1A603D4800F056FD00224FF4BB
:1008800000513E4803F00CFA01224FF480613C48CD
:1008900003F006FA01224FF400413A4803F000FA4F
:1008A000344800F093FE314800F0FCF80346002B7A
:1008B00003D06FF003037B630AE03A6C39682B487E
:1008C00000F062F80346002B02D06FF003037B6355
:1008D0007B6B002B40D101233B7501237B750323E8
:1008E000BB7507F114031946002000F09DFE034676
:1008F000002B03D04FF0FF337B632DE0002000F08E
:1009000087FF0346002B03D06FF003037B6323E0D4
:100910000023BB613B68FB6100233B623B6C7B6255
:100920003B6BBB624FF0E043FB6207F118031A46D2
:1009300000210E4800F074F80346002B02D06FF03F
:1009400003037B630849FA6813465B001344DB002A
:100950000B44143301221A607B6B18463837BD46AE
:1009600080BD00BFDC030024F00400244804002400
:1009700000100050E0030024001000520010025844
:10098000000C02580018025880B584B000AFF8601F
:10099000B9607A60FB68214A1A60FB6800225A60DD
:1009A000FB6800229A60FB680022DA60FB68002284
:1009B0001A61FB6828225A61FB682A22DA61BB6847
:1009C00003F13502FB685A62BB6803F14A02FB6817
:1009D000DA62FB6809229A61FB680B221A627B6863
:1009E00003F10B02FB689A627B6803F10D02FB685E
:1009F0001A63FB68FF2283F83420FB68FF2283F828
:100A00003520FB68FF2283F83620F86803F061F98F
:100A1000034618461037BD4680BD00BF0010005089
:100A200080B592B000AFF860B9607A607B681B68EF
:100A30007B617B685B68BB617B689B68FB617B68F3
:100A4000DB683B627B681B697B62FF23BB62002320
:100A5000FB624FF4C0633B6307237B637B685B6986
:100A6000BB637B685A687B681B68D31AFB637B682F
:100A7000DA687B689B68D31A3B64002387F84430AC
:100A8000002387F84530002387F8463007F1140328
:100A9000BA681946F86803F0C3F9034618464837A0
:100AA000BD4680BD80B5B0B000AF78604FF0005259
:100AB0004FF00003C7E9022305233B63A0237B63B8
:100AC0000223BB630223FB6353233B640023FB64C9
:100AD0000023BB6400237B6407F10803184604F07D
:100AE000EDFE03461846C037BD4680BD80B485B0D4
:100AF00000AF786039600023FB607B68002B03D077
:100B00006FF00103FB600AE008497A6813465B0056
:100B10001344DB000B440C331A683B681A60FB6813
:100B200018461437BD465DF8047B7047F004002476
:100B300080B485B000AF786039600023FB607B68CB
:100B4000002B03D06FF00103FB6009E008497A68CD
:100B500013465B001344DB000B4408333A681A6009
:100B6000FB6818461437BD465DF8047B704700BF2C
:100B7000F004002480B485B000AF786039600023B1
:100B8000FB607B68002B03D06FF00103FB6009E082
:100B900008497A6813465B001344DB000B441A686B
:100BA0003B681A60FB6818461437BD465DF8047B45
:100BB000704700BFF004002480B485B000AF7860B7
:100BC00039600023FB607B68002B03D06FF00103CA
:100BD000FB600AE008497A6813465B001344DB00B7
:100BE0000B4404331A683B681A60FB6818461437D4
:100BF000BD465DF8047B7047F004002480B58EB0DC
:100C000002AFF860B9607A603B600023FB613B682B
:100C10000A331B781A463B680B331B781B021A44B5
:100C20003B680C331B781B041A443B680D331B785C
:100C30001B061344FB623B6812331B781A463B6861
:100C400013331B781B021A443B6814331B781B04B4
:100C50001A443B6815331B781B061344BB613B6881
:100C600016331B781A463B6817331B781B021A444D
:100C70003B6818331B781B041A443B6819331B78F4
:100C80001B0613447B613B681C331B781A463B6888
:100C90001D331B781B0213443B613849FA68134625
:100CA0005B001344DB000B4408331B68344A3421D7
:100CB00001FB03F313445C3319683048FA681346A8
:100CC0005B001344DB0003441B687A6803FB02F2F9
:100CD000BB6813442B4A126802FB03F30B44BB624C
:100CE0003B69203B072B02D800237B6208E03B696D
:100CF000103B072B02D802237B6201E001237B62B9
:100D00007B69013BBA6902FB03F33A69D20803FB32
:100D100002F2FB6A13443A6813443B620023FB620D
:100D200022E0BA6A7B6A0093BB69396AF86800F00E
:100D3000A3FA1249FA6813465B001344DB000B4424
:100D40001B68104A126802FB03F3BA6A1344BB62C1
:100D50003B69DB08BA6902FB03F35B423A6A13445E
:100D60003B62FB6A0133FB62FA6A7B699A42D8D321
:100D7000FB6918463037BD4680BD00BFF004002433
:100D800048040024DC03002480B588B000AFF8607C
:100D9000B9607A603B600023FB612EE00023BB61F9
:100DA00024E03B681B781A463B6801331B781B0222
:100DB0001A433B6802331B781B041A433B68033316
:100DC0001B781B0613437B61BA68BB69D1187A682C
:100DD000FB691A447B69F86800F076F90B4B1B68D5
:100DE0003A6813443B60BB690133BB61BA69BB6AB3
:100DF0009A42D6D3FB690133FB61FA69FB6A9A42D6
:100E0000CCD3002318462037BD4680BDDC03002428
:100E100080B58AB004AFF860B9607A603B601E4963
:100E2000FA6813465B001344DB000B4408331B686D
:100E30001A4A342101FB03F313445C331968164842
:100E4000FA6813465B001344DB0003441B687A68AE
:100E500003FB02F2BB681344114A126802FB03F35E
:100E60000B447B610C49FA6813465B001344DB00BA
:100E70000B44083319687A693B6A02930023019393
:100E8000012300933B68F86800F088F900231846B6
:100E90001837BD4680BD00BFF0040024480400247C
:100EA000DC03002490B58BB004AFF860B9607A60C1
:100EB0003B602249FA6813465B001344DB000B4495
:100EC00008331B681E4A342101FB03F313445C33CF
:100ED00019681A48FA6813465B001344DB000344A0
:100EE0001B687A6803FB02F2BB681344154A126858
:100EF00002FB03F30B447B611049FA6813465B0065
:100F00001344DB000B440833196878690B4CFA680A
:100F100013465B001344DB0023441B68013BBA6AA1
:100F2000029201933B68009301230246F86800F0A7
:100F300035F9002318461C37BD4690BDF004002447
:100F400048040024DC03002490B58BB004AFF860A3
:100F5000B9607A603B602349FA6813465B0013442A
:100F6000DB000B4408331B681F4A342101FB03F3E9
:100F700013445C3319681B48FA6813465B0013443A
:100F8000DB0003441B687A6803FB02F2BB6813446E
:100F9000164A126802FB03F30B447B611149FA689D
:100FA00013465B001344DB000B440833196878696F
:100FB0000C4CFA6813465B001344DB0023441A68A8
:100FC0003B68D31AFA6A02920193BB6A00933B68AA
:100FD0000246F86800F0E2F8002318461C37BD46C8
:100FE00090BD00BFF004002448040024DC0300246A
:100FF00080B485B000AFF860B9607A603B6030497A
:10100000FA6813465B001344DB000B4408331B688B
:101010002C4A342101FB03F3134448331B68002B93
:1010200022D12749FA6813465B001344DB000B44C6
:1010300008331B68234A342101FB03F313445C3358
:1010400019681F48FA6813465B001344DB00034429
:101050001B687A6803FB02F2BB6813449B000B44D5
:101060001A683B681A6023E01549FA6813465B006A
:101070001344DB000B4408331B68124A342101FB84
:1010800003F313445C3319680D48FA6813465B0098
:101090001344DB0003441B687A6803FB02F2BB685D
:1010A00013445B000B441B889BB21A463B681A60D2
:1010B000002318461437BD465DF8047B704700BF17
:1010C000F00400244804002480B485B000AFF86028
:1010D000B9607A603B602F49FA6813465B0013449D
:1010E000DB000B4408331B682B4A342101FB03F35C
:1010F000134448331B68002B22D12649FA68134653
:101100005B001344DB000B4408331B68224A342184
:1011100001FB03F313445C3319681E48FA68134655
:101120005B001344DB0003441B687A6803FB02F294
:10113000BB6813449B000B441A463B68136021E0D4
:101140001449FA6813465B001344DB000B44083370
:101150001B68114A342101FB03F313445C33196803
:101160000C48FA6813465B001344DB0003441B6819
:101170007A6803FB02F2BB6813445B000B443A68D5
:1011800092B21A80002318461437BD465DF8047BDE
:10119000704700BFF00400244804002480B588B0E4
:1011A00002AFF860B9607A603B60BB6A3B612F496F
:1011B000FA6813465B001344DB000B440C331B68D6
:1011C000022B29D102237B61BB6ADB0A03F01F02D9
:1011D00013461B0113445A01D31A17339B091904F0
:1011E000BB6A5B0903F03F021346DB0113445B005B
:1011F000134421339B091B021943BB6A03F01F02EE
:1012000013461B0113445A01D31A17339B090B438E
:1012100043F07F433B6102E000237B6100BF144B3E
:101220004FF440325A60124A7B699360104A7B6ADD
:10123000D3600F4B0F4A1A600D4802F04FF8034677
:10124000002B0ED17A683B6A00933B6839690848E5
:1012500002F0B2F80346002B03D13221044802F019
:10126000D6F800BF1837BD4680BD00BFF00400248B
:10127000E00300240010005280B588B002AFF8608F
:10128000B9607A603B602549FA6813465B001344F5
:10129000DB000B440C331B68022B02D102237B6161
:1012A00002E000237B6100BF1D4B4FF480325A6087
:1012B0001B4A7B6993601A4B0022DA60184B0022AC
:1012C000DA64174BFF221A65154A3B6A9364144B84
:1012D00000225A64124B134A1A60114801F0FEFFB3
:1012E0000346002B15D101210D4802F079F9034680
:1012F000002B0ED1B9687A68012300933B68084837
:1013000002F05AF80346002B03D11921044802F0D9
:101310007EF800BF1837BD4680BD00BFF004002432
:10132000E00300240010005280B592B000AF786056
:101330007B681B689C4A934240F0E1809B4BD3F84A
:10134000E4309A4A43F00803C2F8E430974BD3F8EC
:10135000E43003F008033B633B6B944BD3F8E0307D
:10136000924A43F00103C2F8E030904BD3F8E030EA
:1013700003F00103FB62FB6A8C4BD3F8E0308B4A2D
:1013800043F00203C2F8E030884BD3F8E03003F0BA
:101390000203BB62BB6A854BD3F8E030834A43F05B
:1013A0000403C2F8E030814BD3F8E03003F00403CB
:1013B0007B627B6A7D4BD3F8E0307C4A43F00803C4
:1013C000C2F8E030794BD3F8E03003F008033B6219
:1013D0003B6A764BD3F8E030744A43F01003C2F80E
:1013E000E030724BD3F8E03003F01003FB61FB698F
:1013F0006E4BD3F8E0306D4A43F04003C2F8E03062
:101400006A4BD3F8E03003F04003BB61BB69674B24
:10141000D3F8E030654A43F08003C2F8E030634B14
:10142000D3F8E03003F080037B617B690223BB6368
:101430000023FB6302233B640E237B6458237B63FE
:1014400007F1340319465A4802F082FA40F2033396
:101450007B6307F134031946564802F079FAC0233A
:101460007B6307F134031946534802F071FA4923AC
:101470007B6307F134031946504802F069FA49F6D4
:1014800003037B6307F1340319464D4802F060FA09
:101490004FF481437B6307F134031946494802F056
:1014A00057FA48F608737B6307F134031946464838
:1014B00002F04EFA0D237B644FF480737B6307F1D7
:1014C000340319463A4802F043FA09237B64102397
:1014D0007B6307F1340319463B4802F039FA334B7A
:1014E000D3F88C30314A43F00803C2F88C302F4BCC
:1014F000D3F88C302D4A23F00803C2F88C302B4BE4
:10150000D3F8E030294A43F00803C2F8E030274B13
:10151000D3F8E03003F008033B613B69234BD3F879
:10152000E030224A43F04003C2F8E0301F4BD3F8CA
:10153000E03003F04003FB60FB681C4BD3F8E03065
:101540001A4A43F01003C2F8E030184BD3F8E030E9
:1015500003F01003BB60BB684FF400537B630123AF
:10156000BB6307F134031946154802F0F1F94FF453
:1015700080637B630123BB6307F1340319460F4883
:1015800002F0E6F94FF400437B630123BB6307F1EC
:10159000340319460B4802F0DBF9282000F0B8FDAF
:1015A00000BF4837BD4680BD0010005000440258BF
:1015B000000002580004025800080258000C0258AB
:1015C0000010025800180258001C025880B485B060
:1015D00000AF78607B681B68114A93421AD1114BA7
:1015E000D3F8D4300F4A43F01003C2F8D4300D4B77
:1015F000D3F8D43003F01003FB60FB68094BDB6FBA
:10160000084A43F01003D367064BDB6F054A23F00B
:101610001003D36700BF1437BD465DF8047B7047E5
:10162000001000520044025880B58AB000AF7860C4
:1016300039607B68002B03D06FF001037B625DE0B3
:10164000314A7B6812F83330002B55D17B685C221D
:1016500002FB03F32D4A1344184600F02DFA02232F
:10166000FB604FF08073FB61FB6993FAA3F3BB61EE
:10167000BB693B623B6A002B01D1202303E03B6A3C
:10168000B3FA83F3DBB2BB6000233B617B685C226F
:1016900002FB03F31D4A1344184600F039F80346D1
:1016A000002B03D06FF003037B6227E07B685C2292
:1016B00002FB03F3154A134407F1080211461846CA
:1016C00000F04CF80346002B03D06FF003037B625D
:1016D00014E03B6819783B685A783B689B787868D7
:1016E00000F0C2F80346002B03D06FF004037B62C6
:1016F00004E000237B6201E000237B627B6A1846E2
:101700002837BD4680BD00BF140000240805002412
:1017100080B5B0B000AF78604FF000724FF00003BA
:10172000C7E9022320237B6505233B6150237B61AE
:101730000523BB610223FB6102233B620023FB62A2
:101740000023BB6200237B6207F10803184604F004
:10175000B5F803461846C037BD4680BD80B588B091
:1017600000AF786039607B68284A1A60786802F0B8
:10177000B5FE7B6804225A607B6800229A607B6811
:101780004FF08062DA603B681A687B681A617B6898
:1017900004225A617B6800229A617B680022DA6128
:1017A0007B6800221A623B685A687B685A623B6811
:1017B0009A687B689A627B684FF08052DA627B6835
:1017C0004FF4C872DA637B6817221A63786802F0F4
:1017D000BFFD0346FB77FB7F002B11D10323FB608A
:1017E00006233B6100237B610123BB6107F10C03EE
:1017F00041F288321946786802F0A1FE0346FB7771
:10180000FB7F18462037BD4680BD00BF00A00052B8
:1018100080B584B000AF78600023FB607B68002B4C
:1018200003D06FF00103FB6014E07B685C2202FBD5
:1018300003F30B4A13441846FEF7BAFD0346002B88
:1018400003D06FF00403FB6004E0064A7B680221CA
:1018500002F83310FB6818461037BD4680BD00BF44
:10186000080500241400002480B58AB000AF786019
:10187000084611461A460346FB700B46BB701346DA
:101880007B7000237B627B68002B03D06FF0010329
:101890007B6207E1864A7B6812F83330022B03D162
:1018A0006FF019037B62FDE0814A7B6812F83330E8
:1018B000002B18D07E4A7B68DB0013445B78FA78F3
:1018C0009A4210D17A4A7B68DB0013449B78BA783D
:1018D0009A4208D1764A7B68DB001344DB787A7839
:1018E0009A4200F0DF807B685C2202FB03F3714ABE
:1018F000134407F10A0211461846FEF78AFD034613
:10190000002B03D06FF004037B62B1E0684A7B6870
:1019100012F83330002B04D106233B620123FB6114
:1019200002E06FF001037B62FB78012B02D06FF0C5
:1019300001037B62BB78002B05D17B8923F0040374
:101940009BB27B8104E07B8943F004039BB27B81E3
:101950007B891BB223F003031AB27B781BB21343BB
:101960001BB29BB27B817B685C2202FB03F3514A72
:10197000981879893B6AFA69FEF77DFD0346002BCA
:1019800003D06FF004037B6272E0BB78002B39D187
:101990007B78032B40D801A252F823F0EF190008FE
:1019A000D9190008AD190008C3190008414A7B681D
:1019B0005C2101FB03F3134420334FF400321A601F
:1019C0002BE03C4A7B685C2101FB03F3134420338A
:1019D0004FF440321A6020E0364A7B685C2101FBFC
:1019E00003F3134420334FF480221A6015E0314A88
:1019F0007B685C2101FB03F3134420334FF4A022E6
:101A00001A600AE02B4A7B685C2101FB03F3134454
:101A1000203300221A6000E000BF7B685C2202FBDA
:101A200003F3244A1344184602F092FC0346002BA9
:101A300003D06FF003037B621AE00323FB600623ED
:101A40003B6100237B610123BB617B685C2202FB5D
:101A500003F3184A134407F10C0141F28832184687
:101A600002F06DFD0346002B02D06FF003037B6292
:101A70007B6A002B16D10E4A7B68012102F83310D5
:101A80000B4A7B68DB00134401225A70084A7B68CA
:101A9000DB001344BA789A70054A7B68DB00134474
:101AA0007A78DA707B6A18462837BD4680BD00BF59
:101AB000140000240805002480B594B000AF7860BD
:101AC000BA4BD3F8D430B94A43F40023C2F8D43027
:101AD000B64BD3F8D43003F40023BB63BB6BB34BDA
:101AE000D3F8D430B14A43F00103C2F8D430AF4B3D
:101AF000D3F8D43003F001037B637B6BAB4BD3F89B
:101B0000E030AA4A43F02003C2F8E030A74BD3F8F4
:101B1000E03003F020033B633B6BA44BD3F8E03091
:101B2000A24A43F02003C2F8E030A04BD3F8E030E3
:101B300003F02003FB62FB6A9C4BD3F8E0309B4A26
:101B400043F04003C2F8E030984BD3F8E03003F0A4
:101B50004003BB62BB6A954BD3F8E030934A43F035
:101B60002003C2F8E030914BD3F8E03003F02003BB
:101B70007B627B6A8D4BD3F8E0308C4A43F02003C4
:101B8000C2F8E030894BD3F8E03003F020033B6229
:101B90003B6A864BD3F8E030844A43F02003C2F816
:101BA000E030824BD3F8E03003F02003FB61FB69A7
:101BB0007E4BD3F8E0307D4A43F02003C2F8E0309A
:101BC0007A4BD3F8E03003F02003BB61BB69774B5D
:101BD000D3F8E030754A43F04003C2F8E030734B6D
:101BE000D3F8E03003F040037B617B696F4BD3F89F
:101BF000E0306E4A43F04003C2F8E0306B4BD3F85C
:101C0000E03003F040033B613B69684BD3F8E030C0
:101C1000664A43F04003C2F8E030644BD3F8E0304A
:101C200003F04003FB60FB68604BD3F8E0305F4A91
:101C300043F04003C2F8E0305C4BD3F8E03003F0EF
:101C40004003BB60BB68594BDB6F584A43F4002329
:101C5000D367564BDB6F554A23F40023D3674FF409
:101C60008053FB6302233B6401237B640323BB6437
:101C70000323FB6407F13C0319464D4801F068FE5D
:101C800000237B644FF48053FB630923FB6407F15B
:101C90003C031946474801F05BFE1023FB63092310
:101CA000FB6407F13C031946424801F051FE012351
:101CB000FB630923FB6407F13C0319463D4801F02F
:101CC00047FE0223FB630923FB6407F13C0319462B
:101CD000384801F03DFE0423FB630923FB6407F150
:101CE0003C031946334801F033FE0823FB63092304
:101CF000FB6407F13C0319462E4801F029FE01233D
:101D0000FB630923FB6407F13C031946284801F0F3
:101D10001FFE0223FB630923FB6407F13C03194602
:101D2000234801F015FE4FF48063FB630323FB643B
:101D300007F13C0319461E4801F00AFE4FF4006308
:101D4000FB630923FB6407F13C031946184801F0C3
:101D5000FFFD194B4FF080425A60174B4FF08052F5
:101D60009A60154B8022DA60134B40F202225A61CE
:101D7000114B40F608029A610F4B2022DA610E4B9C
:101D800080221A620C4B4FF000725A620A4B0022FA
:101D9000DA62094B00221A63074B80229A62064BD3
:101DA00000225A63044B002208E000BF004402589E
:101DB0000018025800140258640500249A63104B5E
:101DC000104A1A607B680E4ADA640D4A7B68136415
:101DD0000B4802F0D9F900220721962000F0A7FA5B
:101DE000002207217A2000F0A2FA962000F0B9FA2A
:101DF0007A2000F0B6FA00BF5037BD4680BD00BF64
:101E0000640500244000005280B582B000AF7860C5
:101E10007A6813465B019B1A9B00074A13441846D5
:101E200005F012FA0346042B14BF01230023DBB292
:101E300018460837BD4680BDD005002480B582B065
:101E400000AF78607B68DB00044A1344184601F059
:101E50004FFD00BF0837BD4680BD00BF4C060024C3
:101E600080B582B000AF78607A6813465B019B1A38
:101E70009B00044A1344184605F024F800BF0837B5
:101E8000BD4680BDD005002480B582B000AF78602B
:101E90007B68064A934214BF01230023DBB2184635
:101EA00006F05EFD00BF0837BD4680BDD0050024AA
:101EB00080B582B000AF78607B68064A934214BF59
:101EC00001230023DBB2184606F064FD00BF08378B
:101ED000BD4680BDD005002480B582B000AF7860DB
:101EE0007B68DB00044A1344184601F001FD00BF83
:101EF0000837BD4680BD00BF5406002480B400AF43
:101F0000264BD3F88830254A43F47003C2F8883052
:101F1000234B1B68224A43F001031360204B00222D
:101F20001A611F4B1A681E491E4B13400B601C4B55
:101F300000229A611A4B0022DA61194B00221A62C0
:101F4000174B00229A62164B0022DA62144B0022D1
:101F50001A63134B00225A63114B00229A63104BF1
:101F60000022DA630E4B00221A640D4B00225A64E1
:101F70000B4B1B680A4A23F480231360084B002292
:101F80001A66094B43F2D2021A60044B4FF000620A
:101F90009A6000BFBD465DF8047B704700ED00E02D
:101FA000004402587FEDF6EA0040005280B400AFD2
:101FB000094BDB68084A23F00203D36000BF064BDD
:101FC0005B6803F40053002BF9D000BF00BFBD468F
:101FD0005DF8047B704700BF0048025880B582B0AE
:101FE00000AF032000F098F903F0EEFA0246154B1B
:101FF0009B691B0A03F00F031349CB5C03F01F031B
:1020000022FA03F37B600F4B9B6903F00F030E4A28
:10201000D35C03F01F037A6822FA03F30B4A1360C0
:102020000B4A7B6813600F2000F01CF80346002B5E
:1020300001D0012302E000F00DF800231846083714
:10204000BD4680BD00440258E09B000820000024EB
:102050001C00002480B400AF00BFBD465DF8047BC7
:102060007047000080B582B000AF7860154B1B78D8
:10207000002B01D1012321E0134B1A68114B1B786F
:1020800019464FF47A73B3FBF1F3B2FBF3F318463E
:1020900000F075F90346002B01D001230EE07B68A8
:1020A0000F2B0AD8002279684FF0FF3000F03FF97B
:1020B000064A7B681360002300E0012318460837B6
:1020C000BD4680BD280000241C00002424000024FC
:1020D00080B400AF064B1B781A46064B1B681344AE
:1020E000044A136000BFBD465DF8047B704700BF23
:1020F000280000245C06002480B400AF034B1B685A
:102100001846BD465DF8047B704700BF5C0600249E
:1021100080B584B000AF7860FFF7EEFFB8607B68F1
:10212000FB60FB68B3F1FF3F05D00A4B1B781A46F2
:10213000FB681344FB6000BFFFF7DEFF0246BB688D
:10214000D31AFA689A42F7D800BF00BF1037BD46CD
:1021500080BD00BF2800002480B400AF054B1B6A7F
:10216000044A43F00103136200BFBD465DF8047BDF
:10217000704700BF0004005880B485B000AF78609D
:102180007B6803F00703FB600B4BDB68BB60BA683E
:102190004FF6FF031340BB60FB681A02BB681A438B
:1021A000064B1343BB60044ABB68D36000BF1437BF
:1021B000BD465DF8047B704700ED00E00000FA05C5
:1021C00080B400AF044BDB681B0A03F0070318461A
:1021D000BD465DF8047B704700ED00E080B483B03D
:1021E00000AF0346FB80B7F90630002B0BDBFB8802
:1021F00003F01F020749B7F906305B09012000FA16
:1022000002F241F8232000BF0C37BD465DF8047B85
:10221000704700BF00E100E080B483B000AF034628
:102220003960FB80B7F90630002B0ADB3B68DAB275
:102230000C49B7F906301201D2B20B4483F80023DF
:102240000AE03B68DAB20849FB8803F00F03043B5D
:102250001201D2B20B441A7600BF0C37BD465DF8AE
:10226000047B704700E100E000ED00E080B489B03D
:1022700000AFF860B9607A60FB6803F00703FB61A8
:10228000FB69C3F10703042B28BF0423BB61FB696F
:102290000433062B02D9FB69033B00E000237B617A
:1022A0004FF0FF32BB6902FA03F3DA43BB681A400E
:1022B0007B699A404FF0FF317B6901FA03F3D94300
:1022C0007B680B40134318462437BD465DF8047BFA
:1022D0007047000080B582B000AF78607B68013B3A
:1022E000B3F1807F01D301230FE00A4A7B68013BF1
:1022F00053600F214FF0FF30FFF78EFF054B002298
:102300009A60044B07221A60002318460837BD461E
:1023100080BD00BF10E000E080B582B000AF786003
:102320007868FFF729FF00BF0837BD4680BD80B53C
:1023300086B000AF0346B9607A60FB81FFF740FFCB
:1023400078617A68B9687869FFF790FF0246B7F953
:102350000E3011461846FFF75FFF00BF1837BD4625
:1023600080BD80B582B000AF0346FB80B7F9063070
:102370001846FFF733FF00BF0837BD4680BD80B564
:1023800082B000AF78607868FFF7A4FF0346184674
:102390000837BD4680BD000080B400AFBFF35F8F3B
:1023A00000BF074B5B6A064A23F480335362054B38
:1023B00000225A6000BFBD465DF8047B704700BF35
:1023C00000ED00E090ED00E080B483B000AF7860F5
:1023D0000B4A7B6843F0010353600A4B5B6A094A6E
:1023E00043F480335362BFF34F8F00BFBFF36F8F4F
:1023F00000BF00BF0C37BD465DF8047B704700BFCF
:1024000090ED00E000ED00E080B483B000AF7860B4
:102410007B685A781B4B9A601A4B1B69194A23F048
:1024200001031361174A7B685B68D3607B681B7B81
:102430001A077B68DB7A1B061A437B689B7ADB04EE
:102440001A437B685B7B9B041A437B689B7B5B0422
:102450001A437B68DB7B1B041A437B685B7A1B0295
:102460001A437B681B7A5B0013437A681278114623
:10247000044A0B43136100BF0C37BD465DF8047B73
:10248000704700BF90ED00E080B58AB000AF786083
:102490000023FB60674B1B68674AA2FB03239B0A70
:1024A0007B627B689B6D3B627B689B6DFB613B6ADB
:1024B0001B68BB61FB691B687B617B681B685F4AAB
:1024C00093424AD07B681B685D4A934245D07B6843
:1024D0001B685C4A934240D07B681B685A4A93420F
:1024E0003BD07B681B68594A934236D07B681B6897
:1024F000574A934231D07B681B68564A93422CD08E
:102500007B681B68544A934227D07B681B68534AF8
:10251000934222D07B681B68514A93421DD07B684E
:102520001B68504A934218D07B681B684E4A9342FE
:1025300013D07B681B684D4A93420ED07B681B68A2
:102540004B4A934209D07B681B684A4A934204D0A5
:102550007B681B68484A934201D1012300E00023B5
:10256000002B00F02B847B68DB6D03F01F03082237
:102570009A40BB691340002B00F0A2807B681B6867
:102580002E4A93424AD07B681B682D4A934245D01D
:102590007B681B682B4A934240D07B681B682A4AA1
:1025A00093423BD07B681B68284A934236D07B68B5
:1025B0001B68274A934231D07B681B68254A9342A7
:1025C0002CD07B681B68244A934227D07B681B6809
:1025D000224A934222D07B681B68214A93421DD035
:1025E0007B681B681F4A934218D07B681B681E4A91
:1025F000934213D07B681B681C4A93420ED07B68C1
:102600001B681B4A934209D07B681B68194A934296
:1026100004D07B681B68184A93422FD17B681B68E3
:102620001B6803F00403002B14BF01230023DBB25B
:102630002EE000BF1C000024B5814E1B100002409C
:102640002800024040000240580002407000024052
:1026500088000240A0000240B8000240100402407E
:102660002804024040040240580402407004024022
:1026700088040240A0040240B80402407B681B6842
:102680001B6803F00803002B14BF01230023DBB2F7
:10269000002B15D07B681B681A687B681B6822F0CA
:1026A00004021A607B68DB6D03F01F0308229A4066
:1026B0003B6A9A607B685B6D43F001027B685A65F8
:1026C0007B68DB6D03F01F03BA6922FA03F303F0A2
:1026D0000103002B6ED07B681B68694A93424AD085
:1026E0007B681B68674A934245D07B681B68664AD3
:1026F000934240D07B681B68644A93423BD07B681E
:102700001B68634A934236D07B681B68614A9342D8
:1027100031D07B681B68604A93422CD07B681B6871
:102720005E4A934227D07B681B685D4A934222D061
:102730007B681B685B4A93421DD07B681B685A4AC2
:10274000934218D07B681B68584A934213D07B6829
:102750001B68574A93420ED07B681B68554A9342C8
:1027600009D07B681B68544A934204D07B681B687D
:10277000524A93420AD17B681B685B6903F080036D
:10278000002B14BF01230023DBB203E07B681B682E
:102790001B680023002B0DD07B68DB6D03F01F034B
:1027A00001229A403B6A9A607B685B6D43F00202AB
:1027B0007B685A657B68DB6D03F01F0304229A4037
:1027C000BB691340002B00F08F807B681B682C4A8C
:1027D00093424AD07B681B682A4A934245D07B6863
:1027E0001B68294A934240D07B681B68274A934262
:1027F0003BD07B681B68264A934236D07B681B68B7
:10280000244A934231D07B681B68234A93422CD0E0
:102810007B681B68214A934227D07B681B68204A4B
:10282000934222D07B681B681E4A93421DD07B686E
:102830001B681D4A934218D07B681B681B4A934251
:1028400013D07B681B681A4A93420ED07B681B68C2
:10285000184A934209D07B681B68174A934204D0F8
:102860007B681B68154A93422AD17B681B681B68EA
:1028700003F00203002B14BF01230023DBB223E08B
:102880001000024028000240400002405800024070
:102890007000024088000240A0000240B8000240E0
:1028A0001004024028040240400402405804024040
:1028B0007004024088040240A0040240B8040240B0
:1028C0007B681B681B680023002B0DD07B68DB6DC9
:1028D00003F01F0304229A403B6A9A607B685B6D99
:1028E00043F004027B685A657B68DB6D03F01F03CD
:1028F00010229A40BB691340002B00F0A6807B6831
:102900001B68854A93424AD07B681B68834A93427E
:1029100045D07B681B68824A934240D07B681B6825
:10292000804A93423BD07B681B687F4A934236D0F3
:102930007B681B687D4A934231D07B681B687C4A68
:1029400093422CD07B681B687A4A934227D07B68DD
:102950001B68794A934222D07B681B68774A93426E
:102960001DD07B681B68764A934218D07B681B6831
:10297000744A934213D07B681B68734A93420ED00B
:102980007B681B68714A934209D07B681B68704A58
:10299000934204D07B681B686E4A93420AD17B68DD
:1029A0001B681B6803F00803002B14BF01230023DE
:1029B000DBB209E07B681B681B6803F00403002B93
:1029C00014BF01230023DBB2002B3ED07B68DB6DFC
:1029D00003F01F0310229A403B6A9A607B681B68D1
:1029E0001B6803F48023002B18D07B681B681B68CE
:1029F00003F40023002B08D17B681B6C002B24D030
:102A00007B681B6C786898471FE07B689B6C002B89
:102A10001BD07B689B6C7868984716E07B681B68C6
:102A20001B6803F48073002B07D17B681B681A684E
:102A30007B681B6822F008021A607B681B6C002B05
:102A400003D07B681B6C786898477B68DB6D03F06C
:102A50001F0320229A40BB691340002B00F0108115
:102A60007B681B682C4A93424AD07B681B682B4AC0
:102A7000934245D07B681B68294A934240D07B68CB
:102A80001B68284A93423BD07B681B68264A9342C6
:102A900036D07B681B68254A934231D07B681B681F
:102AA000234A93422CD07B681B68224A934227D04A
:102AB0007B681B68204A934222D07B681B681F4AB0
:102AC00093421DD07B681B681D4A934218D07B68D7
:102AD0001B681C4A934213D07B681B681A4A9342B6
:102AE0000ED07B681B68194A934209D07B681B682B
:102AF000174A934204D07B681B68164A93422BD135
:102B00007B681B681B6803F01003002B14BF0123B4
:102B10000023DBB22AE000BF100002402800024080
:102B2000400002405800024070000240880002400D
:102B3000A0000240B80002401004024028040240F5
:102B400040040240580402407004024088040240DD
:102B5000A0040240B80402407B681B681B6803F0B5
:102B60000203002B14BF01230023DBB2002B00F073
:102B700087807B68DB6D03F01F0320229A403B6A4D
:102B80009A607B6893F83530DBB2042B39D17B68CF
:102B90001B681A687B681B6822F016021A607B6843
:102BA0001B685A697B681B6822F080025A617B6847
:102BB0001B6C002B03D17B689B6C002B07D07B68C0
:102BC0001B681A687B681B6822F008021A607B6821
:102BD000DB6D03F01F033F229A403B6A9A607B68DB
:102BE000012283F835207B68002283F834207B683B
:102BF0001B6D002B00F04A837B681B6D786898473B
:102C000044E37B681B681B6803F48023002B18D007
:102C10007B681B681B6803F40023002B08D17B68CA
:102C20005B6C002B2CD07B685B6C7868984727E046
:102C30007B68DB6B002B23D07B68DB6B7868984765
:102C40001EE07B681B681B6803F48073002B0FD1A8
:102C50007B681B681A687B681B6822F010021A6088
:102C60007B68012283F835207B68002283F83420BA
:102C70007B68DB6B002B03D07B68DB6B7868984745
:102C80007B685B6D002B00F006837B685B6D03F057
:102C90000103002B00F088807B68042283F8352034
:102CA0007B681B687A4A93424AD07B681B68794AE2
:102CB000934245D07B681B68774A934240D07B683B
:102CC0001B68764A93423BD07B681B68744A9342E8
:102CD00036D07B681B68734A934231D07B681B688F
:102CE000714A93422CD07B681B68704A934227D06C
:102CF0007B681B686E4A934222D07B681B686D4AD2
:102D000093421DD07B681B686B4A934218D07B6846
:102D10001B686A4A934213D07B681B68684A9342D7
:102D20000ED07B681B68674A934209D07B681B689A
:102D3000654A934204D07B681B68644A934208D179
:102D40007B681B681A687B681B6822F001021A60A6
:102D500007E07B681B681A687B681B6822F0010229
:102D60001A60FB680133FB607A6A9A4207D37B687A
:102D70001B681B6803F00103002BF2D100E000BFC9
:102D80007B681B681B6803F00103002B04D07B6881
:102D9000032283F8352003E07B68012283F8352085
:102DA0007B68002283F834207B68DB6C002B00F00A
:102DB00072827B68DB6C786898476CE27B681B6882
:102DC000434A934222D07B681B68424A93421DD0FB
:102DD0007B681B68404A934218D07B681B683F4A57
:102DE000934213D07B681B683D4A93420ED07B68A8
:102DF0001B683C4A934209D07B681B683A4A93425D
:102E000004D07B681B68394A934201D1012300E05A
:102E10000023002B00F03F827B681B681B683B612E
:102E20007B68DB6D03F01F0304229A407B6913402B
:102E3000002B00F0CD803B6903F00403002B00F071
:102E4000C7807B68DB6D03F01F0304229A40FB6997
:102E50005A603B6903F40043002B49D03B6903F4FB
:102E60008033002B09D17B689B6C002B00F0108213
:102E70007B689B6C786898470AE27B681B6C002B28
:102E800000F006827B681B6C7868984700E200BF00
:102E9000100002402800024040000240580002405A
:102EA0007000024088000240A0000240B8000240CA
:102EB000100402402804024040040240580402402A
:102EC0007004024088040240A0040240B80402409A
:102ED000085402581C5402583054025844540258A2
:102EE000585402586C540258805402589454025852
:102EF0003B6903F02003002B60D17B681B687F4A8D
:102F000093424AD07B681B687D4A934245D07B68D8
:102F10001B687C4A934240D07B681B687A4A934284
:102F20003BD07B681B68794A934236D07B681B682C
:102F3000774A934231D07B681B68764A93422CD003
:102F40007B681B68744A934227D07B681B68734A6E
:102F5000934222D07B681B68714A93421DD07B68E4
:102F60001B68704A934218D07B681B686E4A934274
:102F700013D07B681B686D4A93420ED07B681B6838
:102F80006B4A934209D07B681B686A4A934204D01B
:102F90007B681B68684A934208D17B681B681A6883
:102FA0007B681B6822F008021A6007E07B681B68D8
:102FB0001A687B681B6822F004021A607B681B6C2D
:102FC000002B00F065817B681B6C786898475FE197
:102FD0007B68DB6D03F01F0302229A407B6913407C
:102FE000002B00F0C5803B6903F00203002B00F0CA
:102FF000BF807B68DB6D03F01F0302229A40FB69F0
:103000005A603B6903F40043002B18D03B6903F47A
:103010008033002B09D17B685B6C002B00F03A8178
:103020007B685B6C7868984734E17B68DB6B002BCE
:1030300000F030817B68DB6B786898472AE13B6958
:1030400003F02003002B40F089807B681B682B4A2B
:1030500093424AD07B681B68294A934245D07B68DB
:103060001B68284A934240D07B681B68264A9342DB
:103070003BD07B681B68254A934236D07B681B682F
:10308000234A934231D07B681B68224A93422CD05A
:103090007B681B68204A934227D07B681B681F4AC5
:1030A000934222D07B681B681D4A93421DD07B68E7
:1030B0001B681C4A934218D07B681B681A4A9342CB
:1030C00013D07B681B68194A93420ED07B681B683B
:1030D000174A934209D07B681B68164A934204D072
:1030E0007B681B68144A934228D17B681B681A6866
:1030F0007B681B6822F014021A6027E0100002406F
:103100002800024040000240580002407000024087
:1031100088000240A0000240B800024010040240B3
:103120002804024040040240580402407004024057
:1031300088040240A0040240B80402407B681B6877
:103140001A687B681B6822F00A021A607B680122F9
:1031500083F835207B68002283F834207B68DB6BA2
:10316000002B00F097807B68DB6B7868984791E0D4
:103170007B68DB6D03F01F0308229A407B691340D4
:10318000002B00F088803B6903F00803002B00F05F
:1031900082807B681B68414A93424AD07B681B68E7
:1031A0003F4A934245D07B681B683E4A934240D0D9
:1031B0007B681B683C4A93423BD07B681B683B4A58
:1031C000934236D07B681B68394A934231D07B6882
:1031D0001B68384A93422CD07B681B68364A93425E
:1031E00027D07B681B68354A934222D07B681B68D6
:1031F000334A93421DD07B681B68324A934218D0F1
:103200007B681B68304A934213D07B681B682F4A47
:1032100093420ED07B681B682D4A934209D07B688D
:103220001B682C4A934204D07B681B682A4A93424D
:1032300008D17B681B681A687B681B6822F01C0237
:103240001A6007E07B681B681A687B681B6822F0BD
:103250000E021A607B68DB6D03F01F0301229A40A7
:10326000FB695A607B6801225A657B68012283F8FA
:1032700035207B68002283F834207B68DB6C002BD0
:1032800009D07B68DB6C7868984704E000BF02E0F7
:1032900000BF00E000BF2837BD4680BD10000240DF
:1032A00028000240400002405800024070000240E6
:1032B00088000240A0000240B80002401004024012
:1032C00028040240400402405804024070040240B6
:1032D00088040240A0040240B804024080B582B0D5
:1032E00000AF78607B68002B01D101234FE07B6841
:1032F00093F86130DBB2002B06D17B68002283F8A3
:103300006020786800F04EF87B68022283F8612024
:103310007B681B681A68204B13407A6851687A688A
:10332000D26911437A6812680B4313607B681B688B
:103330005A6B1A4B13407A6891687A689269114304
:103340007A6812680B4353637B681B681A6C144BD2
:1033500013407A68D1687A6812680B4313647B68FB
:103360001B685B6B23F440117B681B691A057B6843
:103370005B695B051A437B681B680A435A637B6879
:1033800000225A667B68012283F8612000231846D8
:103390000837BD4680BD00BFBFFFF8FFF8FEFFFF46
:1033A0000000FFFF80B483B000AF786000BF0C372F
:1033B000BD465DF8047B704780B586B002AFF8600B
:1033C000B9607A603B60FB6893F86030012B01D1F3
:1033D000022318E0FB68012283F86020FB680222C8
:1033E00083F86120BB6900933B687A68B968F86824
:1033F00000F0A4F9FB681B681A68FB681B6842F0C0
:1034000001021A60002318461037BD4680BD80B502
:1034100086B000AF786039600023FB607B681B6872
:103420001B6803F00103002B56D0FEF765FE7861A0
:103430004BE07B681B685B68FB60FB6803F0210363
:10344000002B23D0FB6803F02003002B05D07B6802
:103450005B6E43F002027B685A66FB6803F001036F
:10346000002B05D07B685B6E43F001027B685A66D7
:103470007B681B6821229A607B68042283F86120A4
:103480007B68002283F860200123A5E03B68B3F14C
:10349000FF3F1AD0FEF730FE02467B69D31A3A6826
:1034A0009A4202D33B68002B0FD17B685B6E43F0DE
:1034B00020027B685A667B68032283F861207B6860
:1034C000002283F86020032386E07B681B685B682A
:1034D00003F00203002BACD07B681B68DB6903F0B0
:1034E00020033B617B681B685B6A03F020033A6939
:1034F00013433B613B69002B61D0FEF7FDFD786112
:1035000056E07B681B685B68FB60FB6803F029037F
:10351000002B2ED0FB6803F00803002B05D07B683E
:103520005B6E43F004027B685A66FB6803F020037D
:10353000002B05D07B685B6E43F002027B685A6605
:10354000FB6803F00103002B05D07B685B6E43F042
:1035500001027B685A667B681B6829229A607B6837
:10356000042283F861207B68002283F86020012315
:1035700032E03B68B3F1FF3F1AD0FEF7BDFD0246D3
:103580007B69D31A3A689A4202D33B68002B0FD169
:103590007B685B6E43F020027B685A667B6803227F
:1035A00083F861207B68002283F86020032313E006
:1035B0007B681B685B6803F01003002BA1D07B685D
:1035C0001B6812229A607B68012283F861207B6865
:1035D000002283F86020002318461837BD4680BDBE
:1035E00080B487B000AF786039607B685B68B3F502
:1035F000403F3B68012B7B6893F86030012B01D181
:10360000022392E07B68012283F860207B6802221B
:1036100083F861203A681346DB009B1A9B0028332D
:103620007A681344FB60FB685A68FB689B681B045C
:103630001A43FB681B691B051A43FB685B695B0542
:1036400013433B613C4B7B61FB685B680A2B03D0F7
:10365000FB685B68092B07D1FB68DB6803F07F43DD
:103660003A6913433B6105E0FB68DB681B063A6976
:1036700013433B613B68002B20D17B681B685A6A6F
:103680007B69DB4302EA03017B681B683A690A43F2
:103690005A627B681B68FA6812689A61FB685B680B
:1036A0000A2B03D0FB685B68092B35D1FB68DA680D
:1036B0007B681B6822F07F429A622DE0FB685B68A2
:1036C0000B2B09D1FB689B699B043A6913433B614F
:1036D0007B6943F440237B617B681B68DA697B6903
:1036E000DB4302EA03017B681B683A690A43DA613B
:1036F0007B681B68FA6812681A61FB685B680A2BB2
:1037000003D0FB685B68092B06D1FB68DA687B682D
:103710001B6822F07F421A627B68012283F86120D5
:103720007B68002283F86020002318461C37BD46C2
:103730005DF8047B704700BF0F0033FF80B48BB08F
:1037400000AFF860B9607A603B60FB681B685B6C37
:1037500003F040413B681A043B6B1A43FB681B684B
:103760000A435A64FB681B687A68DA63FB685B6823
:10377000B3F5403F74D1BB6803F07F433B62BB6845
:1037800003F47F03FB61BB6803F47F43BB61BB6849
:10379000DBB27B61FB689B68002B08D1BA69FB69CF
:1037A0001A433B6A13437A6913437B6253E0FB6815
:1037B0009B68012B06D1BA69FB6913437A691343ED
:1037C0007B6248E0FB689B68022B11D1FB69DB0C34
:1037D000FB61BB699B0ABB617B69DB087B61BB69E1
:1037E0005A01FB69DB0213437A6913437B6232E0BF
:1037F000FB689B68032B17D13B6ADB0F3B62FB69BD
:10380000DB0CFB61BB69DB0ABB617B69DB087B61AD
:10381000BB695A01FB699B021A433B6ADB031343F2
:103820007A6913437B6216E03B6A1B0F3B62FB69BC
:103830001B0DFB61BB691B0BBB617B691B097B61BA
:10384000BB691A01FB691B021A433B6A1B03134342
:103850007A6913437B62FB681B687A6A9A630DE09E
:10386000FB685B68B3F5802F04D1FB681B68BA68FE
:103870005A6103E0FB681B68BA68DA6000BF2C3746
:10388000BD465DF8047B704780B487B000AFF86038
:103890000B467A60FB720023FB75FB68002B01D19D
:1038A00001230AE0FB7A002B03D1FB687A685A6097
:1038B00002E00123FB7500BFFB7D18461C37BD46A7
:1038C0005DF8047B704780B483B000AF78603960E6
:1038D0007B68002B01D1012303E07B683A681A6002
:1038E000002318460C37BD465DF8047B7047000086
:1038F00080B586B000AF78607B681B681B0C03F056
:1039000003037B617B681B6803F01F03012202FA3B
:1039100003F33B617B691A010C4B1344FB60FB68AA
:103920001B683A691340BB60BB68002B09D0FB6879
:103930003A691A607B685B68002B02D07B685B6821
:10394000984700BF1837BD4680BD00BF88000058AB
:1039500080B489B000AF786039600023FB61864B8A
:103960007B618CE13B681A680121FB6901FA03F372
:1039700013403B613B69002B00F07E813B685B6834
:1039800003F00303012B05D03B685B6803F00303DE
:10399000022B30D17B689B68BB61FB695B00032213
:1039A00002FA03F3DB43BA691340BB613B68DA6890
:1039B000FB695B0002FA03F3BA691343BB617B68DE
:1039C000BA699A607B685B68BB610122FB6902FA95
:1039D00003F3DB43BA691340BB613B685B681B09B7
:1039E00003F00102FB6902FA03F3BA691343BB61F6
:1039F0007B68BA695A603B685B6803F00303032B7A
:103A000017D07B68DB68BB61FB695B00032202FAAD
:103A100003F3DB43BA691340BB613B689A68FB69F7
:103A20005B0002FA03F3BA691343BB617B68BA69AE
:103A3000DA603B685B6803F00303022B23D1FB6968
:103A4000DA087B68083253F82230BB61FB6903F067
:103A500007039B000F2202FA03F3DB43BA6913400A
:103A6000BB613B681A69FB6903F007039B0002FA1C
:103A700003F3BA691343BB61FB69DA087B68083258
:103A8000B96943F822107B681B68BB61FB695B0066
:103A9000032202FA03F3DB43BA691340BB613B68BC
:103AA0005B6803F00302FB695B0002FA03F3BA6987
:103AB0001343BB617B68BA691A603B685B6803F4B7
:103AC0004033002B00F0D8802C4BD3F8F4302B4A35
:103AD00043F00203C2F8F430284BD3F8F43003F07B
:103AE0000203FB60FB68264AFB699B08023352F81D
:103AF0002330BB61FB6903F003039B000F2202FA32
:103B000003F3DB43BA691340BB617B681D4A9342F0
:103B10004AD07B681C4A93422BD07B681B4A934255
:103B200025D07B681A4A93421FD07B68194A93427A
:103B300019D07B68184A934213D07B68174A934286
:103B40000DD07B68164A934207D07B68154A934292
:103B500001D1092329E00A2327E0072325E00623D2
:103B600023E0052321E004231FE003231DE00223BB
:103B70001BE0012319E000BF8000005800440258F8
:103B800000040058000002580004025800080258BF
:103B9000000C025800100258001402580018025875
:103BA000001C0258002402580023FA6902F00302A4
:103BB00092009340BA691343BB613849FB699B0883
:103BC0000233BA6941F823204FF0B0431B68BB6150
:103BD0003B69DB43BA691340BB613B685B6803F434
:103BE0008013002B03D0BA693B691343BB614FF0CC
:103BF000B042BB6913604FF0B0435B68BB613B6987
:103C0000DB43BA691340BB613B685B6803F4001394
:103C1000002B03D0BA693B691343BB614FF0B0423C
:103C2000BB6953607B695B68BB613B69DB43BA6915
:103C30001340BB613B685B6803F40033002B03D087
:103C4000BA693B691343BB617B69BA695A607B6996
:103C50001B68BB613B69DB43BA691340BB613B68CE
:103C60005B6803F48033002B03D0BA693B691343CC
:103C7000BB617B69BA691A60FB690133FB613B6810
:103C80001A68FB6922FA03F3002B7FF46BAE00BFC6
:103C900000BF2437BD465DF8047B70470004005820
:103CA00080B483B000AF78600B467B8013467B7096
:103CB0007B78002B03D07A887B689A6103E07B884D
:103CC0001A047B689A6100BF0C37BD465DF8047B1F
:103CD000704780B584B000AF78607B68002B01D15D
:103CE00001238FE07B6893F8A130DBB2002B06D173
:103CF0007B68002283F8A020786800F087F87B6852
:103D0000022283F8A1207B681B689A697B681B6884
:103D100022F070429A617B681B6899697B685A68D7
:103D20007B689B681A437B68DB681A437B681B6966
:103D30001A437B681B680A439A617B685B691B04B2
:103D4000FB607B6899697B681B68FA680A439A6024
:103D50007B68DB691B04FB607B68196A7B681B68F6
:103D6000FA680A43DA607B685B6A1B04FB607B6865
:103D7000996A7B681B68FA680A431A617B68DB6A88
:103D80001B04FB607B68196B7B681B68FA680A433D
:103D90005A617B6893F835301B02FB607B6893F8AF
:103DA00036301B04BB607B681B68DA6A7B681B6863
:103DB00002F07F42DA627B681B68D96ABA68FB68E6
:103DC00013437A6892F834201A437B681B680A43CD
:103DD000DA627B681B685A6B7B681B6842F00602DC
:103DE0005A637B681B689A697B681B6842F0010212
:103DF0009A617B680022C3F8A4207B68012283F8C3
:103E0000A120002318461037BD4680BD80B483B082
:103E100000AF786000BF0C37BD465DF8047B70478B
:103E2000B0B584B000AFF860B9607A60FB6893F811
:103E3000A030012B01D102232CE0FB68012283F882
:103E4000A020FB68022283F8A120FA687B68342155
:103E500001FB03F3134403F13802BB6814461D460B
:103E60000FCD0FC40FCD0FC40FCD0FC42B6823602F
:103E70007A68B968F86800F011F8FB681B680122DD
:103E80005A62FB68012283F8A120FB68002283F8B4
:103E9000A020002318461037BD46B0BD80B489B0BD
:103EA00000AFF860B9607A60BB685A68FB681B684D
:103EB000DB681B0CC3F30B0313441B04FB61FB689F
:103EC0001B681A467B68DB01134484335B68FA681D
:103ED000126811467A68D2010A44843203F47043AE
:103EE0005360BB681A68FB681B68DB681B0CC3F374
:103EF0000B0313445A1CFB681B6819467B68DB01E3
:103F00000B4484331946FB6913434B60BB68DA6882
:103F1000FB681B68DB68C3F30A0313441B04FB61E3
:103F2000FB681B681A467B68DB01134484339B687B
:103F3000FA68126811467A68D2010A44843203F49E
:103F400070439360BB689A68FB681B68DB68C3F3C7
:103F50000A0313445A1CFB681B6819467B68DB0183
:103F60000B4484331946FB6913438B60FB681B6861
:103F70001A467B68DB01134484331B69FA681268B4
:103F800011467A68D2010A44843223F00703136190
:103F9000FB681B681A467B68DB01134484331A46AE
:103FA000BB681B691361BB6893F831301B02FB616E
:103FB000BB6893F832301B04BB61BB689B691B066E
:103FC0007B61BB6893F830301A46FB691A43BB69C2
:103FD0001A43FB681B6819467B68DB010B4484337A
:103FE00019467B6913438B61FB681B681A467B6823
:103FF000DB01134484335B69FA68126811467A68FE
:10400000D2010A44843223F0FF035361FB681B682A
:104010001A467B68DB01134484331A46BB685B692C
:104020005361FB681B681A467B68DB0113448433C9
:10403000DA69FB681B6819467B68DB010B44843333
:1040400019464F4B1340CB61BB68DA69BB681B6AEA
:10405000F968096808467968C90101448431134345
:10406000CB61FB681B681A467B68DB011344843311
:104070001A46BB685B6A9362BB681B69002B02D15E
:104080000423FB611BE0BB681B69012B02D10323E6
:10409000FB6114E0BB681B69042B0BD0BB681B6978
:1040A000022B07D0BB681B69032B03D0BB681B69BD
:1040B000072B02D10223FB6101E00123FB61FB68B6
:1040C0001B681A467B68DB0113448433DB6AFA6899
:1040D000126811467A68D2010A44843203F0E02360
:1040E000D362BB689B6AFA6902FB03F31A04BB68DC
:1040F0005968BB681B68CB1AF96901FB03F30733E6
:10410000F968096808467968C90101448431134394
:10411000CB62FB681B681A467B68DB01134484335F
:104120001A6BFB681B6819467B68DB010B44843300
:104130001946144B13400B63FB681B681A467B68D7
:10414000DB01134484331A46BB68DB6A1363FB68E4
:104150001B681A467B68DB01134484331B68FA68CA
:10416000126811467A68D2010A44843243F001038E
:10417000136000BF2437BD465DF8047B704700BF65
:10418000F8F8FFFF00F8FFFF80B584B000AF78605B
:10419000FDF7B2FFF8607B68002B01D101233BE003
:1041A0007B68002283F83C207B68022283F83D2054
:1041B0007B681B68DA687B681B6822F00102DA60A2
:1041C0000FE0FDF799FF0246FB68D31A052B08D9CB
:1041D0007B6840229A667B68032283F83D20012396
:1041E0001AE07B681B68DB6803F00103002BE8D151
:1041F000786800F015F87B680022DA657B68002299
:104200001A667B6800225A667B6800229A667B6881
:10421000012283F83D20002318461037BD4680BD9B
:1042200080B485B000AF78607B68D9687B681A6914
:104230007B681B680A43DA607B685A697B689B6904
:104240001A437B68DB691A437B681B6A1A437B68E5
:104250005B6A1A437B68DB6A1A437B681B6B1A43F1
:104260007B689B6A013B9B0442EA03017B689A6876
:104270007B681B680A431A617B685B68B3F1804FF7
:1042800007D17B681B681A697B681B6842F0404253
:104290001A617B681B6800225A617B685B6B002B8C
:1042A00011DA7B681B685A697B681B6842F48022BC
:1042B0005A617B685B6B5B42FB607B681B68FA68DA
:1042C00092B21A6206E07B685B6B1A467B681B68D9
:1042D00092B21A627B689B6B002B15DA7B681B68B5
:1042E0005A697B681B6842F400225A617B689B6BA9
:1042F0005B42FB607B681B68196AFB681A047B6879
:104300001B680A431A6209E07B681B68196A7B68AC
:104310009B6B1A047B681B680A431A627B685B68A4
:10432000B3F1804F06D07B685A687B681B68D2B2B5
:104330009A6203E07B681B6800229A627B681B68B4
:1043400000225A6200BF1437BD465DF8047B7047F7
:1043500080B586B002AF78600023FB73FDF7CCFE1A
:10436000B8607B68002B02D10123FB73A5E07B685A
:1043700000225A657B681B6D002B40F09E80786898
:1043800000F0A2F841F28831786800F0DDFA7B682D
:104390001B689A684B4B13407A68D1687A68126937
:1043A000013A120411437A685269013A1202114328
:1043B0007A68526B11437A68D26911437A6812683D
:1043C0000B4393607B681B68DB6823F4E0217B6808
:1043D0001A6A7B681B680A43DA607B681B6B1904E6
:1043E0007B689A6B7B681B680A431A617B681B6851
:1043F0007A68D26B5A617B681B681B6823F4F8519A
:104400007B685B68013B1A027B681B680A431A6081
:104410007B689B6D0093BB6800222021786800F0C8
:10442000A2FA0346FB73FB7B002B46D17B681B681B
:10443000DB6823F0FF017B685B6A5A1E7B681B68A0
:104440000A43DA607B681B681B6823F040017B68C5
:104450009A687B681B680A431A607B681B68D3F8FC
:10446000083123F0A0417B689A6A7B68DB6A1A43B3
:104470007B681B680A43C3F808217B681B681A68BD
:104480007B681B6842F001021A607B689B69022B03
:1044900007D17B681B689A687B681B6842F0020240
:1044A0009A607B68DB68B3F1806F03D17B6801227F
:1044B0001A6502E07B6802221A65FB7B18461037FA
:1044C000BD4680BDF4F8E0F880B483B000AF7860FA
:1044D00000BF0C37BD465DF8047B704780B584B0E3
:1044E00000AF78600023FB737B68002B02D10123AF
:1044F000FB7315E07B681B681A687B681B6822F0F9
:1045000001021A607B681B689A687B681B6822F04E
:1045100002029A60786800F008F87B6800221A6549
:10452000FB7B18461037BD4680BD80B483B000AF1A
:10453000786000BF0C37BD465DF8047B704780B5DE
:104540008AB002AFF860B9607A60FDF7D5FDB86156
:10455000FB681B6D7B617B69012B02D07B69022BA1
:1045600022D17B680093BB6900222021F86800F00B
:10457000FAF90346FB77FB7F002B1AD1BB681B6857
:104580001A04BB685B681B021A43BB689B6842EA5B
:104590000301BB68DA68FB681B680A43C3F80022A2
:1045A000FB6802221A6504E00123FB77FB681022F6
:1045B0005A65FB7F18462037BD4680BD80B588B060
:1045C00002AFF860B9607A60FDF796FD3861FB686C
:1045D0001B6D022B49D1FB68DB68B3F1806F44D1BE
:1045E0007B6800933B6900222021F86800F0BBF94A
:1045F0000346FB75FB7D002B3CD1FB681B681A68EA
:10460000FB681B6822F040521A60FB681B689B68BD
:1046100023F08071BB681A68FB681B680A439A60C4
:10462000BB681A69BB689B681A43FB681B6842F049
:104630000C22C3F80021BB681A69BB689B681A4347
:10464000FB681B6842F00C22C3F88021BB68DA6863
:10465000FB681B68013A1A64FB681B68BA685268F9
:104660009A64FB6804221A6504E00123FB75FB6869
:1046700010225A65FB7D18461837BD4680BD80B5AF
:104680008AB002AFF860B9607A60FDF735FDB861B5
:10469000FB681B6850337B61BB68002B05D101238D
:1046A000FB77FB6808225A6557E0FB681B6D042BFB
:1046B0004ED1FB681B681B6C5A1CFB689A64FB6834
:1046C0009A6CFB685A64FB68BA681A64FB681B68DA
:1046D0001A68FB681B6822F040521A607B680093DE
:1046E000BB6901220421F86800F03DF90346FB771D
:1046F000FB7F002B13D1FB681B6C1A787B691A7047
:10470000FB681B6C5A1CFB681A64FB689B6C5A1E86
:10471000FB689A64FB689B6C002BDFD100E000BF54
:10472000FB7F002B19D17B680093BB69012202211A
:10473000F86800F018F90346FB77FB7F002B0CD1DB
:10474000FB681B6802225A62FB6802221A6504E0B9
:104750000123FB77FB6810225A65FB7F1846203740
:10476000BD4680BD80B58CB002AFF860B9607A609C
:10477000FDF7C2FC3862FB681B685033FB61FB68C5
:104780001B689B6CBB61FB681B68D3F810317B61B5
:10479000BB68002B06D1012387F82730FB6808226D
:1047A0005A657CE0FB681B6D042B72D1FB681B68AB
:1047B0001B6C5A1CFB689A64FB689A6CFB685A6411
:1047C000FB68BA681A64FB681B681B6823F04052D8
:1047D000FB681B6842F080521A60FB68DB68B3F12B
:1047E000806F04D1FB681B68BA699A6411E0FB68AA
:1047F0001B68D3F8003103F4E063002B04D0FB689E
:104800001B68BA699A6404E0FB681B687A69C3F89C
:1048100010217B6800933B6A01220621F86800F0B2
:10482000A2F8034687F8273097F82730002B14D1D9
:10483000FB681B6CFA691278D2B21A70FB681B6CA9
:104840005A1CFB681A64FB689B6C5A1EFB689A64CE
:10485000FB689B6C002BDCD100E000BF97F8273091
:10486000002B1CD17B6800933B6A01220221F8686F
:1048700000F079F8034687F8273097F82730002BA7
:104880000DD1FB681B6802225A62FB6802221A657E
:1048900005E0012387F82730FB6810225A6597F856
:1048A000273018462837BD4680BD000080B586B049
:1048B00002AF78603960FDF71FFCB8607B681B6D44
:1048C000042B34D17B689B6D0093BB6800222021B0
:1048D000786800F048F80346FB73FB7B002B2BD174
:1048E0007B6888221A653B681B68082B11D17B689E
:1048F0001B683A685268C3F830217B681B68102235
:104900005A627B681B681A687B681B6842F48012D5
:104910001A607B681B681A680A4B13403A68126871
:104920001A437B681B6842F040521A6004E001237E
:10493000FB737B6810225A65FB7B18461037BD4617
:1049400080BD00BFF7FFFFCF80B483B000AF7860B9
:1049500039607B683A689A65002318460C37BD4673
:104960005DF8047B704780B584B000AFF860B96033
:104970003B601346FB711AE0BB69B3F1FF3F16D0F1
:10498000FDF7BAFB02463B68D31ABA699A4202D3D2
:10499000BB69002B0BD1FB684FF400721A65FB68F2
:1049A0005B6D43F00102FB685A6501230EE0FB6872
:1049B0001B681A6ABB681340002B14BF0123002335
:1049C000DBB21A46FB799A42D6D10023184610373B
:1049D000BD4680BD80B58CB000AF78607B68002B91
:1049E00001D10123C8E37B681B6803F00103002B9E
:1049F00000F08780884B1B6903F03803FB62864B0D
:104A00009B6ABB62FB6A102B07D0FB6A182B10D184
:104A1000BB6A03F00303022B0BD17F4B1B6803F42B
:104A20000033002B6CD07B685B68002B68D10123BE
:104A3000A2E37B685B68B3F5803F06D1764B1B68C9
:104A4000754A43F4803313602EE07B685B68002B6B
:104A50000CD1714B1B68704A23F4803313606E4B8A
:104A60001B686D4A23F4802313601DE07B685B683C
:104A7000B3F5A02F0CD1684B1B68674A43F4802321
:104A80001360654B1B68644A43F4803313600BE08A
:104A9000614B1B68604A23F4803313605E4B1B68D4
:104AA0005D4A23F4802313607B685B68002B13D07E
:104AB000FDF722FB786208E0FDF71EFB02467B6AE9
:104AC000D31A642B01D9032356E3534B1B6803F419
:104AD0000033002BF0D014E0FDF70EFB786208E005
:104AE000FDF70AFB02467B6AD31A642B01D9032324
:104AF00042E3494B1B6803F40033002BF0D100E084
:104B000000BF7B681B6803F00203002B00F08C8061
:104B1000414B1B6903F038033B623F4B9B6AFB61CF
:104B20003B6A002B07D03B6A182B37D1FB6903F097
:104B30000303002B32D1384B1B6803F00403002B16
:104B400005D07B68DB68002B01D1012314E3324BD5
:104B50001B6823F019027B68DB682F4913430B6045
:104B6000FDF7CAFA786208E0FDF7C6FA02467B6AEA
:104B7000D31A022B01D90323FEE2274B1B6803F053
:104B80000403002BF0D0244B5B6823F0FE427B68CB
:104B90001B691B06204913434B6045E07B68DB68BB
:104BA000002B26D01C4B1B6823F019027B68DB68A6
:104BB000194913430B60FDF79FFA786208E0FDF78F
:104BC0009BFA02467B6AD31A022B01D90323D3E254
:104BD000114B1B6803F00403002BF0D00E4B5B68F5
:104BE00023F0FE427B681B691B060B4913434B6095
:104BF0001AE0094B1B68084A23F001031360FDF714
:104C00007BFA78620AE0FDF777FA02467B6AD31AEC
:104C1000022B03D90323AFE200440258964B1B68D2
:104C200003F00403002BEED17B681B6803F0100334
:104C3000002B6AD0904B1B6903F03803BB618E4B8D
:104C40009B6A7B61BB69082B07D0BB69182B1BD102
:104C50007B6903F00303012B16D1874B1B6803F418
:104C60008073002B05D07B68DB69802B01D001238A
:104C700082E2814BDB6823F07C527B681B6A1B0657
:104C80007D491343CB6040E07B68DB69002B23D078
:104C9000794B1B68784A43F080031360FDF72CFAC8
:104CA000786208E0FDF728FA02467B6AD31A022BE5
:104CB00001D9032360E2704B1B6803F48073002B5F
:104CC000F0D06D4BDB6823F07C527B681B6A1B06BF
:104CD00069491343CB6018E0674B1B68664A23F0B1
:104CE00080031360FDF708FA786208E0FDF704FA24
:104CF00002467B6AD31A022B01D903233CE25E4BA6
:104D00001B6803F48073002BF0D17B681B6803F0F1
:104D10000803002B36D07B685B69002B19D0564BFB
:104D20005B6F554A43F001035367FDF7E5F978627D
:104D300008E0FDF7E1F902467B6AD31A022B01D99C
:104D4000032319E24C4B5B6F03F00203002BF0D0FE
:104D500018E0494B5B6F484A23F001035367FDF7A6
:104D6000CBF9786208E0FDF7C7F902467B6AD31AEF
:104D7000022B01D90323FFE13F4B5B6F03F00203DA
:104D8000002BF0D17B681B6803F02003002B36D08A
:104D90007B689B69002B19D0374B1B68364A43F45C
:104DA00080531360FDF7A8F9786208E0FDF7A4F9D5
:104DB00002467B6AD31A022B01D90323DCE12E4B76
:104DC0001B6803F40053002BF0D018E02A4B1B683B
:104DD000294A23F480531360FDF78EF9786208E0C6
:104DE000FDF78AF902467B6AD31A022B01D9032305
:104DF000C2E1214B1B6803F40053002BF0D17B6808
:104E00001B6803F00403002B00F086801B4B1B681B
:104E10001A4A43F480731360FDF76EF9786208E074
:104E2000FDF76AF902467B6AD31A642B01D9032382
:104E3000A2E1124B1B6803F48073002BF0D07B6857
:104E40009B68012B06D10C4B1B6F0B4A43F00103EF
:104E5000136732E07B689B68002B11D1064B1B6FF8
:104E6000054A23F001031367034B1B6F024A23F02B
:104E70000403136721E000BF0044025800480258B1
:104E80007B689B68052B0CD1834B1B6F824A43F0D8
:104E900004031367804B1B6F7F4A43F001031367C2
:104EA0000BE07D4B1B6F7C4A23F0010313677A4BA9
:104EB0001B6F794A23F0040313677B689B68002B00
:104EC00015D0FDF719F978620AE0FDF715F90246E9
:104ED0007B6AD31A41F28832934201D903234BE112
:104EE0006D4B1B6F03F00203002BEED014E0FDF7B7
:104EF00003F978620AE0FDF7FFF802467B6AD31AED
:104F000041F28832934201D9032335E1624B1B6F92
:104F100003F00203002BEED17B685B6A002B00F0EC
:104F20002A815D4B1B6903F03803182B00F0BA800F
:104F30007B685B6A022B40F09580574B1B68564A92
:104F400023F080731360FDF7D7F8786208E0FDF76F
:104F5000D3F802467B6AD31A022B01D903230BE153
:104F60004D4B1B6803F00073002BF0D14A4B9A6A3B
:104F70004A4B13407A68916A7A68D26A12010A43EE
:104F8000454913438B627B681B6B013BC3F30802EB
:104F90007B685B6B013B5B029BB21A437B689B6B3C
:104FA000013B1B0403F4FE031A437B68DB6B013BEC
:104FB0001B0603F0FE43384913430B63364BDB6A91
:104FC000354A23F00103D362334B5A6B344B134001
:104FD0007A68926CD200304913434B632E4BDB6AE4
:104FE00023F00C027B681B6C2B491343CB622A4BCA
:104FF000DB6A23F002027B685B6C27491343CB62B8
:10500000254BDB6A244A43F48033D362224BDB6AAC
:10501000214A43F40033D3621F4BDB6A1E4A43F438
:105020008023D3621C4BDB6A1B4A43F00103D3622B
:10503000194B1B68184A43F080731360FDF75CF846
:10504000786208E0FDF758F802467B6AD31A022B13
:1050500001D9032390E0104B1B6803F00073002B71
:10506000F0D088E00C4B1B680B4A23F08073136070
:10507000FDF742F8786208E0FDF73EF802467B6AE9
:10508000D31A022B01D9032376E0034B1B6803F0EC
:105090000073002BF0D16EE0004402580CFCFFFFBF
:1050A0000700FFFF364B9B6A3B61354B1B6BFB6078
:1050B0007B685B6A012B31D03B6903F003027B689C
:1050C0009B6A9A422AD13B691B0903F03F027B6825
:1050D000DB6A9A4222D1FB68C3F308027B681B6B30
:1050E000013B9A421AD1FB685B0A03F07F027B689E
:1050F0005B6B013B9A4211D1FB681B0C03F07F02F2
:105100007B689B6B013B9A4208D1FB681B0E03F046
:105110007F027B68DB6B013B9A4201D001232BE0CD
:10512000174B5B6BDB08C3F30C033B617B689B6C29
:105130003A699A421FD0124BDB6A114A23F00103ED
:10514000D362FCF7D9FF786200BFFCF7D5FF0246B7
:105150007B6A9342F9D00A4B5A6B0A4B13407A6828
:10516000926CD200064913434B63054BDB6A044A39
:1051700043F00103D362002318463037BD4680BD9B
:10518000004402580700FFFF80B586B000AF78608A
:1051900039607B68002B01D101239CE18A4B1B689D
:1051A00003F00F033A689A4210D9874B1B6823F02B
:1051B0000F0285493B6813430B60834B1B6803F068
:1051C0000F033A689A4201D0012384E17B681B688F
:1051D00003F00403002B10D07B681A697B4B9B699A
:1051E00003F070039A4208D9784B9B6923F0700250
:1051F0007B681B69754913438B617B681B6803F0EF
:105200000803002B10D07B685A69704BDB6903F0F0
:1052100070039A4208D96D4BDB6923F070027B68FA
:105220005B696A491343CB617B681B6803F0100319
:10523000002B10D07B689A69644BDB6903F4E06350
:105240009A4208D9614BDB6923F4E0627B689B6971
:105250005E491343CB617B681B6803F02003002B7E
:1052600010D07B68DA69594B1B6A03F070039A42CD
:1052700008D9564B1B6A23F070027B68DB695349DF
:1052800013430B627B681B6803F00203002B10D0F2
:105290007B68DA684D4B9B6903F00F039A4208D98B
:1052A0004A4B9B6923F00F027B68DB684749134335
:1052B0008B617B681B6803F00103002B55D0434BC7
:1052C0009B6923F470627B689B68404913438B6140
:1052D0007B685B68022B07D13C4B1B6803F40033EF
:1052E000002B21D10123F6E07B685B68032B07D1FB
:1052F000364B1B6803F00073002B15D10123EAE045
:105300007B685B68012B07D1304B1B6803F480730B
:10531000002B09D10123DEE02C4B1B6803F00403B2
:10532000002B01D10123D6E0284B1B6923F0070293
:105330007B685B68254913430B61FCF7DDFE7861F0
:105340000AE0FCF7D9FE02467B69D31A41F28832A3
:10535000934201D90323BEE01C4B1B6903F03802C2
:105360007B685B68DB009A42EBD17B681B6803F0CB
:105370000203002B10D07B68DA68144B9B6903F0A2
:105380000F039A4208D2114B9B6923F00F027B68EE
:10539000DB680E4913438B610B4B1B6803F00F0353
:1053A0003A689A4214D2084B1B6823F00F02064950
:1053B0003B6813430B60044B1B6803F00F033A6810
:1053C0009A4205D0012386E0002000520044025892
:1053D0007B681B6803F00403002B10D07B681A69FC
:1053E0003F4B9B6903F070039A4208D23C4B9B6988
:1053F00023F070027B681B69394913438B617B681A
:105400001B6803F00803002B10D07B685A69344BEB
:10541000DB6903F070039A4208D2314BDB6923F059
:1054200070027B685B692E491343CB617B681B6804
:1054300003F01003002B10D07B689A69284BDB69BE
:1054400003F4E0639A4208D2254BDB6923F4E0625F
:105450007B689B6922491343CB617B681B6803F01F
:105460002003002B10D07B68DA691D4B1B6A03F008
:1054700070039A4208D21A4B1B6A23F070027B68B1
:10548000DB69174913430B6200F09EF80246144B88
:105490009B691B0A03F00F031249CB5C03F01F0347
:1054A00022FA03F33B610E4B9B6903F00F030D4A95
:1054B000D35C03F01F033A6922FA03F30A4A13602C
:1054C0000A4A3B6913600A4B1B681846FCF7CAFD81
:1054D0000346FB73FB7B18461837BD4680BD00BFF3
:1054E00000440258E09B0008200000241C00002417
:1054F0002400002480B58CB000AFF860B9607A60F9
:10550000FB68002B2AD12D4BD3F8E0302B4A43F017
:105510000103C2F8E030294BD3F8E03003F0010377
:10552000BB61BB694FF48073FB6102233B620323C1
:10553000BB6200237B620023FB6207F11C03194658
:105540001F48FEF705FA1D4B1B6923F0FE72B96870
:105550007B680B43194913430B612AE0174BD3F8BF
:10556000E030164A43F00403C2F8E030134BD3F89E
:10557000E03003F004037B617B694FF40073FB614F
:1055800002233B620323BB6200237B620023FB6296
:1055900007F11C0319460B48FEF7DAF9074B1B69A4
:1055A00023F07E427B68D901BB680B430349134358
:1055B0000B6100BF3037BD4680BD00BF00440258BC
:1055C000000002580008025880B489B000AFB34B05
:1055D0001B6903F03803182B00F2558101A252F821
:1055E00023F000BF49560008875800088758000874
:1055F000875800088758000887580008875800080F
:10560000875800086F560008875800088758000818
:1056100087580008875800088758000887580008EE
:1056200087580008755600088758000887580008F2
:1056300087580008875800088758000887580008CE
:10564000875800087B560008944B1B6803F0200322
:10565000002B09D0914B1B68DB0803F00303904A31
:1056600022FA03F3BB6111E18D4BBB610EE18D4B5F
:10567000BB610BE18C4BBB6108E1884B9B6A03F07B
:1056800003037B61854B9B6A1B0903F03F033B616E
:10569000824BDB6A03F00103FB60804B5B6BDB0832
:1056A000C3F30C03FA6802FB03F307EE903AF8EE3B
:1056B000677AC7ED027A3B69002B00F0E1807B69D5
:1056C000022B00F083807B69022B00F2A1807B69B2
:1056D000002B03D07B69012B56D099E06F4B1B68E0
:1056E00003F02003002B2DD06C4B1B68DB0803F06C
:1056F00003036B4A22FA03F37B607B6807EE903A60
:10570000F8EE676A3B6907EE903AF8EE677A86EE44
:10571000A77A624B1B6BC3F3080307EE903AF8EECF
:10572000676A97ED026ADFED615AC6EE257A76EE7A
:10573000A77AF7EE006A77EEA67A67EE277AC7EDCA
:10574000077A87E03B6907EE903AF8EE677ADFED7B
:10575000586A86EEA77A514B1B6BC3F3080307EE1A
:10576000903AF8EE676A97ED026ADFED505AC6EE9E
:10577000257A76EEA77AF7EE006A77EEA67A67EEDC
:10578000277AC7ED077A65E03B6907EE903AF8EEB5
:10579000677ADFED486A86EEA77A404B1B6BC3F34E
:1057A000080307EE903AF8EE676A97ED026ADFEDBC
:1057B0003F5AC6EE257A76EEA77AF7EE006A77EEC4
:1057C000A67A67EE277AC7ED077A43E03B6907EED2
:1057D000903AF8EE677ADFED386A86EEA77A2F4BBB
:1057E0001B6BC3F3080307EE903AF8EE676A97ED78
:1057F000026ADFED2E5AC6EE257A76EEA77AF7EE2C
:10580000006A77EEA67A67EE277AC7ED077A21E07D
:105810003B6907EE903AF8EE677ADFED266A86EE8E
:10582000A77A1E4B1B6BC3F3080307EE903AF8EE02
:10583000676A97ED026ADFED1D5AC6EE257A76EEAD
:10584000A77AF7EE006A77EEA67A67EE277AC7EDB9
:10585000077A00BF114B1B6B5B0A03F07F03013318
:105860003B603B6807EE903AB8EE677AD7ED076A7F
:10587000C6EE877AFCEEE77A17EE903ABB6105E058
:105880000023BB6102E0074BBB6100BFBB69184648
:105890002437BD465DF8047B704700BF00440258C2
:1058A0000090D00300093D0040787D0100000046D3
:1058B0000024744C0024744A20BCBE4B2DE9B04F28
:1058C000C6B000AFC7F80401002387F817310023E2
:1058D00087F81631D7F80431D3E9002302F00064C9
:1058E000002554EA050349D0D7F804315B6EB3F5BF
:1058F000401F2FD0B3F5401F28D8B3F5001F1AD092
:10590000B3F5001F22D8002B03D0B3F5801F07D0BA
:105910001CE0AB4BDB6AAA4A43F40033D3621AE0C3
:10592000D7F8043108330221184601F067F903461D
:1059300087F817310FE0D7F80431283302211846D1
:1059400001F00EFA034687F8173104E0012387F8C7
:10595000173100E000BF97F81731002B0AD1984BA0
:105960001B6D23F44011D7F804315B6E944A0B434E
:10597000136503E097F8173187F81631D7F804312B
:10598000D3E9002302F480784FF0000958EA0903B4
:1059900047D0D7F804319B6D042B2AD801A252F8C6
:1059A00023F000BFB9590008C7590008DD590008A5
:1059B000FB590008FB590008814BDB6A804A43F41D
:1059C0000033D3621AE0D7F80431083300211846B7
:1059D00001F014F9034687F817310FE0D7F80431C6
:1059E00028330021184601F0BBF9034687F8173128
:1059F00004E0012387F8173100E000BF97F8173162
:105A0000002B0AD16E4B1B6D23F00701D7F8043130
:105A10009B6D6B4A0B43136503E097F8173187F8CA
:105A20001631D7F80431D3E9002302F4806A4FF02D
:105A3000000B5AEA0B035BD0D7F80431D3F8A4303B
:105A4000B3F5200F3BD0B3F5200F34D8B3F5000FDA
:105A500037D0B3F5000F2ED8B3F5C00F33D0B3F560
:105A6000C00F28D8B3F5800F1AD0B3F5800F22D815
:105A7000002B03D0B3F5001F07D01CE0504BDB6AAE
:105A80004F4A43F40033D3621EE0D7F804310833A1
:105A90000021184601F0B2F8034687F8173113E0E9
:105AA000D7F8043128330021184601F059F903468C
:105AB00087F8173108E0012387F8173104E000BFA9
:105AC00002E000BF00E000BF97F81731002B0BD1B8
:105AD0003B4B9B6D23F46001D7F80431D3F8A4301D
